{
  "transactions": [
    {
      "hash": "0xbc8a3cadecf967a24af20c981e4bde927ec7ad023342c395b1ddb22cc4199337",
      "transactionType": "CALL",
      "contractName": null,
      "contractAddress": "0x1c7d4b196cb0c7b01d743fbc6116a902379c7238",
      "function": "approve(address,uint256)",
      "arguments": [
        "0x9f3B8679c73C2Fef8b59B4f3444d4e156fb70AA5",
        "115792089237316195423570985008687907853269984665640564039457584007913129639935"
      ],
      "transaction": {
        "from": "0x81d786b35f3ea2f39aa17cb18d9772e4ecd97206",
        "to": "0x1c7d4b196cb0c7b01d743fbc6116a902379c7238",
        "gas": "0xd0b8",
        "value": "0x0",
        "input": "0x095ea7b30000000000000000000000009f3b8679c73c2fef8b59b4f3444d4e156fb70aa5ffffffffffffffffffffffffffffffffffffffffffffffffffffffffffffffff",
        "nonce": "0x79",
        "chainId": "0xaa36a7"
      },
      "additionalContracts": [],
      "isFixedGasLimit": false
    },
    {
      "hash": "0x66142922c440dde038184f3eb3a3dfddbdfb38167e3007e70f97035f77869905",
      "transactionType": "CALL",
      "contractName": null,
      "contractAddress": "0x9f3b8679c73c2fef8b59b4f3444d4e156fb70aa5",
      "function": "depositForBurn(uint256,uint32,bytes32,address)",
      "arguments": [
        "100",
        "6",
        "0x000000000000000000000000b01db4a1af9ba5001676fc60f05d1833746f2460",
        "0x1c7D4B196Cb0C7B01d743Fbc6116a902379C7238"
      ],
      "transaction": {
        "from": "0x81d786b35f3ea2f39aa17cb18d9772e4ecd97206",
        "to": "0x9f3b8679c73c2fef8b59b4f3444d4e156fb70aa5",
        "gas": "0x24828",
        "value": "0x0",
        "input": "0x6fd3504e00000000000000000000000000000000000000000000000000000000000000640000000000000000000000000000000000000000000000000000000000000006000000000000000000000000b01db4a1af9ba5001676fc60f05d1833746f24600000000000000000000000001c7d4b196cb0c7b01d743fbc6116a902379c7238",
        "nonce": "0x7a",
        "chainId": "0xaa36a7"
      },
      "additionalContracts": [],
      "isFixedGasLimit": false
    }
  ],
  "receipts": [
    {
      "status": "0x1",
      "cumulativeGasUsed": "0x81a0d4",
      "logs": [
        {
          "address": "0x1c7d4b196cb0c7b01d743fbc6116a902379c7238",
          "topics": [
            "0x8c5be1e5ebec7d5bd14f71427d1e84f3dd0314c0f7b2291e5b200ac8c7c3b925",
            "0x00000000000000000000000081d786b35f3ea2f39aa17cb18d9772e4ecd97206",
            "0x0000000000000000000000009f3b8679c73c2fef8b59b4f3444d4e156fb70aa5"
          ],
          "data": "0xffffffffffffffffffffffffffffffffffffffffffffffffffffffffffffffff",
          "blockHash": "0x91fc027a434644a0f8da6353eee61aa661bb99469b9093056e9e6bbaebe9bfc3",
          "blockNumber": "0x6c278b",
          "blockTimestamp": "0x67386a80",
          "transactionHash": "0xbc8a3cadecf967a24af20c981e4bde927ec7ad023342c395b1ddb22cc4199337",
          "transactionIndex": "0x36",
          "logIndex": "0x58",
          "removed": false
        }
      ],
      "logsBloom": "0x00000000000000000000000000000000000000000000000000000000000200800000000000000000000000000000000000000000000000000000000000200000000000000000000200000000000000800000000000000000000000000000000000000000000000000000000000000000000000000000000010000000000000000000000000100000000000000000000000000000000000000000000000000000020000000000000000000000000000000000000000000000000000000000000000000000000000000000000000000002000000000000000000000000000000000010000000000000000010000000010000000000000000000000000000000000",
      "type": "0x2",
      "transactionHash": "0xbc8a3cadecf967a24af20c981e4bde927ec7ad023342c395b1ddb22cc4199337",
      "transactionIndex": "0x36",
      "blockHash": "0x91fc027a434644a0f8da6353eee61aa661bb99469b9093056e9e6bbaebe9bfc3",
      "blockNumber": "0x6c278b",
      "gasUsed": "0x971d",
      "effectiveGasPrice": "0x70c782a4",
      "from": "0x81d786b35f3ea2f39aa17cb18d9772e4ecd97206",
      "to": "0x1c7d4b196cb0c7b01d743fbc6116a902379c7238",
      "contractAddress": null
    },
    {
      "status": "0x1",
      "cumulativeGasUsed": "0x8347c0",
      "logs": [
        {
          "address": "0x1c7d4b196cb0c7b01d743fbc6116a902379c7238",
          "topics": [
            "0xddf252ad1be2c89b69c2b068fc378daa952ba7f163c4a11628f55a4df523b3ef",
            "0x00000000000000000000000081d786b35f3ea2f39aa17cb18d9772e4ecd97206",
            "0x000000000000000000000000e997d7d2f6e065a9a93fa2175e878fb9081f1f0a"
          ],
          "data": "0x0000000000000000000000000000000000000000000000000000000000000064",
          "blockHash": "0x91fc027a434644a0f8da6353eee61aa661bb99469b9093056e9e6bbaebe9bfc3",
          "blockNumber": "0x6c278b",
          "blockTimestamp": "0x67386a80",
          "transactionHash": "0x66142922c440dde038184f3eb3a3dfddbdfb38167e3007e70f97035f77869905",
          "transactionIndex": "0x37",
          "logIndex": "0x59",
          "removed": false
        },
        {
          "address": "0x1c7d4b196cb0c7b01d743fbc6116a902379c7238",
          "topics": [
            "0xcc16f5dbb4873280815c1ee09dbd06736cffcc184412cf7a71a0fdb75d397ca5",
            "0x000000000000000000000000e997d7d2f6e065a9a93fa2175e878fb9081f1f0a"
          ],
          "data": "0x0000000000000000000000000000000000000000000000000000000000000064",
          "blockHash": "0x91fc027a434644a0f8da6353eee61aa661bb99469b9093056e9e6bbaebe9bfc3",
          "blockNumber": "0x6c278b",
          "blockTimestamp": "0x67386a80",
          "transactionHash": "0x66142922c440dde038184f3eb3a3dfddbdfb38167e3007e70f97035f77869905",
          "transactionIndex": "0x37",
          "logIndex": "0x5a",
          "removed": false
        },
        {
          "address": "0x1c7d4b196cb0c7b01d743fbc6116a902379c7238",
          "topics": [
            "0xddf252ad1be2c89b69c2b068fc378daa952ba7f163c4a11628f55a4df523b3ef",
            "0x000000000000000000000000e997d7d2f6e065a9a93fa2175e878fb9081f1f0a",
            "0x0000000000000000000000000000000000000000000000000000000000000000"
          ],
          "data": "0x0000000000000000000000000000000000000000000000000000000000000064",
          "blockHash": "0x91fc027a434644a0f8da6353eee61aa661bb99469b9093056e9e6bbaebe9bfc3",
          "blockNumber": "0x6c278b",
          "blockTimestamp": "0x67386a80",
          "transactionHash": "0x66142922c440dde038184f3eb3a3dfddbdfb38167e3007e70f97035f77869905",
          "transactionIndex": "0x37",
          "logIndex": "0x5b",
          "removed": false
        },
        {
          "address": "0x7865fafc2db2093669d92c0f33aeef291086befd",
          "topics": [
            "0x8c5261668696ce22758910d05bab8f186d6eb247ceac2af2e82c7dc17669b036"
          ],
          "data": "0x000000000000000000000000000000000000000000000000000000000000002000000000000000000000000000000000000000000000000000000000000000f800000000000000000000000600000000000406660000000000000000000000009f3b8679c73c2fef8b59b4f3444d4e156fb70aa50000000000000000000000009f3b8679c73c2fef8b59b4f3444d4e156fb70aa50000000000000000000000000000000000000000000000000000000000000000000000000000000000000000000000001c7d4b196cb0c7b01d743fbc6116a902379c7238000000000000000000000000b01db4a1af9ba5001676fc60f05d1833746f2460000000000000000000000000000000000000000000000000000000000000006400000000000000000000000081d786b35f3ea2f39aa17cb18d9772e4ecd972060000000000000000",
          "blockHash": "0x91fc027a434644a0f8da6353eee61aa661bb99469b9093056e9e6bbaebe9bfc3",
          "blockNumber": "0x6c278b",
          "blockTimestamp": "0x67386a80",
          "transactionHash": "0x66142922c440dde038184f3eb3a3dfddbdfb38167e3007e70f97035f77869905",
          "transactionIndex": "0x37",
          "logIndex": "0x5c",
          "removed": false
        },
        {
          "address": "0x9f3b8679c73c2fef8b59b4f3444d4e156fb70aa5",
          "topics": [
            "0x2fa9ca894982930190727e75500a97d8dc500233a5065e0f3126c48fbe0343c0",
            "0x0000000000000000000000000000000000000000000000000000000000040666",
            "0x0000000000000000000000001c7d4b196cb0c7b01d743fbc6116a902379c7238",
            "0x00000000000000000000000081d786b35f3ea2f39aa17cb18d9772e4ecd97206"
          ],
          "data": "0x0000000000000000000000000000000000000000000000000000000000000064000000000000000000000000b01db4a1af9ba5001676fc60f05d1833746f246000000000000000000000000000000000000000000000000000000000000000060000000000000000000000009f3b8679c73c2fef8b59b4f3444d4e156fb70aa50000000000000000000000000000000000000000000000000000000000000000",
          "blockHash": "0x91fc027a434644a0f8da6353eee61aa661bb99469b9093056e9e6bbaebe9bfc3",
          "blockNumber": "0x6c278b",
          "blockTimestamp": "0x67386a80",
          "transactionHash": "0x66142922c440dde038184f3eb3a3dfddbdfb38167e3007e70f97035f77869905",
          "transactionIndex": "0x37",
          "logIndex": "0x5d",
          "removed": false
        }
      ],
      "logsBloom": "0x00000000000000000000000000000000000000000000001000000000000200000000000000000200000000000000000000000010000004000000010000000000100000000000000200000008000000800000200000000000000200020000000000000000022000400000000000000800080000000040000000100010100000000000000000101004000000000000000000000000000000000000000000200000000000000000000000000000000000000004008000000000000000000000000000000002000000000400000000000002000000000000000000000000000020000000000400000020000010000000000000080000000000000000000000000000",
      "type": "0x2",
      "transactionHash": "0x66142922c440dde038184f3eb3a3dfddbdfb38167e3007e70f97035f77869905",
      "transactionIndex": "0x37",
      "blockHash": "0x91fc027a434644a0f8da6353eee61aa661bb99469b9093056e9e6bbaebe9bfc3",
      "blockNumber": "0x6c278b",
      "gasUsed": "0x1a6ec",
      "effectiveGasPrice": "0x70c782a4",
      "from": "0x81d786b35f3ea2f39aa17cb18d9772e4ecd97206",
      "to": "0x9f3b8679c73c2fef8b59b4f3444d4e156fb70aa5",
      "contractAddress": null
    }
  ],
  "libraries": [],
  "pending": [],
  "returns": {},
  "timestamp": 1731750530,
  "chain": 11155111,
  "commit": "9327c13"
}