{
  "transactions": [
    {
      "hash": "0xe294cf79ad58b3e882c356083172d031e2d13f22d98bab9a0f85086eac1e3407",
      "transactionType": "CALL",
      "contractName": null,
      "contractAddress": "0x1c7d4b196cb0c7b01d743fbc6116a902379c7238",
      "function": "approve(address,uint256)",
      "arguments": [
        "0x9f3B8679c73C2Fef8b59B4f3444d4e156fb70AA5",
        "115792089237316195423570985008687907853269984665640564039457584007913129639935"
      ],
      "transaction": {
        "from": "0x81d786b35f3ea2f39aa17cb18d9772e4ecd97206",
        "to": "0x1c7d4b196cb0c7b01d743fbc6116a902379c7238",
        "gas": "0xd0b8",
        "value": "0x0",
        "input": "0x095ea7b30000000000000000000000009f3b8679c73c2fef8b59b4f3444d4e156fb70aa5ffffffffffffffffffffffffffffffffffffffffffffffffffffffffffffffff",
        "nonce": "0xa1",
        "chainId": "0xaa36a7"
      },
      "additionalContracts": [],
      "isFixedGasLimit": false
    },
    {
      "hash": "0x3d99cfab488b2e78aca936ae8a87dc6fd01fe902898e081576dc2e4c73e60471",
      "transactionType": "CALL",
      "contractName": null,
      "contractAddress": "0x9f3b8679c73c2fef8b59b4f3444d4e156fb70aa5",
      "function": "depositForBurn(uint256,uint32,bytes32,address)",
      "arguments": [
        "100",
        "6",
        "0x000000000000000000000000b01db4a1af9ba5001676fc60f05d1833746f2460",
        "0x1c7D4B196Cb0C7B01d743Fbc6116a902379C7238"
      ],
      "transaction": {
        "from": "0x81d786b35f3ea2f39aa17cb18d9772e4ecd97206",
        "to": "0x9f3b8679c73c2fef8b59b4f3444d4e156fb70aa5",
        "gas": "0x24828",
        "value": "0x0",
        "input": "0x6fd3504e00000000000000000000000000000000000000000000000000000000000000640000000000000000000000000000000000000000000000000000000000000006000000000000000000000000b01db4a1af9ba5001676fc60f05d1833746f24600000000000000000000000001c7d4b196cb0c7b01d743fbc6116a902379c7238",
        "nonce": "0xa2",
        "chainId": "0xaa36a7"
      },
      "additionalContracts": [],
      "isFixedGasLimit": false
    }
  ],
  "receipts": [
    {
      "status": "0x1",
      "cumulativeGasUsed": "0x76e2cd",
      "logs": [
        {
          "address": "0x1c7d4b196cb0c7b01d743fbc6116a902379c7238",
          "topics": [
            "0x8c5be1e5ebec7d5bd14f71427d1e84f3dd0314c0f7b2291e5b200ac8c7c3b925",
            "0x00000000000000000000000081d786b35f3ea2f39aa17cb18d9772e4ecd97206",
            "0x0000000000000000000000009f3b8679c73c2fef8b59b4f3444d4e156fb70aa5"
          ],
          "data": "0xffffffffffffffffffffffffffffffffffffffffffffffffffffffffffffffff",
          "blockHash": "0xf97d3ab2c3afea326c5fcfe06575663cfbc236f29ad0aa850b59fc50bc2ae65c",
          "blockNumber": "0x6c2926",
          "blockTimestamp": "0x67387f20",
          "transactionHash": "0xe294cf79ad58b3e882c356083172d031e2d13f22d98bab9a0f85086eac1e3407",
          "transactionIndex": "0x27",
          "logIndex": "0x41",
          "removed": false
        }
      ],
      "logsBloom": "0x00000000000000000000000000000000000000000000000000000000000200800000000000000000000000000000000000000000000000000000000000200000000000000000000200000000000000800000000000000000000000000000000000000000000000000000000000000000000000000000000010000000000000000000000000100000000000000000000000000000000000000000000000000000020000000000000000000000000000000000000000000000000000000000000000000000000000000000000000000002000000000000000000000000000000000010000000000000000010000000010000000000000000000000000000000000",
      "type": "0x2",
      "transactionHash": "0xe294cf79ad58b3e882c356083172d031e2d13f22d98bab9a0f85086eac1e3407",
      "transactionIndex": "0x27",
      "blockHash": "0xf97d3ab2c3afea326c5fcfe06575663cfbc236f29ad0aa850b59fc50bc2ae65c",
      "blockNumber": "0x6c2926",
      "gasUsed": "0x971d",
      "effectiveGasPrice": "0x88474d56",
      "from": "0x81d786b35f3ea2f39aa17cb18d9772e4ecd97206",
      "to": "0x1c7d4b196cb0c7b01d743fbc6116a902379c7238",
      "contractAddress": null
    },
    {
      "status": "0x1",
      "cumulativeGasUsed": "0x7889b9",
      "logs": [
        {
          "address": "0x1c7d4b196cb0c7b01d743fbc6116a902379c7238",
          "topics": [
            "0xddf252ad1be2c89b69c2b068fc378daa952ba7f163c4a11628f55a4df523b3ef",
            "0x00000000000000000000000081d786b35f3ea2f39aa17cb18d9772e4ecd97206",
            "0x000000000000000000000000e997d7d2f6e065a9a93fa2175e878fb9081f1f0a"
          ],
          "data": "0x0000000000000000000000000000000000000000000000000000000000000064",
          "blockHash": "0xf97d3ab2c3afea326c5fcfe06575663cfbc236f29ad0aa850b59fc50bc2ae65c",
          "blockNumber": "0x6c2926",
          "blockTimestamp": "0x67387f20",
          "transactionHash": "0x3d99cfab488b2e78aca936ae8a87dc6fd01fe902898e081576dc2e4c73e60471",
          "transactionIndex": "0x28",
          "logIndex": "0x42",
          "removed": false
        },
        {
          "address": "0x1c7d4b196cb0c7b01d743fbc6116a902379c7238",
          "topics": [
            "0xcc16f5dbb4873280815c1ee09dbd06736cffcc184412cf7a71a0fdb75d397ca5",
            "0x000000000000000000000000e997d7d2f6e065a9a93fa2175e878fb9081f1f0a"
          ],
          "data": "0x0000000000000000000000000000000000000000000000000000000000000064",
          "blockHash": "0xf97d3ab2c3afea326c5fcfe06575663cfbc236f29ad0aa850b59fc50bc2ae65c",
          "blockNumber": "0x6c2926",
          "blockTimestamp": "0x67387f20",
          "transactionHash": "0x3d99cfab488b2e78aca936ae8a87dc6fd01fe902898e081576dc2e4c73e60471",
          "transactionIndex": "0x28",
          "logIndex": "0x43",
          "removed": false
        },
        {
          "address": "0x1c7d4b196cb0c7b01d743fbc6116a902379c7238",
          "topics": [
            "0xddf252ad1be2c89b69c2b068fc378daa952ba7f163c4a11628f55a4df523b3ef",
            "0x000000000000000000000000e997d7d2f6e065a9a93fa2175e878fb9081f1f0a",
            "0x0000000000000000000000000000000000000000000000000000000000000000"
          ],
          "data": "0x0000000000000000000000000000000000000000000000000000000000000064",
          "blockHash": "0xf97d3ab2c3afea326c5fcfe06575663cfbc236f29ad0aa850b59fc50bc2ae65c",
          "blockNumber": "0x6c2926",
          "blockTimestamp": "0x67387f20",
          "transactionHash": "0x3d99cfab488b2e78aca936ae8a87dc6fd01fe902898e081576dc2e4c73e60471",
          "transactionIndex": "0x28",
          "logIndex": "0x44",
          "removed": false
        },
        {
          "address": "0x7865fafc2db2093669d92c0f33aeef291086befd",
          "topics": [
            "0x8c5261668696ce22758910d05bab8f186d6eb247ceac2af2e82c7dc17669b036"
          ],
          "data": "0x000000000000000000000000000000000000000000000000000000000000002000000000000000000000000000000000000000000000000000000000000000f8000000000000000000000006000000000004066a0000000000000000000000009f3b8679c73c2fef8b59b4f3444d4e156fb70aa50000000000000000000000009f3b8679c73c2fef8b59b4f3444d4e156fb70aa50000000000000000000000000000000000000000000000000000000000000000000000000000000000000000000000001c7d4b196cb0c7b01d743fbc6116a902379c7238000000000000000000000000b01db4a1af9ba5001676fc60f05d1833746f2460000000000000000000000000000000000000000000000000000000000000006400000000000000000000000081d786b35f3ea2f39aa17cb18d9772e4ecd972060000000000000000",
          "blockHash": "0xf97d3ab2c3afea326c5fcfe06575663cfbc236f29ad0aa850b59fc50bc2ae65c",
          "blockNumber": "0x6c2926",
          "blockTimestamp": "0x67387f20",
          "transactionHash": "0x3d99cfab488b2e78aca936ae8a87dc6fd01fe902898e081576dc2e4c73e60471",
          "transactionIndex": "0x28",
          "logIndex": "0x45",
          "removed": false
        },
        {
          "address": "0x9f3b8679c73c2fef8b59b4f3444d4e156fb70aa5",
          "topics": [
            "0x2fa9ca894982930190727e75500a97d8dc500233a5065e0f3126c48fbe0343c0",
            "0x000000000000000000000000000000000000000000000000000000000004066a",
            "0x0000000000000000000000001c7d4b196cb0c7b01d743fbc6116a902379c7238",
            "0x00000000000000000000000081d786b35f3ea2f39aa17cb18d9772e4ecd97206"
          ],
          "data": "0x0000000000000000000000000000000000000000000000000000000000000064000000000000000000000000b01db4a1af9ba5001676fc60f05d1833746f246000000000000000000000000000000000000000000000000000000000000000060000000000000000000000009f3b8679c73c2fef8b59b4f3444d4e156fb70aa50000000000000000000000000000000000000000000000000000000000000000",
          "blockHash": "0xf97d3ab2c3afea326c5fcfe06575663cfbc236f29ad0aa850b59fc50bc2ae65c",
          "blockNumber": "0x6c2926",
          "blockTimestamp": "0x67387f20",
          "transactionHash": "0x3d99cfab488b2e78aca936ae8a87dc6fd01fe902898e081576dc2e4c73e60471",
          "transactionIndex": "0x28",
          "logIndex": "0x46",
          "removed": false
        }
      ],
      "logsBloom": "0x00000000000000000000000000000000000008000000001000000000000200000000000000000200000000000000000000000010000004000000000000000000100000000000000200000008000000800000000000000000000200020000000000000000022000400000000000000800080000000040000000100010100000000000000000101004000000000000000000000000000000000000000000200000000000000000000000000000000000000000008000000000000000000004000000000002000000000400000000000002000000000000000000000040000020000000000400000020000010000000000000080000000000000000000000000000",
      "type": "0x2",
      "transactionHash": "0x3d99cfab488b2e78aca936ae8a87dc6fd01fe902898e081576dc2e4c73e60471",
      "transactionIndex": "0x28",
      "blockHash": "0xf97d3ab2c3afea326c5fcfe06575663cfbc236f29ad0aa850b59fc50bc2ae65c",
      "blockNumber": "0x6c2926",
      "gasUsed": "0x1a6ec",
      "effectiveGasPrice": "0x88474d56",
      "from": "0x81d786b35f3ea2f39aa17cb18d9772e4ecd97206",
      "to": "0x9f3b8679c73c2fef8b59b4f3444d4e156fb70aa5",
      "contractAddress": null
    }
  ],
  "libraries": [],
  "pending": [],
  "returns": {},
  "timestamp": 1731755808,
  "chain": 11155111,
  "commit": "ca954c4"
}