{
  "transactions": [
    {
      "hash": "0x1e8bb91890726a075edbb4b3052bdcf5bc51033d411467c20b76a78044f67671",
      "transactionType": "CALL",
      "contractName": null,
      "contractAddress": "0x1c7d4b196cb0c7b01d743fbc6116a902379c7238",
      "function": "approve(address,uint256)",
      "arguments": [
        "0x000000000022D473030F116dDEE9F6B43aC78BA3",
        "115792089237316195423570985008687907853269984665640564039457584007913129639935"
      ],
      "transaction": {
        "from": "0x81d786b35f3ea2f39aa17cb18d9772e4ecd97206",
        "to": "0x1c7d4b196cb0c7b01d743fbc6116a902379c7238",
        "gas": "0xdca8",
        "value": "0x0",
        "input": "0x095ea7b3000000000000000000000000000000000022d473030f116ddee9f6b43ac78ba3ffffffffffffffffffffffffffffffffffffffffffffffffffffffffffffffff",
        "nonce": "0xc1",
        "chainId": "0xaa36a7"
      },
      "additionalContracts": [],
      "isFixedGasLimit": false
    },
    {
      "hash": "0x1883361fa33996c41ce16998077da21ee343d56599cf3536adc6a14f40e33608",
      "transactionType": "CALL",
      "contractName": null,
      "contractAddress": "0x000000000022d473030f116ddee9f6b43ac78ba3",
      "function": "approve(address,address,uint160,uint48)",
      "arguments": [
        "0x1c7D4B196Cb0C7B01d743Fbc6116a902379C7238",
        "0x1B1C77B606d13b09C84d1c7394B96b147bC03147",
        "1461501637330902918203684832716283019655932542975",
        "281474976710655"
      ],
      "transaction": {
        "from": "0x81d786b35f3ea2f39aa17cb18d9772e4ecd97206",
        "to": "0x000000000022d473030f116ddee9f6b43ac78ba3",
        "gas": "0x96a0",
        "value": "0x0",
        "input": "0x87517c450000000000000000000000001c7d4b196cb0c7b01d743fbc6116a902379c72380000000000000000000000001b1c77b606d13b09c84d1c7394b96b147bc03147000000000000000000000000ffffffffffffffffffffffffffffffffffffffff0000000000000000000000000000000000000000000000000000ffffffffffff",
        "nonce": "0xc2",
        "chainId": "0xaa36a7"
      },
      "additionalContracts": [],
      "isFixedGasLimit": false
    },
    {
      "hash": "0x5bcfddff06aa756925536dff4c4416020364bf3189dcfc1b6a24e0d04e1e6645",
      "transactionType": "CALL",
      "contractName": null,
      "contractAddress": "0x34182d56d905a195524a8f1813180c134687ca34",
      "function": "approve(address,uint256)",
      "arguments": [
        "0x000000000022D473030F116dDEE9F6B43aC78BA3",
        "115792089237316195423570985008687907853269984665640564039457584007913129639935"
      ],
      "transaction": {
        "from": "0x81d786b35f3ea2f39aa17cb18d9772e4ecd97206",
        "to": "0x34182d56d905a195524a8f1813180c134687ca34",
        "gas": "0xb494",
        "value": "0x0",
        "input": "0x095ea7b3000000000000000000000000000000000022d473030f116ddee9f6b43ac78ba3ffffffffffffffffffffffffffffffffffffffffffffffffffffffffffffffff",
        "nonce": "0xc3",
        "chainId": "0xaa36a7"
      },
      "additionalContracts": [],
      "isFixedGasLimit": false
    },
    {
      "hash": "0xeeaf5ca7b06b451cde70b727045d660022b55bab415c8e1309eacbaf7e755268",
      "transactionType": "CALL",
      "contractName": null,
      "contractAddress": "0x000000000022d473030f116ddee9f6b43ac78ba3",
      "function": "approve(address,address,uint160,uint48)",
      "arguments": [
        "0x34182d56d905a195524a8F1813180C134687ca34",
        "0x1B1C77B606d13b09C84d1c7394B96b147bC03147",
        "1461501637330902918203684832716283019655932542975",
        "281474976710655"
      ],
      "transaction": {
        "from": "0x81d786b35f3ea2f39aa17cb18d9772e4ecd97206",
        "to": "0x000000000022d473030f116ddee9f6b43ac78ba3",
        "gas": "0x96a0",
        "value": "0x0",
        "input": "0x87517c4500000000000000000000000034182d56d905a195524a8f1813180c134687ca340000000000000000000000001b1c77b606d13b09c84d1c7394b96b147bc03147000000000000000000000000ffffffffffffffffffffffffffffffffffffffff0000000000000000000000000000000000000000000000000000ffffffffffff",
        "nonce": "0xc4",
        "chainId": "0xaa36a7"
      },
      "additionalContracts": [],
      "isFixedGasLimit": false
    },
    {
      "hash": "0xbc8dbcfe034a68a3566ccaaed43bb7c30f631e8c91f045df122c1b5e1fa6c6b0",
      "transactionType": "CALL",
      "contractName": "PositionManager",
      "contractAddress": "0x1b1c77b606d13b09c84d1c7394b96b147bc03147",
      "function": "multicall(bytes[])",
      "arguments": [
        "[0xf70204050000000000000000000000001c7d4b196cb0c7b01d743fbc6116a902379c723800000000000000000000000034182d56d905a195524a8f1813180c134687ca340000000000000000000000000000000000000000000000000000000000000bb8000000000000000000000000000000000000000000000000000000000000003c0000000000000000000000006b150538de7f5f9a56d43bea4a30e61dbc764040000000000000000000000000000000000000000100000000000000000000000000000000000000000000000000000000000000000000000000000000000000e00000000000000000000000000000000000000000000000000000000000000000, 0xdd46508f00000000000000000000000000000000000000000000000000000000000000400000000000000000000000000000000000000000000000000000000067389d740000000000000000000000000000000000000000000000000000000000000300000000000000000000000000000000000000000000000000000000000000004000000000000000000000000000000000000000000000000000000000000000800000000000000000000000000000000000000000000000000000000000000002021100000000000000000000000000000000000000000000000000000000000000000000000000000000000000000000000000000000000000000000000000020000000000000000000000000000000000000000000000000000000000000040000000000000000000000000000000000000000000000000000000000000020000000000000000000000000000000000000000000000000000000000000001a00000000000000000000000001c7d4b196cb0c7b01d743fbc6116a902379c723800000000000000000000000034182d56d905a195524a8f1813180c134687ca340000000000000000000000000000000000000000000000000000000000000bb8000000000000000000000000000000000000000000000000000000000000003c0000000000000000000000006b150538de7f5f9a56d43bea4a30e61dbc764040fffffffffffffffffffffffffffffffffffffffffffffffffffffffffffffda800000000000000000000000000000000000000000000000000000000000002580000000000000000000000000000000000000000000000000000000000000065000000000000000000000000000000000000000000000000000000000000000400000000000000000000000000000000000000000000000000000000000003e90000000000000000000000009f7cf1d1f558e57ef88a59ac3d47214ef25b6a060000000000000000000000000000000000000000000000000000000000000180000000000000000000000000000000000000000000000000000000000000000000000000000000000000000000000000000000000000000000000000000000400000000000000000000000001c7d4b196cb0c7b01d743fbc6116a902379c723800000000000000000000000034182d56d905a195524a8f1813180c134687ca34]"
      ],
      "transaction": {
        "from": "0x81d786b35f3ea2f39aa17cb18d9772e4ecd97206",
        "to": "0x1b1c77b606d13b09c84d1c7394b96b147bc03147",
        "gas": "0x9fed6",
        "value": "0x0",
        "input": "0xac9650d800000000000000000000000000000000000000000000000000000000000000200000000000000000000000000000000000000000000000000000000000000002000000000000000000000000000000000000000000000000000000000000004000000000000000000000000000000000000000000000000000000000000001800000000000000000000000000000000000000000000000000000000000000104f70204050000000000000000000000001c7d4b196cb0c7b01d743fbc6116a902379c723800000000000000000000000034182d56d905a195524a8f1813180c134687ca340000000000000000000000000000000000000000000000000000000000000bb8000000000000000000000000000000000000000000000000000000000000003c0000000000000000000000006b150538de7f5f9a56d43bea4a30e61dbc764040000000000000000000000000000000000000000100000000000000000000000000000000000000000000000000000000000000000000000000000000000000e00000000000000000000000000000000000000000000000000000000000000000000000000000000000000000000000000000000000000000000000000000000000000000000000000000000000000000000000000000000000000364dd46508f00000000000000000000000000000000000000000000000000000000000000400000000000000000000000000000000000000000000000000000000067389d740000000000000000000000000000000000000000000000000000000000000300000000000000000000000000000000000000000000000000000000000000004000000000000000000000000000000000000000000000000000000000000000800000000000000000000000000000000000000000000000000000000000000002021100000000000000000000000000000000000000000000000000000000000000000000000000000000000000000000000000000000000000000000000000020000000000000000000000000000000000000000000000000000000000000040000000000000000000000000000000000000000000000000000000000000020000000000000000000000000000000000000000000000000000000000000001a00000000000000000000000001c7d4b196cb0c7b01d743fbc6116a902379c723800000000000000000000000034182d56d905a195524a8f1813180c134687ca340000000000000000000000000000000000000000000000000000000000000bb8000000000000000000000000000000000000000000000000000000000000003c0000000000000000000000006b150538de7f5f9a56d43bea4a30e61dbc764040fffffffffffffffffffffffffffffffffffffffffffffffffffffffffffffda800000000000000000000000000000000000000000000000000000000000002580000000000000000000000000000000000000000000000000000000000000065000000000000000000000000000000000000000000000000000000000000000400000000000000000000000000000000000000000000000000000000000003e90000000000000000000000009f7cf1d1f558e57ef88a59ac3d47214ef25b6a060000000000000000000000000000000000000000000000000000000000000180000000000000000000000000000000000000000000000000000000000000000000000000000000000000000000000000000000000000000000000000000000400000000000000000000000001c7d4b196cb0c7b01d743fbc6116a902379c723800000000000000000000000034182d56d905a195524a8f1813180c134687ca3400000000000000000000000000000000000000000000000000000000",
        "nonce": "0xc5",
        "chainId": "0xaa36a7"
      },
      "additionalContracts": [],
      "isFixedGasLimit": false
    }
  ],
  "receipts": [
    {
      "status": "0x1",
      "cumulativeGasUsed": "0x111dda0",
      "logs": [
        {
          "address": "0x1c7d4b196cb0c7b01d743fbc6116a902379c7238",
          "topics": [
            "0x8c5be1e5ebec7d5bd14f71427d1e84f3dd0314c0f7b2291e5b200ac8c7c3b925",
            "0x00000000000000000000000081d786b35f3ea2f39aa17cb18d9772e4ecd97206",
            "0x000000000000000000000000000000000022d473030f116ddee9f6b43ac78ba3"
          ],
          "data": "0xffffffffffffffffffffffffffffffffffffffffffffffffffffffffffffffff",
          "blockHash": "0x70d75f61809174dea24b9d6eda68702e50f88debc817175a5ad3f363788140f9",
          "blockNumber": "0x6c2b89",
          "blockTimestamp": "0x67389d5c",
          "transactionHash": "0x1e8bb91890726a075edbb4b3052bdcf5bc51033d411467c20b76a78044f67671",
          "transactionIndex": "0x4d",
          "logIndex": "0x1c7",
          "removed": false
        }
      ],
      "logsBloom": "0x00000000000000000000000000000000000000000000000000000000000200000000000000000000000000000000000000000000800000000000000000200000000000000000000200004000000000800000000000000800000000000000000000000000000000000000000000000000000000000000000000000000000000000000000000100000000000000000000000000000000000000000000000000000020000000000000000000000000000000000000000000000000000000000000000000000000000000000000000000002000000000000000000000000000000000010000000000000000010000000000000000000000000000000000000000000",
      "type": "0x2",
      "transactionHash": "0x1e8bb91890726a075edbb4b3052bdcf5bc51033d411467c20b76a78044f67671",
      "transactionIndex": "0x4d",
      "blockHash": "0x70d75f61809174dea24b9d6eda68702e50f88debc817175a5ad3f363788140f9",
      "blockNumber": "0x6c2b89",
      "gasUsed": "0x96e1",
      "effectiveGasPrice": "0x4231d4d1",
      "from": "0x81d786b35f3ea2f39aa17cb18d9772e4ecd97206",
      "to": "0x1c7d4b196cb0c7b01d743fbc6116a902379c7238",
      "contractAddress": null
    },
    {
      "status": "0x1",
      "cumulativeGasUsed": "0x1124aae",
      "logs": [
        {
          "address": "0x000000000022d473030f116ddee9f6b43ac78ba3",
          "topics": [
            "0xda9fa7c1b00402c17d0161b249b1ab8bbec047c5a52207b9c112deffd817036b",
            "0x00000000000000000000000081d786b35f3ea2f39aa17cb18d9772e4ecd97206",
            "0x0000000000000000000000001c7d4b196cb0c7b01d743fbc6116a902379c7238",
            "0x0000000000000000000000001b1c77b606d13b09c84d1c7394b96b147bc03147"
          ],
          "data": "0x000000000000000000000000ffffffffffffffffffffffffffffffffffffffff0000000000000000000000000000000000000000000000000000ffffffffffff",
          "blockHash": "0x70d75f61809174dea24b9d6eda68702e50f88debc817175a5ad3f363788140f9",
          "blockNumber": "0x6c2b89",
          "blockTimestamp": "0x67389d5c",
          "transactionHash": "0x1883361fa33996c41ce16998077da21ee343d56599cf3536adc6a14f40e33608",
          "transactionIndex": "0x4e",
          "logIndex": "0x1c8",
          "removed": false
        }
      ],
      "logsBloom": "0x00010000000000000000000000000000000000000000000000000000000000000000000000000040000000000000000000000000000004000000000000080000100000000000000200000000000000800000000000000000000000000000000000000000000000000000000000000000000000000000000000000000000000000020000000000000000000000000000000000000000000000000000000000000000000000000000000000000000000000000008000000000000000080020000000000000000000000000000000000002000000000000000040000000000000000000000000000000000000000000000000800000000000000000000000000400",
      "type": "0x2",
      "transactionHash": "0x1883361fa33996c41ce16998077da21ee343d56599cf3536adc6a14f40e33608",
      "transactionIndex": "0x4e",
      "blockHash": "0x70d75f61809174dea24b9d6eda68702e50f88debc817175a5ad3f363788140f9",
      "blockNumber": "0x6c2b89",
      "gasUsed": "0x6d0e",
      "effectiveGasPrice": "0x4231d4d1",
      "from": "0x81d786b35f3ea2f39aa17cb18d9772e4ecd97206",
      "to": "0x000000000022d473030f116ddee9f6b43ac78ba3",
      "contractAddress": null
    },
    {
      "status": "0x1",
      "cumulativeGasUsed": "0x112c627",
      "logs": [
        {
          "address": "0x34182d56d905a195524a8f1813180c134687ca34",
          "topics": [
            "0x8c5be1e5ebec7d5bd14f71427d1e84f3dd0314c0f7b2291e5b200ac8c7c3b925",
            "0x00000000000000000000000081d786b35f3ea2f39aa17cb18d9772e4ecd97206",
            "0x000000000000000000000000000000000022d473030f116ddee9f6b43ac78ba3"
          ],
          "data": "0xffffffffffffffffffffffffffffffffffffffffffffffffffffffffffffffff",
          "blockHash": "0x70d75f61809174dea24b9d6eda68702e50f88debc817175a5ad3f363788140f9",
          "blockNumber": "0x6c2b89",
          "blockTimestamp": "0x67389d5c",
          "transactionHash": "0x5bcfddff06aa756925536dff4c4416020364bf3189dcfc1b6a24e0d04e1e6645",
          "transactionIndex": "0x4f",
          "logIndex": "0x1c9",
          "removed": false
        }
      ],
      "logsBloom": "0x00000000000000000000000000000000000000000000000000000000000000000000000000000000000000000000000000000000800000000000000000200000000000000000000200004000000000800000000000000800000000000000000000000000000000000000000008000000000000000000000000000000000000000000000000000000000000000000000000000000000000000000000000000000020000000000000000000000000000000000000200000000000000000000000000000000000000000000000000000002000000000000000000000000000080000010000000000000000000000000000000000000000000000000000000000000",
      "type": "0x2",
      "transactionHash": "0x5bcfddff06aa756925536dff4c4416020364bf3189dcfc1b6a24e0d04e1e6645",
      "transactionIndex": "0x4f",
      "blockHash": "0x70d75f61809174dea24b9d6eda68702e50f88debc817175a5ad3f363788140f9",
      "blockNumber": "0x6c2b89",
      "gasUsed": "0x7b79",
      "effectiveGasPrice": "0x4231d4d1",
      "from": "0x81d786b35f3ea2f39aa17cb18d9772e4ecd97206",
      "to": "0x34182d56d905a195524a8f1813180c134687ca34",
      "contractAddress": null
    },
    {
      "status": "0x1",
      "cumulativeGasUsed": "0x1133335",
      "logs": [
        {
          "address": "0x000000000022d473030f116ddee9f6b43ac78ba3",
          "topics": [
            "0xda9fa7c1b00402c17d0161b249b1ab8bbec047c5a52207b9c112deffd817036b",
            "0x00000000000000000000000081d786b35f3ea2f39aa17cb18d9772e4ecd97206",
            "0x00000000000000000000000034182d56d905a195524a8f1813180c134687ca34",
            "0x0000000000000000000000001b1c77b606d13b09c84d1c7394b96b147bc03147"
          ],
          "data": "0x000000000000000000000000ffffffffffffffffffffffffffffffffffffffff0000000000000000000000000000000000000000000000000000ffffffffffff",
          "blockHash": "0x70d75f61809174dea24b9d6eda68702e50f88debc817175a5ad3f363788140f9",
          "blockNumber": "0x6c2b89",
          "blockTimestamp": "0x67389d5c",
          "transactionHash": "0xeeaf5ca7b06b451cde70b727045d660022b55bab415c8e1309eacbaf7e755268",
          "transactionIndex": "0x50",
          "logIndex": "0x1ca",
          "removed": false
        }
      ],
      "logsBloom": "0x00010000000000000000000000000000000000000000000020000000000000000000800000000040000000000000000000000000000000000000000000080000000000000000000200000000000000800000000000000000000000000000000000000000000000000000000000000000000000000000000000000000000000000020000000000000000000000000000000000000000000000000000000000000000040000000000000000000000000000000000000000000000000080020000000000000000000000000000000000002000000000000000040000000000000000000000000000000000000000000000000800000000000000000000000000400",
      "type": "0x2",
      "transactionHash": "0xeeaf5ca7b06b451cde70b727045d660022b55bab415c8e1309eacbaf7e755268",
      "transactionIndex": "0x50",
      "blockHash": "0x70d75f61809174dea24b9d6eda68702e50f88debc817175a5ad3f363788140f9",
      "blockNumber": "0x6c2b89",
      "gasUsed": "0x6d0e",
      "effectiveGasPrice": "0x4231d4d1",
      "from": "0x81d786b35f3ea2f39aa17cb18d9772e4ecd97206",
      "to": "0x000000000022d473030f116ddee9f6b43ac78ba3",
      "contractAddress": null
    },
    {
      "status": "0x1",
      "cumulativeGasUsed": "0x11a08d7",
      "logs": [
        {
          "address": "0x8c4bcbe6b9ef47855f97e675296fa3f6fafa5f1a",
          "topics": [
            "0xdd466e674ea557f56295e2d0218a125ea4b4f0f6f3307b95f85e6110838d6438",
            "0x9c1ba64a3b4e861c6908e239033f76bc9a4078886fddbf3fd74e2030fd50f105",
            "0x0000000000000000000000001c7d4b196cb0c7b01d743fbc6116a902379c7238",
            "0x00000000000000000000000034182d56d905a195524a8f1813180c134687ca34"
          ],
          "data": "0x0000000000000000000000000000000000000000000000000000000000000bb8000000000000000000000000000000000000000000000000000000000000003c0000000000000000000000006b150538de7f5f9a56d43bea4a30e61dbc76404000000000000000000000000000000000000000010000000000000000000000000000000000000000000000000000000000000000000000000000000000000000",
          "blockHash": "0x70d75f61809174dea24b9d6eda68702e50f88debc817175a5ad3f363788140f9",
          "blockNumber": "0x6c2b89",
          "blockTimestamp": "0x67389d5c",
          "transactionHash": "0xbc8dbcfe034a68a3566ccaaed43bb7c30f631e8c91f045df122c1b5e1fa6c6b0",
          "transactionIndex": "0x51",
          "logIndex": "0x1cb",
          "removed": false
        },
        {
          "address": "0x1b1c77b606d13b09c84d1c7394b96b147bc03147",
          "topics": [
            "0xddf252ad1be2c89b69c2b068fc378daa952ba7f163c4a11628f55a4df523b3ef",
            "0x0000000000000000000000000000000000000000000000000000000000000000",
            "0x0000000000000000000000009f7cf1d1f558e57ef88a59ac3d47214ef25b6a06",
            "0x0000000000000000000000000000000000000000000000000000000000000049"
          ],
          "data": "0x",
          "blockHash": "0x70d75f61809174dea24b9d6eda68702e50f88debc817175a5ad3f363788140f9",
          "blockNumber": "0x6c2b89",
          "blockTimestamp": "0x67389d5c",
          "transactionHash": "0xbc8dbcfe034a68a3566ccaaed43bb7c30f631e8c91f045df122c1b5e1fa6c6b0",
          "transactionIndex": "0x51",
          "logIndex": "0x1cc",
          "removed": false
        },
        {
          "address": "0x8c4bcbe6b9ef47855f97e675296fa3f6fafa5f1a",
          "topics": [
            "0xf208f4912782fd25c7f114ca3723a2d5dd6f3bcc3ac8db5af63baa85f711d5ec",
            "0x9c1ba64a3b4e861c6908e239033f76bc9a4078886fddbf3fd74e2030fd50f105",
            "0x0000000000000000000000001b1c77b606d13b09c84d1c7394b96b147bc03147"
          ],
          "data": "0xfffffffffffffffffffffffffffffffffffffffffffffffffffffffffffffda8000000000000000000000000000000000000000000000000000000000000025800000000000000000000000000000000000000000000000000000000000000650000000000000000000000000000000000000000000000000000000000000049",
          "blockHash": "0x70d75f61809174dea24b9d6eda68702e50f88debc817175a5ad3f363788140f9",
          "blockNumber": "0x6c2b89",
          "blockTimestamp": "0x67389d5c",
          "transactionHash": "0xbc8dbcfe034a68a3566ccaaed43bb7c30f631e8c91f045df122c1b5e1fa6c6b0",
          "transactionIndex": "0x51",
          "logIndex": "0x1cd",
          "removed": false
        },
        {
          "address": "0x1c7d4b196cb0c7b01d743fbc6116a902379c7238",
          "topics": [
            "0xddf252ad1be2c89b69c2b068fc378daa952ba7f163c4a11628f55a4df523b3ef",
            "0x00000000000000000000000081d786b35f3ea2f39aa17cb18d9772e4ecd97206",
            "0x0000000000000000000000008c4bcbe6b9ef47855f97e675296fa3f6fafa5f1a"
          ],
          "data": "0x0000000000000000000000000000000000000000000000000000000000000003",
          "blockHash": "0x70d75f61809174dea24b9d6eda68702e50f88debc817175a5ad3f363788140f9",
          "blockNumber": "0x6c2b89",
          "blockTimestamp": "0x67389d5c",
          "transactionHash": "0xbc8dbcfe034a68a3566ccaaed43bb7c30f631e8c91f045df122c1b5e1fa6c6b0",
          "transactionIndex": "0x51",
          "logIndex": "0x1ce",
          "removed": false
        },
        {
          "address": "0x34182d56d905a195524a8f1813180c134687ca34",
          "topics": [
            "0xddf252ad1be2c89b69c2b068fc378daa952ba7f163c4a11628f55a4df523b3ef",
            "0x00000000000000000000000081d786b35f3ea2f39aa17cb18d9772e4ecd97206",
            "0x0000000000000000000000008c4bcbe6b9ef47855f97e675296fa3f6fafa5f1a"
          ],
          "data": "0x0000000000000000000000000000000000000000000000000000000000000003",
          "blockHash": "0x70d75f61809174dea24b9d6eda68702e50f88debc817175a5ad3f363788140f9",
          "blockNumber": "0x6c2b89",
          "blockTimestamp": "0x67389d5c",
          "transactionHash": "0xbc8dbcfe034a68a3566ccaaed43bb7c30f631e8c91f045df122c1b5e1fa6c6b0",
          "transactionIndex": "0x51",
          "logIndex": "0x1cf",
          "removed": false
        }
      ],
      "logsBloom": "0x000000100000000000000000000000000000000000000000200000000002000800008000000000400000000020000000000000000000040000000000000000001000400000000002000000080000008000000000000000000008000000000000000002000200001000000000090008000000000000000000000000100000000000000000011000081000008000000000000000010000000000000000002000000020440040000000000000000000000000000082000000000000000000200000000000020000000000000000008000020040201000000000000000000000a0000000000000000000000010000000000004840000000000000000000000000000",
      "type": "0x2",
      "transactionHash": "0xbc8dbcfe034a68a3566ccaaed43bb7c30f631e8c91f045df122c1b5e1fa6c6b0",
      "transactionIndex": "0x51",
      "blockHash": "0x70d75f61809174dea24b9d6eda68702e50f88debc817175a5ad3f363788140f9",
      "blockNumber": "0x6c2b89",
      "gasUsed": "0x6d5a2",
      "effectiveGasPrice": "0x4231d4d1",
      "from": "0x81d786b35f3ea2f39aa17cb18d9772e4ecd97206",
      "to": "0x1b1c77b606d13b09c84d1c7394b96b147bc03147",
      "contractAddress": null
    }
  ],
  "libraries": [],
  "pending": [],
  "returns": {},
  "timestamp": 1731763549,
  "chain": 11155111,
  "commit": "ca954c4"
}