{
  "transactions": [
    {
      "hash": "0x9b4cc309c42d61d97b0dfe27b398eb083b5eb89e8cbd888687e5972562e36c94",
      "transactionType": "CALL",
      "contractName": null,
      "contractAddress": "0x1c7d4b196cb0c7b01d743fbc6116a902379c7238",
      "function": "approve(address,uint256)",
      "arguments": [
        "0x000000000022D473030F116dDEE9F6B43aC78BA3",
        "115792089237316195423570985008687907853269984665640564039457584007913129639935"
      ],
      "transaction": {
        "from": "0x81d786b35f3ea2f39aa17cb18d9772e4ecd97206",
        "to": "0x1c7d4b196cb0c7b01d743fbc6116a902379c7238",
        "gas": "0xdca8",
        "value": "0x0",
        "input": "0x095ea7b3000000000000000000000000000000000022d473030f116ddee9f6b43ac78ba3ffffffffffffffffffffffffffffffffffffffffffffffffffffffffffffffff",
        "nonce": "0x9c",
        "chainId": "0xaa36a7"
      },
      "additionalContracts": [],
      "isFixedGasLimit": false
    },
    {
      "hash": "0x63bb46fb07944a34047c449fb920363b1d5440781f2ee5a1322867f5b3277fe5",
      "transactionType": "CALL",
      "contractName": null,
      "contractAddress": "0x000000000022d473030f116ddee9f6b43ac78ba3",
      "function": "approve(address,address,uint160,uint48)",
      "arguments": [
        "0x1c7D4B196Cb0C7B01d743Fbc6116a902379C7238",
        "0x1B1C77B606d13b09C84d1c7394B96b147bC03147",
        "1461501637330902918203684832716283019655932542975",
        "281474976710655"
      ],
      "transaction": {
        "from": "0x81d786b35f3ea2f39aa17cb18d9772e4ecd97206",
        "to": "0x000000000022d473030f116ddee9f6b43ac78ba3",
        "gas": "0x96a0",
        "value": "0x0",
        "input": "0x87517c450000000000000000000000001c7d4b196cb0c7b01d743fbc6116a902379c72380000000000000000000000001b1c77b606d13b09c84d1c7394b96b147bc03147000000000000000000000000ffffffffffffffffffffffffffffffffffffffff0000000000000000000000000000000000000000000000000000ffffffffffff",
        "nonce": "0x9d",
        "chainId": "0xaa36a7"
      },
      "additionalContracts": [],
      "isFixedGasLimit": false
    },
    {
      "hash": "0x1d93a8092ee07f4d6850de10fa102c5c7e3f58c1d2b2a91e89266c2129808784",
      "transactionType": "CALL",
      "contractName": null,
      "contractAddress": "0x34182d56d905a195524a8f1813180c134687ca34",
      "function": "approve(address,uint256)",
      "arguments": [
        "0x000000000022D473030F116dDEE9F6B43aC78BA3",
        "115792089237316195423570985008687907853269984665640564039457584007913129639935"
      ],
      "transaction": {
        "from": "0x81d786b35f3ea2f39aa17cb18d9772e4ecd97206",
        "to": "0x34182d56d905a195524a8f1813180c134687ca34",
        "gas": "0xb494",
        "value": "0x0",
        "input": "0x095ea7b3000000000000000000000000000000000022d473030f116ddee9f6b43ac78ba3ffffffffffffffffffffffffffffffffffffffffffffffffffffffffffffffff",
        "nonce": "0x9e",
        "chainId": "0xaa36a7"
      },
      "additionalContracts": [],
      "isFixedGasLimit": false
    },
    {
      "hash": "0xcb8566e346669e72c5275ad39b9634ddc67492a79c0e29b3aced72b50e7513b3",
      "transactionType": "CALL",
      "contractName": null,
      "contractAddress": "0x000000000022d473030f116ddee9f6b43ac78ba3",
      "function": "approve(address,address,uint160,uint48)",
      "arguments": [
        "0x34182d56d905a195524a8F1813180C134687ca34",
        "0x1B1C77B606d13b09C84d1c7394B96b147bC03147",
        "1461501637330902918203684832716283019655932542975",
        "281474976710655"
      ],
      "transaction": {
        "from": "0x81d786b35f3ea2f39aa17cb18d9772e4ecd97206",
        "to": "0x000000000022d473030f116ddee9f6b43ac78ba3",
        "gas": "0x96a0",
        "value": "0x0",
        "input": "0x87517c4500000000000000000000000034182d56d905a195524a8f1813180c134687ca340000000000000000000000001b1c77b606d13b09c84d1c7394b96b147bc03147000000000000000000000000ffffffffffffffffffffffffffffffffffffffff0000000000000000000000000000000000000000000000000000ffffffffffff",
        "nonce": "0x9f",
        "chainId": "0xaa36a7"
      },
      "additionalContracts": [],
      "isFixedGasLimit": false
    },
    {
      "hash": "0x40fe63ddd18976ca1a8df21fa719513e0441044f444b1b09f173997e6ad2e269",
      "transactionType": "CALL",
      "contractName": "PositionManager",
      "contractAddress": "0x1b1c77b606d13b09c84d1c7394b96b147bc03147",
      "function": "multicall(bytes[])",
      "arguments": [
        "[0xf70204050000000000000000000000001c7d4b196cb0c7b01d743fbc6116a902379c723800000000000000000000000034182d56d905a195524a8f1813180c134687ca340000000000000000000000000000000000000000000000000000000000000bb8000000000000000000000000000000000000000000000000000000000000003c0000000000000000000000003e118264b2f8b3a2bbc2b48b9742d8e7b7d9c040000000000000000000000000000000000000000100000000000000000000000000000000000000000000000000000000000000000000000000000000000000e00000000000000000000000000000000000000000000000000000000000000000, 0xdd46508f00000000000000000000000000000000000000000000000000000000000000400000000000000000000000000000000000000000000000000000000067387d700000000000000000000000000000000000000000000000000000000000000300000000000000000000000000000000000000000000000000000000000000004000000000000000000000000000000000000000000000000000000000000000800000000000000000000000000000000000000000000000000000000000000002021100000000000000000000000000000000000000000000000000000000000000000000000000000000000000000000000000000000000000000000000000020000000000000000000000000000000000000000000000000000000000000040000000000000000000000000000000000000000000000000000000000000020000000000000000000000000000000000000000000000000000000000000001a00000000000000000000000001c7d4b196cb0c7b01d743fbc6116a902379c723800000000000000000000000034182d56d905a195524a8f1813180c134687ca340000000000000000000000000000000000000000000000000000000000000bb8000000000000000000000000000000000000000000000000000000000000003c0000000000000000000000003e118264b2f8b3a2bbc2b48b9742d8e7b7d9c040fffffffffffffffffffffffffffffffffffffffffffffffffffffffffffffda800000000000000000000000000000000000000000000000000000000000002580000000000000000000000000000000000000000000000000000000000000065000000000000000000000000000000000000000000000000000000000000000400000000000000000000000000000000000000000000000000000000000003e90000000000000000000000009f7cf1d1f558e57ef88a59ac3d47214ef25b6a060000000000000000000000000000000000000000000000000000000000000180000000000000000000000000000000000000000000000000000000000000000000000000000000000000000000000000000000000000000000000000000000400000000000000000000000001c7d4b196cb0c7b01d743fbc6116a902379c723800000000000000000000000034182d56d905a195524a8f1813180c134687ca34]"
      ],
      "transaction": {
        "from": "0x81d786b35f3ea2f39aa17cb18d9772e4ecd97206",
        "to": "0x1b1c77b606d13b09c84d1c7394b96b147bc03147",
        "gas": "0x9fed6",
        "value": "0x0",
        "input": "0xac9650d800000000000000000000000000000000000000000000000000000000000000200000000000000000000000000000000000000000000000000000000000000002000000000000000000000000000000000000000000000000000000000000004000000000000000000000000000000000000000000000000000000000000001800000000000000000000000000000000000000000000000000000000000000104f70204050000000000000000000000001c7d4b196cb0c7b01d743fbc6116a902379c723800000000000000000000000034182d56d905a195524a8f1813180c134687ca340000000000000000000000000000000000000000000000000000000000000bb8000000000000000000000000000000000000000000000000000000000000003c0000000000000000000000003e118264b2f8b3a2bbc2b48b9742d8e7b7d9c040000000000000000000000000000000000000000100000000000000000000000000000000000000000000000000000000000000000000000000000000000000e00000000000000000000000000000000000000000000000000000000000000000000000000000000000000000000000000000000000000000000000000000000000000000000000000000000000000000000000000000000000000364dd46508f00000000000000000000000000000000000000000000000000000000000000400000000000000000000000000000000000000000000000000000000067387d700000000000000000000000000000000000000000000000000000000000000300000000000000000000000000000000000000000000000000000000000000004000000000000000000000000000000000000000000000000000000000000000800000000000000000000000000000000000000000000000000000000000000002021100000000000000000000000000000000000000000000000000000000000000000000000000000000000000000000000000000000000000000000000000020000000000000000000000000000000000000000000000000000000000000040000000000000000000000000000000000000000000000000000000000000020000000000000000000000000000000000000000000000000000000000000001a00000000000000000000000001c7d4b196cb0c7b01d743fbc6116a902379c723800000000000000000000000034182d56d905a195524a8f1813180c134687ca340000000000000000000000000000000000000000000000000000000000000bb8000000000000000000000000000000000000000000000000000000000000003c0000000000000000000000003e118264b2f8b3a2bbc2b48b9742d8e7b7d9c040fffffffffffffffffffffffffffffffffffffffffffffffffffffffffffffda800000000000000000000000000000000000000000000000000000000000002580000000000000000000000000000000000000000000000000000000000000065000000000000000000000000000000000000000000000000000000000000000400000000000000000000000000000000000000000000000000000000000003e90000000000000000000000009f7cf1d1f558e57ef88a59ac3d47214ef25b6a060000000000000000000000000000000000000000000000000000000000000180000000000000000000000000000000000000000000000000000000000000000000000000000000000000000000000000000000000000000000000000000000400000000000000000000000001c7d4b196cb0c7b01d743fbc6116a902379c723800000000000000000000000034182d56d905a195524a8f1813180c134687ca3400000000000000000000000000000000000000000000000000000000",
        "nonce": "0xa0",
        "chainId": "0xaa36a7"
      },
      "additionalContracts": [],
      "isFixedGasLimit": false
    }
  ],
  "receipts": [
    {
      "status": "0x1",
      "cumulativeGasUsed": "0x126b54b",
      "logs": [
        {
          "address": "0x1c7d4b196cb0c7b01d743fbc6116a902379c7238",
          "topics": [
            "0x8c5be1e5ebec7d5bd14f71427d1e84f3dd0314c0f7b2291e5b200ac8c7c3b925",
            "0x00000000000000000000000081d786b35f3ea2f39aa17cb18d9772e4ecd97206",
            "0x000000000000000000000000000000000022d473030f116ddee9f6b43ac78ba3"
          ],
          "data": "0xffffffffffffffffffffffffffffffffffffffffffffffffffffffffffffffff",
          "blockHash": "0x55c6b8be833b3d3a1fdc7d8bf13c9f128fa4f873563e3d6f764d0681368906dc",
          "blockNumber": "0x6c2906",
          "blockTimestamp": "0x67387d70",
          "transactionHash": "0x9b4cc309c42d61d97b0dfe27b398eb083b5eb89e8cbd888687e5972562e36c94",
          "transactionIndex": "0x47",
          "logIndex": "0xaa",
          "removed": false
        }
      ],
      "logsBloom": "0x00000000000000000000000000000000000000000000000000000000000200000000000000000000000000000000000000000000800000000000000000200000000000000000000200004000000000800000000000000800000000000000000000000000000000000000000000000000000000000000000000000000000000000000000000100000000000000000000000000000000000000000000000000000020000000000000000000000000000000000000000000000000000000000000000000000000000000000000000000002000000000000000000000000000000000010000000000000000010000000000000000000000000000000000000000000",
      "type": "0x2",
      "transactionHash": "0x9b4cc309c42d61d97b0dfe27b398eb083b5eb89e8cbd888687e5972562e36c94",
      "transactionIndex": "0x47",
      "blockHash": "0x55c6b8be833b3d3a1fdc7d8bf13c9f128fa4f873563e3d6f764d0681368906dc",
      "blockNumber": "0x6c2906",
      "gasUsed": "0x96e1",
      "effectiveGasPrice": "0x1b2ffea4",
      "from": "0x81d786b35f3ea2f39aa17cb18d9772e4ecd97206",
      "to": "0x1c7d4b196cb0c7b01d743fbc6116a902379c7238",
      "contractAddress": null
    },
    {
      "status": "0x1",
      "cumulativeGasUsed": "0x1282b33",
      "logs": [
        {
          "address": "0x000000000022d473030f116ddee9f6b43ac78ba3",
          "topics": [
            "0xda9fa7c1b00402c17d0161b249b1ab8bbec047c5a52207b9c112deffd817036b",
            "0x00000000000000000000000081d786b35f3ea2f39aa17cb18d9772e4ecd97206",
            "0x0000000000000000000000001c7d4b196cb0c7b01d743fbc6116a902379c7238",
            "0x0000000000000000000000001b1c77b606d13b09c84d1c7394b96b147bc03147"
          ],
          "data": "0x000000000000000000000000ffffffffffffffffffffffffffffffffffffffff0000000000000000000000000000000000000000000000000000ffffffffffff",
          "blockHash": "0x55c6b8be833b3d3a1fdc7d8bf13c9f128fa4f873563e3d6f764d0681368906dc",
          "blockNumber": "0x6c2906",
          "blockTimestamp": "0x67387d70",
          "transactionHash": "0x63bb46fb07944a34047c449fb920363b1d5440781f2ee5a1322867f5b3277fe5",
          "transactionIndex": "0x4a",
          "logIndex": "0xac",
          "removed": false
        }
      ],
      "logsBloom": "0x00010000000000000000000000000000000000000000000000000000000000000000000000000040000000000000000000000000000004000000000000080000100000000000000200000000000000800000000000000000000000000000000000000000000000000000000000000000000000000000000000000000000000000020000000000000000000000000000000000000000000000000000000000000000000000000000000000000000000000000008000000000000000080020000000000000000000000000000000000002000000000000000040000000000000000000000000000000000000000000000000800000000000000000000000000400",
      "type": "0x2",
      "transactionHash": "0x63bb46fb07944a34047c449fb920363b1d5440781f2ee5a1322867f5b3277fe5",
      "transactionIndex": "0x4a",
      "blockHash": "0x55c6b8be833b3d3a1fdc7d8bf13c9f128fa4f873563e3d6f764d0681368906dc",
      "blockNumber": "0x6c2906",
      "gasUsed": "0x6d0e",
      "effectiveGasPrice": "0x1b2ffea4",
      "from": "0x81d786b35f3ea2f39aa17cb18d9772e4ecd97206",
      "to": "0x000000000022d473030f116ddee9f6b43ac78ba3",
      "contractAddress": null
    },
    {
      "status": "0x1",
      "cumulativeGasUsed": "0x128a6ac",
      "logs": [
        {
          "address": "0x34182d56d905a195524a8f1813180c134687ca34",
          "topics": [
            "0x8c5be1e5ebec7d5bd14f71427d1e84f3dd0314c0f7b2291e5b200ac8c7c3b925",
            "0x00000000000000000000000081d786b35f3ea2f39aa17cb18d9772e4ecd97206",
            "0x000000000000000000000000000000000022d473030f116ddee9f6b43ac78ba3"
          ],
          "data": "0xffffffffffffffffffffffffffffffffffffffffffffffffffffffffffffffff",
          "blockHash": "0x55c6b8be833b3d3a1fdc7d8bf13c9f128fa4f873563e3d6f764d0681368906dc",
          "blockNumber": "0x6c2906",
          "blockTimestamp": "0x67387d70",
          "transactionHash": "0x1d93a8092ee07f4d6850de10fa102c5c7e3f58c1d2b2a91e89266c2129808784",
          "transactionIndex": "0x4b",
          "logIndex": "0xad",
          "removed": false
        }
      ],
      "logsBloom": "0x00000000000000000000000000000000000000000000000000000000000000000000000000000000000000000000000000000000800000000000000000200000000000000000000200004000000000800000000000000800000000000000000000000000000000000000000008000000000000000000000000000000000000000000000000000000000000000000000000000000000000000000000000000000020000000000000000000000000000000000000200000000000000000000000000000000000000000000000000000002000000000000000000000000000080000010000000000000000000000000000000000000000000000000000000000000",
      "type": "0x2",
      "transactionHash": "0x1d93a8092ee07f4d6850de10fa102c5c7e3f58c1d2b2a91e89266c2129808784",
      "transactionIndex": "0x4b",
      "blockHash": "0x55c6b8be833b3d3a1fdc7d8bf13c9f128fa4f873563e3d6f764d0681368906dc",
      "blockNumber": "0x6c2906",
      "gasUsed": "0x7b79",
      "effectiveGasPrice": "0x1b2ffea4",
      "from": "0x81d786b35f3ea2f39aa17cb18d9772e4ecd97206",
      "to": "0x34182d56d905a195524a8f1813180c134687ca34",
      "contractAddress": null
    },
    {
      "status": "0x1",
      "cumulativeGasUsed": "0x12913ba",
      "logs": [
        {
          "address": "0x000000000022d473030f116ddee9f6b43ac78ba3",
          "topics": [
            "0xda9fa7c1b00402c17d0161b249b1ab8bbec047c5a52207b9c112deffd817036b",
            "0x00000000000000000000000081d786b35f3ea2f39aa17cb18d9772e4ecd97206",
            "0x00000000000000000000000034182d56d905a195524a8f1813180c134687ca34",
            "0x0000000000000000000000001b1c77b606d13b09c84d1c7394b96b147bc03147"
          ],
          "data": "0x000000000000000000000000ffffffffffffffffffffffffffffffffffffffff0000000000000000000000000000000000000000000000000000ffffffffffff",
          "blockHash": "0x55c6b8be833b3d3a1fdc7d8bf13c9f128fa4f873563e3d6f764d0681368906dc",
          "blockNumber": "0x6c2906",
          "blockTimestamp": "0x67387d70",
          "transactionHash": "0xcb8566e346669e72c5275ad39b9634ddc67492a79c0e29b3aced72b50e7513b3",
          "transactionIndex": "0x4c",
          "logIndex": "0xae",
          "removed": false
        }
      ],
      "logsBloom": "0x00010000000000000000000000000000000000000000000020000000000000000000800000000040000000000000000000000000000000000000000000080000000000000000000200000000000000800000000000000000000000000000000000000000000000000000000000000000000000000000000000000000000000000020000000000000000000000000000000000000000000000000000000000000000040000000000000000000000000000000000000000000000000080020000000000000000000000000000000000002000000000000000040000000000000000000000000000000000000000000000000800000000000000000000000000400",
      "type": "0x2",
      "transactionHash": "0xcb8566e346669e72c5275ad39b9634ddc67492a79c0e29b3aced72b50e7513b3",
      "transactionIndex": "0x4c",
      "blockHash": "0x55c6b8be833b3d3a1fdc7d8bf13c9f128fa4f873563e3d6f764d0681368906dc",
      "blockNumber": "0x6c2906",
      "gasUsed": "0x6d0e",
      "effectiveGasPrice": "0x1b2ffea4",
      "from": "0x81d786b35f3ea2f39aa17cb18d9772e4ecd97206",
      "to": "0x000000000022d473030f116ddee9f6b43ac78ba3",
      "contractAddress": null
    },
    {
      "status": "0x1",
      "cumulativeGasUsed": "0x12fe95c",
      "logs": [
        {
          "address": "0x8c4bcbe6b9ef47855f97e675296fa3f6fafa5f1a",
          "topics": [
            "0xdd466e674ea557f56295e2d0218a125ea4b4f0f6f3307b95f85e6110838d6438",
            "0x5875c25bbd8f5bd059123048af392e25c645d5574290dc6eaab6e038aeb4d679",
            "0x0000000000000000000000001c7d4b196cb0c7b01d743fbc6116a902379c7238",
            "0x00000000000000000000000034182d56d905a195524a8f1813180c134687ca34"
          ],
          "data": "0x0000000000000000000000000000000000000000000000000000000000000bb8000000000000000000000000000000000000000000000000000000000000003c0000000000000000000000003e118264b2f8b3a2bbc2b48b9742d8e7b7d9c04000000000000000000000000000000000000000010000000000000000000000000000000000000000000000000000000000000000000000000000000000000000",
          "blockHash": "0x55c6b8be833b3d3a1fdc7d8bf13c9f128fa4f873563e3d6f764d0681368906dc",
          "blockNumber": "0x6c2906",
          "blockTimestamp": "0x67387d70",
          "transactionHash": "0x40fe63ddd18976ca1a8df21fa719513e0441044f444b1b09f173997e6ad2e269",
          "transactionIndex": "0x4d",
          "logIndex": "0xaf",
          "removed": false
        },
        {
          "address": "0x1b1c77b606d13b09c84d1c7394b96b147bc03147",
          "topics": [
            "0xddf252ad1be2c89b69c2b068fc378daa952ba7f163c4a11628f55a4df523b3ef",
            "0x0000000000000000000000000000000000000000000000000000000000000000",
            "0x0000000000000000000000009f7cf1d1f558e57ef88a59ac3d47214ef25b6a06",
            "0x0000000000000000000000000000000000000000000000000000000000000043"
          ],
          "data": "0x",
          "blockHash": "0x55c6b8be833b3d3a1fdc7d8bf13c9f128fa4f873563e3d6f764d0681368906dc",
          "blockNumber": "0x6c2906",
          "blockTimestamp": "0x67387d70",
          "transactionHash": "0x40fe63ddd18976ca1a8df21fa719513e0441044f444b1b09f173997e6ad2e269",
          "transactionIndex": "0x4d",
          "logIndex": "0xb0",
          "removed": false
        },
        {
          "address": "0x8c4bcbe6b9ef47855f97e675296fa3f6fafa5f1a",
          "topics": [
            "0xf208f4912782fd25c7f114ca3723a2d5dd6f3bcc3ac8db5af63baa85f711d5ec",
            "0x5875c25bbd8f5bd059123048af392e25c645d5574290dc6eaab6e038aeb4d679",
            "0x0000000000000000000000001b1c77b606d13b09c84d1c7394b96b147bc03147"
          ],
          "data": "0xfffffffffffffffffffffffffffffffffffffffffffffffffffffffffffffda8000000000000000000000000000000000000000000000000000000000000025800000000000000000000000000000000000000000000000000000000000000650000000000000000000000000000000000000000000000000000000000000043",
          "blockHash": "0x55c6b8be833b3d3a1fdc7d8bf13c9f128fa4f873563e3d6f764d0681368906dc",
          "blockNumber": "0x6c2906",
          "blockTimestamp": "0x67387d70",
          "transactionHash": "0x40fe63ddd18976ca1a8df21fa719513e0441044f444b1b09f173997e6ad2e269",
          "transactionIndex": "0x4d",
          "logIndex": "0xb1",
          "removed": false
        },
        {
          "address": "0x1c7d4b196cb0c7b01d743fbc6116a902379c7238",
          "topics": [
            "0xddf252ad1be2c89b69c2b068fc378daa952ba7f163c4a11628f55a4df523b3ef",
            "0x00000000000000000000000081d786b35f3ea2f39aa17cb18d9772e4ecd97206",
            "0x0000000000000000000000008c4bcbe6b9ef47855f97e675296fa3f6fafa5f1a"
          ],
          "data": "0x0000000000000000000000000000000000000000000000000000000000000003",
          "blockHash": "0x55c6b8be833b3d3a1fdc7d8bf13c9f128fa4f873563e3d6f764d0681368906dc",
          "blockNumber": "0x6c2906",
          "blockTimestamp": "0x67387d70",
          "transactionHash": "0x40fe63ddd18976ca1a8df21fa719513e0441044f444b1b09f173997e6ad2e269",
          "transactionIndex": "0x4d",
          "logIndex": "0xb2",
          "removed": false
        },
        {
          "address": "0x34182d56d905a195524a8f1813180c134687ca34",
          "topics": [
            "0xddf252ad1be2c89b69c2b068fc378daa952ba7f163c4a11628f55a4df523b3ef",
            "0x00000000000000000000000081d786b35f3ea2f39aa17cb18d9772e4ecd97206",
            "0x0000000000000000000000008c4bcbe6b9ef47855f97e675296fa3f6fafa5f1a"
          ],
          "data": "0x0000000000000000000000000000000000000000000000000000000000000003",
          "blockHash": "0x55c6b8be833b3d3a1fdc7d8bf13c9f128fa4f873563e3d6f764d0681368906dc",
          "blockNumber": "0x6c2906",
          "blockTimestamp": "0x67387d70",
          "transactionHash": "0x40fe63ddd18976ca1a8df21fa719513e0441044f444b1b09f173997e6ad2e269",
          "transactionIndex": "0x4d",
          "logIndex": "0xb3",
          "removed": false
        }
      ],
      "logsBloom": "0x000000000000000000000000000000000000000000000000200000000002000800008000000040400000000020010000000000000400040000000000000000001000400000000002000000080200008000000000000000000008000000000000000000000200001000000000090008000080000000000000000000100000000000000000011000081000008000000000000000010000000000000000002000000000440040000000000000000000000000000082000000000000000000202000000000020000000000000000008000020040200000000000000000000000a0000000000000000000000010000000000004800000000000000000000000000000",
      "type": "0x2",
      "transactionHash": "0x40fe63ddd18976ca1a8df21fa719513e0441044f444b1b09f173997e6ad2e269",
      "transactionIndex": "0x4d",
      "blockHash": "0x55c6b8be833b3d3a1fdc7d8bf13c9f128fa4f873563e3d6f764d0681368906dc",
      "blockNumber": "0x6c2906",
      "gasUsed": "0x6d5a2",
      "effectiveGasPrice": "0x1b2ffea4",
      "from": "0x81d786b35f3ea2f39aa17cb18d9772e4ecd97206",
      "to": "0x1b1c77b606d13b09c84d1c7394b96b147bc03147",
      "contractAddress": null
    }
  ],
  "libraries": [],
  "pending": [],
  "returns": {},
  "timestamp": 1731755378,
  "chain": 11155111,
  "commit": "ca954c4"
}