{
  "transactions": [
    {
      "hash": "0x9a227fcda4bfa0cf3832d67f36637abc78ebd6e2658164dc3f37308a04e25a6e",
      "transactionType": "CALL",
      "contractName": null,
      "contractAddress": "0x1c7d4b196cb0c7b01d743fbc6116a902379c7238",
      "function": "approve(address,uint256)",
      "arguments": [
        "0x000000000022D473030F116dDEE9F6B43aC78BA3",
        "115792089237316195423570985008687907853269984665640564039457584007913129639935"
      ],
      "transaction": {
        "from": "0x81d786b35f3ea2f39aa17cb18d9772e4ecd97206",
        "to": "0x1c7d4b196cb0c7b01d743fbc6116a902379c7238",
        "gas": "0xdca8",
        "value": "0x0",
        "input": "0x095ea7b3000000000000000000000000000000000022d473030f116ddee9f6b43ac78ba3ffffffffffffffffffffffffffffffffffffffffffffffffffffffffffffffff",
        "nonce": "0xc7",
        "chainId": "0xaa36a7"
      },
      "additionalContracts": [],
      "isFixedGasLimit": false
    },
    {
      "hash": "0x5dc675b0c8b95827633380d886fbd1a5ca64b112def5f051d56ee5ef3e363feb",
      "transactionType": "CALL",
      "contractName": null,
      "contractAddress": "0x000000000022d473030f116ddee9f6b43ac78ba3",
      "function": "approve(address,address,uint160,uint48)",
      "arguments": [
        "0x1c7D4B196Cb0C7B01d743Fbc6116a902379C7238",
        "0x1B1C77B606d13b09C84d1c7394B96b147bC03147",
        "1461501637330902918203684832716283019655932542975",
        "281474976710655"
      ],
      "transaction": {
        "from": "0x81d786b35f3ea2f39aa17cb18d9772e4ecd97206",
        "to": "0x000000000022d473030f116ddee9f6b43ac78ba3",
        "gas": "0x96a0",
        "value": "0x0",
        "input": "0x87517c450000000000000000000000001c7d4b196cb0c7b01d743fbc6116a902379c72380000000000000000000000001b1c77b606d13b09c84d1c7394b96b147bc03147000000000000000000000000ffffffffffffffffffffffffffffffffffffffff0000000000000000000000000000000000000000000000000000ffffffffffff",
        "nonce": "0xc8",
        "chainId": "0xaa36a7"
      },
      "additionalContracts": [],
      "isFixedGasLimit": false
    },
    {
      "hash": "0x9fc3888e9c3c5c15222645f5d686d6b126ebc87f1ed0cf2f99dbc45b38f34ab6",
      "transactionType": "CALL",
      "contractName": null,
      "contractAddress": "0x34182d56d905a195524a8f1813180c134687ca34",
      "function": "approve(address,uint256)",
      "arguments": [
        "0x000000000022D473030F116dDEE9F6B43aC78BA3",
        "115792089237316195423570985008687907853269984665640564039457584007913129639935"
      ],
      "transaction": {
        "from": "0x81d786b35f3ea2f39aa17cb18d9772e4ecd97206",
        "to": "0x34182d56d905a195524a8f1813180c134687ca34",
        "gas": "0xb494",
        "value": "0x0",
        "input": "0x095ea7b3000000000000000000000000000000000022d473030f116ddee9f6b43ac78ba3ffffffffffffffffffffffffffffffffffffffffffffffffffffffffffffffff",
        "nonce": "0xc9",
        "chainId": "0xaa36a7"
      },
      "additionalContracts": [],
      "isFixedGasLimit": false
    },
    {
      "hash": "0xfc8e72ebb772f1c3e792bf251ec261e9842b5052648eda7f1c8469efeee078b7",
      "transactionType": "CALL",
      "contractName": null,
      "contractAddress": "0x000000000022d473030f116ddee9f6b43ac78ba3",
      "function": "approve(address,address,uint160,uint48)",
      "arguments": [
        "0x34182d56d905a195524a8F1813180C134687ca34",
        "0x1B1C77B606d13b09C84d1c7394B96b147bC03147",
        "1461501637330902918203684832716283019655932542975",
        "281474976710655"
      ],
      "transaction": {
        "from": "0x81d786b35f3ea2f39aa17cb18d9772e4ecd97206",
        "to": "0x000000000022d473030f116ddee9f6b43ac78ba3",
        "gas": "0x96a0",
        "value": "0x0",
        "input": "0x87517c4500000000000000000000000034182d56d905a195524a8f1813180c134687ca340000000000000000000000001b1c77b606d13b09c84d1c7394b96b147bc03147000000000000000000000000ffffffffffffffffffffffffffffffffffffffff0000000000000000000000000000000000000000000000000000ffffffffffff",
        "nonce": "0xca",
        "chainId": "0xaa36a7"
      },
      "additionalContracts": [],
      "isFixedGasLimit": false
    },
    {
      "hash": "0x9743c6650c6b27ecd5ce45914d76c4ded045e255b4b6bef1f4585e4ba928bfe1",
      "transactionType": "CALL",
      "contractName": "PositionManager",
      "contractAddress": "0x1b1c77b606d13b09c84d1c7394b96b147bc03147",
      "function": "multicall(bytes[])",
      "arguments": [
        "[0xf70204050000000000000000000000001c7d4b196cb0c7b01d743fbc6116a902379c723800000000000000000000000034182d56d905a195524a8f1813180c134687ca340000000000000000000000000000000000000000000000000000000000000bb8000000000000000000000000000000000000000000000000000000000000003c000000000000000000000000c67d7bed547a861d45fd6639b3fbd1e4e850c040000000000000000000000000000000000000000100000000000000000000000000000000000000000000000000000000000000000000000000000000000000e00000000000000000000000000000000000000000000000000000000000000000, 0xdd46508f0000000000000000000000000000000000000000000000000000000000000040000000000000000000000000000000000000000000000000000000006738a3140000000000000000000000000000000000000000000000000000000000000300000000000000000000000000000000000000000000000000000000000000004000000000000000000000000000000000000000000000000000000000000000800000000000000000000000000000000000000000000000000000000000000002021100000000000000000000000000000000000000000000000000000000000000000000000000000000000000000000000000000000000000000000000000020000000000000000000000000000000000000000000000000000000000000040000000000000000000000000000000000000000000000000000000000000020000000000000000000000000000000000000000000000000000000000000001a00000000000000000000000001c7d4b196cb0c7b01d743fbc6116a902379c723800000000000000000000000034182d56d905a195524a8f1813180c134687ca340000000000000000000000000000000000000000000000000000000000000bb8000000000000000000000000000000000000000000000000000000000000003c000000000000000000000000c67d7bed547a861d45fd6639b3fbd1e4e850c040fffffffffffffffffffffffffffffffffffffffffffffffffffffffffffffda800000000000000000000000000000000000000000000000000000000000002580000000000000000000000000000000000000000000000000000000000000065000000000000000000000000000000000000000000000000000000000000000400000000000000000000000000000000000000000000000000000000000003e90000000000000000000000009f7cf1d1f558e57ef88a59ac3d47214ef25b6a060000000000000000000000000000000000000000000000000000000000000180000000000000000000000000000000000000000000000000000000000000000000000000000000000000000000000000000000000000000000000000000000400000000000000000000000001c7d4b196cb0c7b01d743fbc6116a902379c723800000000000000000000000034182d56d905a195524a8f1813180c134687ca34]"
      ],
      "transaction": {
        "from": "0x81d786b35f3ea2f39aa17cb18d9772e4ecd97206",
        "to": "0x1b1c77b606d13b09c84d1c7394b96b147bc03147",
        "gas": "0x9fed6",
        "value": "0x0",
        "input": "0xac9650d800000000000000000000000000000000000000000000000000000000000000200000000000000000000000000000000000000000000000000000000000000002000000000000000000000000000000000000000000000000000000000000004000000000000000000000000000000000000000000000000000000000000001800000000000000000000000000000000000000000000000000000000000000104f70204050000000000000000000000001c7d4b196cb0c7b01d743fbc6116a902379c723800000000000000000000000034182d56d905a195524a8f1813180c134687ca340000000000000000000000000000000000000000000000000000000000000bb8000000000000000000000000000000000000000000000000000000000000003c000000000000000000000000c67d7bed547a861d45fd6639b3fbd1e4e850c040000000000000000000000000000000000000000100000000000000000000000000000000000000000000000000000000000000000000000000000000000000e00000000000000000000000000000000000000000000000000000000000000000000000000000000000000000000000000000000000000000000000000000000000000000000000000000000000000000000000000000000000000364dd46508f0000000000000000000000000000000000000000000000000000000000000040000000000000000000000000000000000000000000000000000000006738a3140000000000000000000000000000000000000000000000000000000000000300000000000000000000000000000000000000000000000000000000000000004000000000000000000000000000000000000000000000000000000000000000800000000000000000000000000000000000000000000000000000000000000002021100000000000000000000000000000000000000000000000000000000000000000000000000000000000000000000000000000000000000000000000000020000000000000000000000000000000000000000000000000000000000000040000000000000000000000000000000000000000000000000000000000000020000000000000000000000000000000000000000000000000000000000000001a00000000000000000000000001c7d4b196cb0c7b01d743fbc6116a902379c723800000000000000000000000034182d56d905a195524a8f1813180c134687ca340000000000000000000000000000000000000000000000000000000000000bb8000000000000000000000000000000000000000000000000000000000000003c000000000000000000000000c67d7bed547a861d45fd6639b3fbd1e4e850c040fffffffffffffffffffffffffffffffffffffffffffffffffffffffffffffda800000000000000000000000000000000000000000000000000000000000002580000000000000000000000000000000000000000000000000000000000000065000000000000000000000000000000000000000000000000000000000000000400000000000000000000000000000000000000000000000000000000000003e90000000000000000000000009f7cf1d1f558e57ef88a59ac3d47214ef25b6a060000000000000000000000000000000000000000000000000000000000000180000000000000000000000000000000000000000000000000000000000000000000000000000000000000000000000000000000000000000000000000000000400000000000000000000000001c7d4b196cb0c7b01d743fbc6116a902379c723800000000000000000000000034182d56d905a195524a8f1813180c134687ca3400000000000000000000000000000000000000000000000000000000",
        "nonce": "0xcb",
        "chainId": "0xaa36a7"
      },
      "additionalContracts": [],
      "isFixedGasLimit": false
    }
  ],
  "receipts": [
    {
      "status": "0x1",
      "cumulativeGasUsed": "0xd7b51e",
      "logs": [
        {
          "address": "0x1c7d4b196cb0c7b01d743fbc6116a902379c7238",
          "topics": [
            "0x8c5be1e5ebec7d5bd14f71427d1e84f3dd0314c0f7b2291e5b200ac8c7c3b925",
            "0x00000000000000000000000081d786b35f3ea2f39aa17cb18d9772e4ecd97206",
            "0x000000000000000000000000000000000022d473030f116ddee9f6b43ac78ba3"
          ],
          "data": "0xffffffffffffffffffffffffffffffffffffffffffffffffffffffffffffffff",
          "blockHash": "0x20ee95e41e20711385f6857e67460f8875ce898a91b1d107b338e51826834800",
          "blockNumber": "0x6c2bfa",
          "blockTimestamp": "0x6738a2fc",
          "transactionHash": "0x9a227fcda4bfa0cf3832d67f36637abc78ebd6e2658164dc3f37308a04e25a6e",
          "transactionIndex": "0x40",
          "logIndex": "0x53",
          "removed": false
        }
      ],
      "logsBloom": "0x00000000000000000000000000000000000000000000000000000000000200000000000000000000000000000000000000000000800000000000000000200000000000000000000200004000000000800000000000000800000000000000000000000000000000000000000000000000000000000000000000000000000000000000000000100000000000000000000000000000000000000000000000000000020000000000000000000000000000000000000000000000000000000000000000000000000000000000000000000002000000000000000000000000000000000010000000000000000010000000000000000000000000000000000000000000",
      "type": "0x2",
      "transactionHash": "0x9a227fcda4bfa0cf3832d67f36637abc78ebd6e2658164dc3f37308a04e25a6e",
      "transactionIndex": "0x40",
      "blockHash": "0x20ee95e41e20711385f6857e67460f8875ce898a91b1d107b338e51826834800",
      "blockNumber": "0x6c2bfa",
      "gasUsed": "0x96e1",
      "effectiveGasPrice": "0x38dbb2df",
      "from": "0x81d786b35f3ea2f39aa17cb18d9772e4ecd97206",
      "to": "0x1c7d4b196cb0c7b01d743fbc6116a902379c7238",
      "contractAddress": null
    },
    {
      "status": "0x1",
      "cumulativeGasUsed": "0xd8222c",
      "logs": [
        {
          "address": "0x000000000022d473030f116ddee9f6b43ac78ba3",
          "topics": [
            "0xda9fa7c1b00402c17d0161b249b1ab8bbec047c5a52207b9c112deffd817036b",
            "0x00000000000000000000000081d786b35f3ea2f39aa17cb18d9772e4ecd97206",
            "0x0000000000000000000000001c7d4b196cb0c7b01d743fbc6116a902379c7238",
            "0x0000000000000000000000001b1c77b606d13b09c84d1c7394b96b147bc03147"
          ],
          "data": "0x000000000000000000000000ffffffffffffffffffffffffffffffffffffffff0000000000000000000000000000000000000000000000000000ffffffffffff",
          "blockHash": "0x20ee95e41e20711385f6857e67460f8875ce898a91b1d107b338e51826834800",
          "blockNumber": "0x6c2bfa",
          "blockTimestamp": "0x6738a2fc",
          "transactionHash": "0x5dc675b0c8b95827633380d886fbd1a5ca64b112def5f051d56ee5ef3e363feb",
          "transactionIndex": "0x41",
          "logIndex": "0x54",
          "removed": false
        }
      ],
      "logsBloom": "0x00010000000000000000000000000000000000000000000000000000000000000000000000000040000000000000000000000000000004000000000000080000100000000000000200000000000000800000000000000000000000000000000000000000000000000000000000000000000000000000000000000000000000000020000000000000000000000000000000000000000000000000000000000000000000000000000000000000000000000000008000000000000000080020000000000000000000000000000000000002000000000000000040000000000000000000000000000000000000000000000000800000000000000000000000000400",
      "type": "0x2",
      "transactionHash": "0x5dc675b0c8b95827633380d886fbd1a5ca64b112def5f051d56ee5ef3e363feb",
      "transactionIndex": "0x41",
      "blockHash": "0x20ee95e41e20711385f6857e67460f8875ce898a91b1d107b338e51826834800",
      "blockNumber": "0x6c2bfa",
      "gasUsed": "0x6d0e",
      "effectiveGasPrice": "0x38dbb2df",
      "from": "0x81d786b35f3ea2f39aa17cb18d9772e4ecd97206",
      "to": "0x000000000022d473030f116ddee9f6b43ac78ba3",
      "contractAddress": null
    },
    {
      "status": "0x1",
      "cumulativeGasUsed": "0xd89da5",
      "logs": [
        {
          "address": "0x34182d56d905a195524a8f1813180c134687ca34",
          "topics": [
            "0x8c5be1e5ebec7d5bd14f71427d1e84f3dd0314c0f7b2291e5b200ac8c7c3b925",
            "0x00000000000000000000000081d786b35f3ea2f39aa17cb18d9772e4ecd97206",
            "0x000000000000000000000000000000000022d473030f116ddee9f6b43ac78ba3"
          ],
          "data": "0xffffffffffffffffffffffffffffffffffffffffffffffffffffffffffffffff",
          "blockHash": "0x20ee95e41e20711385f6857e67460f8875ce898a91b1d107b338e51826834800",
          "blockNumber": "0x6c2bfa",
          "blockTimestamp": "0x6738a2fc",
          "transactionHash": "0x9fc3888e9c3c5c15222645f5d686d6b126ebc87f1ed0cf2f99dbc45b38f34ab6",
          "transactionIndex": "0x42",
          "logIndex": "0x55",
          "removed": false
        }
      ],
      "logsBloom": "0x00000000000000000000000000000000000000000000000000000000000000000000000000000000000000000000000000000000800000000000000000200000000000000000000200004000000000800000000000000800000000000000000000000000000000000000000008000000000000000000000000000000000000000000000000000000000000000000000000000000000000000000000000000000020000000000000000000000000000000000000200000000000000000000000000000000000000000000000000000002000000000000000000000000000080000010000000000000000000000000000000000000000000000000000000000000",
      "type": "0x2",
      "transactionHash": "0x9fc3888e9c3c5c15222645f5d686d6b126ebc87f1ed0cf2f99dbc45b38f34ab6",
      "transactionIndex": "0x42",
      "blockHash": "0x20ee95e41e20711385f6857e67460f8875ce898a91b1d107b338e51826834800",
      "blockNumber": "0x6c2bfa",
      "gasUsed": "0x7b79",
      "effectiveGasPrice": "0x38dbb2df",
      "from": "0x81d786b35f3ea2f39aa17cb18d9772e4ecd97206",
      "to": "0x34182d56d905a195524a8f1813180c134687ca34",
      "contractAddress": null
    },
    {
      "status": "0x1",
      "cumulativeGasUsed": "0xd90ab3",
      "logs": [
        {
          "address": "0x000000000022d473030f116ddee9f6b43ac78ba3",
          "topics": [
            "0xda9fa7c1b00402c17d0161b249b1ab8bbec047c5a52207b9c112deffd817036b",
            "0x00000000000000000000000081d786b35f3ea2f39aa17cb18d9772e4ecd97206",
            "0x00000000000000000000000034182d56d905a195524a8f1813180c134687ca34",
            "0x0000000000000000000000001b1c77b606d13b09c84d1c7394b96b147bc03147"
          ],
          "data": "0x000000000000000000000000ffffffffffffffffffffffffffffffffffffffff0000000000000000000000000000000000000000000000000000ffffffffffff",
          "blockHash": "0x20ee95e41e20711385f6857e67460f8875ce898a91b1d107b338e51826834800",
          "blockNumber": "0x6c2bfa",
          "blockTimestamp": "0x6738a2fc",
          "transactionHash": "0xfc8e72ebb772f1c3e792bf251ec261e9842b5052648eda7f1c8469efeee078b7",
          "transactionIndex": "0x43",
          "logIndex": "0x56",
          "removed": false
        }
      ],
      "logsBloom": "0x00010000000000000000000000000000000000000000000020000000000000000000800000000040000000000000000000000000000000000000000000080000000000000000000200000000000000800000000000000000000000000000000000000000000000000000000000000000000000000000000000000000000000000020000000000000000000000000000000000000000000000000000000000000000040000000000000000000000000000000000000000000000000080020000000000000000000000000000000000002000000000000000040000000000000000000000000000000000000000000000000800000000000000000000000000400",
      "type": "0x2",
      "transactionHash": "0xfc8e72ebb772f1c3e792bf251ec261e9842b5052648eda7f1c8469efeee078b7",
      "transactionIndex": "0x43",
      "blockHash": "0x20ee95e41e20711385f6857e67460f8875ce898a91b1d107b338e51826834800",
      "blockNumber": "0x6c2bfa",
      "gasUsed": "0x6d0e",
      "effectiveGasPrice": "0x38dbb2df",
      "from": "0x81d786b35f3ea2f39aa17cb18d9772e4ecd97206",
      "to": "0x000000000022d473030f116ddee9f6b43ac78ba3",
      "contractAddress": null
    },
    {
      "status": "0x1",
      "cumulativeGasUsed": "0xdfe055",
      "logs": [
        {
          "address": "0x8c4bcbe6b9ef47855f97e675296fa3f6fafa5f1a",
          "topics": [
            "0xdd466e674ea557f56295e2d0218a125ea4b4f0f6f3307b95f85e6110838d6438",
            "0x8a34ac4c121adcbbd17825b89b434f00a99e4df70a6218294cb8f5d02d218e93",
            "0x0000000000000000000000001c7d4b196cb0c7b01d743fbc6116a902379c7238",
            "0x00000000000000000000000034182d56d905a195524a8f1813180c134687ca34"
          ],
          "data": "0x0000000000000000000000000000000000000000000000000000000000000bb8000000000000000000000000000000000000000000000000000000000000003c000000000000000000000000c67d7bed547a861d45fd6639b3fbd1e4e850c04000000000000000000000000000000000000000010000000000000000000000000000000000000000000000000000000000000000000000000000000000000000",
          "blockHash": "0x20ee95e41e20711385f6857e67460f8875ce898a91b1d107b338e51826834800",
          "blockNumber": "0x6c2bfa",
          "blockTimestamp": "0x6738a2fc",
          "transactionHash": "0x9743c6650c6b27ecd5ce45914d76c4ded045e255b4b6bef1f4585e4ba928bfe1",
          "transactionIndex": "0x44",
          "logIndex": "0x57",
          "removed": false
        },
        {
          "address": "0x1b1c77b606d13b09c84d1c7394b96b147bc03147",
          "topics": [
            "0xddf252ad1be2c89b69c2b068fc378daa952ba7f163c4a11628f55a4df523b3ef",
            "0x0000000000000000000000000000000000000000000000000000000000000000",
            "0x0000000000000000000000009f7cf1d1f558e57ef88a59ac3d47214ef25b6a06",
            "0x000000000000000000000000000000000000000000000000000000000000004a"
          ],
          "data": "0x",
          "blockHash": "0x20ee95e41e20711385f6857e67460f8875ce898a91b1d107b338e51826834800",
          "blockNumber": "0x6c2bfa",
          "blockTimestamp": "0x6738a2fc",
          "transactionHash": "0x9743c6650c6b27ecd5ce45914d76c4ded045e255b4b6bef1f4585e4ba928bfe1",
          "transactionIndex": "0x44",
          "logIndex": "0x58",
          "removed": false
        },
        {
          "address": "0x8c4bcbe6b9ef47855f97e675296fa3f6fafa5f1a",
          "topics": [
            "0xf208f4912782fd25c7f114ca3723a2d5dd6f3bcc3ac8db5af63baa85f711d5ec",
            "0x8a34ac4c121adcbbd17825b89b434f00a99e4df70a6218294cb8f5d02d218e93",
            "0x0000000000000000000000001b1c77b606d13b09c84d1c7394b96b147bc03147"
          ],
          "data": "0xfffffffffffffffffffffffffffffffffffffffffffffffffffffffffffffda800000000000000000000000000000000000000000000000000000000000002580000000000000000000000000000000000000000000000000000000000000065000000000000000000000000000000000000000000000000000000000000004a",
          "blockHash": "0x20ee95e41e20711385f6857e67460f8875ce898a91b1d107b338e51826834800",
          "blockNumber": "0x6c2bfa",
          "blockTimestamp": "0x6738a2fc",
          "transactionHash": "0x9743c6650c6b27ecd5ce45914d76c4ded045e255b4b6bef1f4585e4ba928bfe1",
          "transactionIndex": "0x44",
          "logIndex": "0x59",
          "removed": false
        },
        {
          "address": "0x1c7d4b196cb0c7b01d743fbc6116a902379c7238",
          "topics": [
            "0xddf252ad1be2c89b69c2b068fc378daa952ba7f163c4a11628f55a4df523b3ef",
            "0x00000000000000000000000081d786b35f3ea2f39aa17cb18d9772e4ecd97206",
            "0x0000000000000000000000008c4bcbe6b9ef47855f97e675296fa3f6fafa5f1a"
          ],
          "data": "0x0000000000000000000000000000000000000000000000000000000000000003",
          "blockHash": "0x20ee95e41e20711385f6857e67460f8875ce898a91b1d107b338e51826834800",
          "blockNumber": "0x6c2bfa",
          "blockTimestamp": "0x6738a2fc",
          "transactionHash": "0x9743c6650c6b27ecd5ce45914d76c4ded045e255b4b6bef1f4585e4ba928bfe1",
          "transactionIndex": "0x44",
          "logIndex": "0x5a",
          "removed": false
        },
        {
          "address": "0x34182d56d905a195524a8f1813180c134687ca34",
          "topics": [
            "0xddf252ad1be2c89b69c2b068fc378daa952ba7f163c4a11628f55a4df523b3ef",
            "0x00000000000000000000000081d786b35f3ea2f39aa17cb18d9772e4ecd97206",
            "0x0000000000000000000000008c4bcbe6b9ef47855f97e675296fa3f6fafa5f1a"
          ],
          "data": "0x0000000000000000000000000000000000000000000000000000000000000003",
          "blockHash": "0x20ee95e41e20711385f6857e67460f8875ce898a91b1d107b338e51826834800",
          "blockNumber": "0x6c2bfa",
          "blockTimestamp": "0x6738a2fc",
          "transactionHash": "0x9743c6650c6b27ecd5ce45914d76c4ded045e255b4b6bef1f4585e4ba928bfe1",
          "transactionIndex": "0x44",
          "logIndex": "0x5b",
          "removed": false
        }
      ],
      "logsBloom": "0x000000000000000000000000000000000000000000000000200000000002000800008000000000400000000020000000000000000000040000000000000000001000400000000002000000080000008000000000000000000058000000000000000000000200003000000000090008000000000000000000000000100000000000000000011000081000008000000000000000010000000000000000002000000000440040000000000000000000000000000082000000000000000004200000000000020000000000000000008000020040200000000000000000000000a0001000000000000000000010000000000004800000000000000000000000020000",
      "type": "0x2",
      "transactionHash": "0x9743c6650c6b27ecd5ce45914d76c4ded045e255b4b6bef1f4585e4ba928bfe1",
      "transactionIndex": "0x44",
      "blockHash": "0x20ee95e41e20711385f6857e67460f8875ce898a91b1d107b338e51826834800",
      "blockNumber": "0x6c2bfa",
      "gasUsed": "0x6d5a2",
      "effectiveGasPrice": "0x38dbb2df",
      "from": "0x81d786b35f3ea2f39aa17cb18d9772e4ecd97206",
      "to": "0x1b1c77b606d13b09c84d1c7394b96b147bc03147",
      "contractAddress": null
    }
  ],
  "libraries": [],
  "pending": [],
  "returns": {},
  "timestamp": 1731764991,
  "chain": 11155111,
  "commit": "ca954c4"
}