{
  "transactions": [
    {
      "hash": "0x89b9fc5380b06dfd712fc858d49d541221f94c784a0a4abd8ee011e5b18d0b4a",
      "transactionType": "CALL",
      "contractName": null,
      "contractAddress": "0x1c7d4b196cb0c7b01d743fbc6116a902379c7238",
      "function": "approve(address,uint256)",
      "arguments": [
        "0x000000000022D473030F116dDEE9F6B43aC78BA3",
        "115792089237316195423570985008687907853269984665640564039457584007913129639935"
      ],
      "transaction": {
        "from": "0x81d786b35f3ea2f39aa17cb18d9772e4ecd97206",
        "to": "0x1c7d4b196cb0c7b01d743fbc6116a902379c7238",
        "gas": "0x12ca9",
        "value": "0x0",
        "input": "0x095ea7b3000000000000000000000000000000000022d473030f116ddee9f6b43ac78ba3ffffffffffffffffffffffffffffffffffffffffffffffffffffffffffffffff",
        "nonce": "0x31",
        "chainId": "0xaa36a7"
      },
      "additionalContracts": [],
      "isFixedGasLimit": false
    },
    {
      "hash": "0xd145e8d91fb47c5cee4af28aefc1c1548c106c0c1bef88d2dffba91c00fa8cf0",
      "transactionType": "CALL",
      "contractName": null,
      "contractAddress": "0x000000000022d473030f116ddee9f6b43ac78ba3",
      "function": "approve(address,address,uint160,uint48)",
      "arguments": [
        "0x1c7D4B196Cb0C7B01d743Fbc6116a902379C7238",
        "0x1B1C77B606d13b09C84d1c7394B96b147bC03147",
        "1461501637330902918203684832716283019655932542975",
        "281474976710655"
      ],
      "transaction": {
        "from": "0x81d786b35f3ea2f39aa17cb18d9772e4ecd97206",
        "to": "0x000000000022d473030f116ddee9f6b43ac78ba3",
        "gas": "0x1112d",
        "value": "0x0",
        "input": "0x87517c450000000000000000000000001c7d4b196cb0c7b01d743fbc6116a902379c72380000000000000000000000001b1c77b606d13b09c84d1c7394b96b147bc03147000000000000000000000000ffffffffffffffffffffffffffffffffffffffff0000000000000000000000000000000000000000000000000000ffffffffffff",
        "nonce": "0x32",
        "chainId": "0xaa36a7"
      },
      "additionalContracts": [],
      "isFixedGasLimit": false
    },
    {
      "hash": "0x3cf0fb5e8652ee2edaa3c0502776ed27f1321e82eb2ed7af9459d855b241b44c",
      "transactionType": "CALL",
      "contractName": null,
      "contractAddress": "0x34182d56d905a195524a8f1813180c134687ca34",
      "function": "approve(address,uint256)",
      "arguments": [
        "0x000000000022D473030F116dDEE9F6B43aC78BA3",
        "115792089237316195423570985008687907853269984665640564039457584007913129639935"
      ],
      "transaction": {
        "from": "0x81d786b35f3ea2f39aa17cb18d9772e4ecd97206",
        "to": "0x34182d56d905a195524a8f1813180c134687ca34",
        "gas": "0x115ea",
        "value": "0x0",
        "input": "0x095ea7b3000000000000000000000000000000000022d473030f116ddee9f6b43ac78ba3ffffffffffffffffffffffffffffffffffffffffffffffffffffffffffffffff",
        "nonce": "0x33",
        "chainId": "0xaa36a7"
      },
      "additionalContracts": [],
      "isFixedGasLimit": false
    },
    {
      "hash": "0x1f38648d51e518d1b344847313d01909a57f8342d9c508fa93dd8934c386f78e",
      "transactionType": "CALL",
      "contractName": null,
      "contractAddress": "0x000000000022d473030f116ddee9f6b43ac78ba3",
      "function": "approve(address,address,uint160,uint48)",
      "arguments": [
        "0x34182d56d905a195524a8F1813180C134687ca34",
        "0x1B1C77B606d13b09C84d1c7394B96b147bC03147",
        "1461501637330902918203684832716283019655932542975",
        "281474976710655"
      ],
      "transaction": {
        "from": "0x81d786b35f3ea2f39aa17cb18d9772e4ecd97206",
        "to": "0x000000000022d473030f116ddee9f6b43ac78ba3",
        "gas": "0x1112d",
        "value": "0x0",
        "input": "0x87517c4500000000000000000000000034182d56d905a195524a8f1813180c134687ca340000000000000000000000001b1c77b606d13b09c84d1c7394b96b147bc03147000000000000000000000000ffffffffffffffffffffffffffffffffffffffff0000000000000000000000000000000000000000000000000000ffffffffffff",
        "nonce": "0x34",
        "chainId": "0xaa36a7"
      },
      "additionalContracts": [],
      "isFixedGasLimit": false
    },
    {
      "hash": "0xe78d4054b650af61b2939ddd95bfa016c2a294ee1a9b785da23125f5bf6d4823",
      "transactionType": "CALL",
      "contractName": "PositionManager",
      "contractAddress": "0x1b1c77b606d13b09c84d1c7394b96b147bc03147",
      "function": "multicall(bytes[])",
      "arguments": [
        "[0xf70204050000000000000000000000001c7d4b196cb0c7b01d743fbc6116a902379c723800000000000000000000000034182d56d905a195524a8f1813180c134687ca340000000000000000000000000000000000000000000000000000000000000bb8000000000000000000000000000000000000000000000000000000000000003c00000000000000000000000096bf4e2fc2154cf3f48f789a469dcd1dcff80040000000000000000000000000000000000000000100000000000000000000000000000000000000000000000000000000000000000000000000000000000000e00000000000000000000000000000000000000000000000000000000000000000, 0xdd46508f000000000000000000000000000000000000000000000000000000000000004000000000000000000000000000000000000000000000000000000000673822a40000000000000000000000000000000000000000000000000000000000000300000000000000000000000000000000000000000000000000000000000000004000000000000000000000000000000000000000000000000000000000000000800000000000000000000000000000000000000000000000000000000000000002021100000000000000000000000000000000000000000000000000000000000000000000000000000000000000000000000000000000000000000000000000020000000000000000000000000000000000000000000000000000000000000040000000000000000000000000000000000000000000000000000000000000020000000000000000000000000000000000000000000000000000000000000001a00000000000000000000000001c7d4b196cb0c7b01d743fbc6116a902379c723800000000000000000000000034182d56d905a195524a8f1813180c134687ca340000000000000000000000000000000000000000000000000000000000000bb8000000000000000000000000000000000000000000000000000000000000003c00000000000000000000000096bf4e2fc2154cf3f48f789a469dcd1dcff80040fffffffffffffffffffffffffffffffffffffffffffffffffffffffffffffda800000000000000000000000000000000000000000000000000000000000002580000000000000000000000000000000000000000000000000000000000000065000000000000000000000000000000000000000000000000000000000000000400000000000000000000000000000000000000000000000000000000000003e90000000000000000000000009f7cf1d1f558e57ef88a59ac3d47214ef25b6a060000000000000000000000000000000000000000000000000000000000000180000000000000000000000000000000000000000000000000000000000000000000000000000000000000000000000000000000000000000000000000000000400000000000000000000000001c7d4b196cb0c7b01d743fbc6116a902379c723800000000000000000000000034182d56d905a195524a8f1813180c134687ca34]"
      ],
      "transaction": {
        "from": "0x81d786b35f3ea2f39aa17cb18d9772e4ecd97206",
        "to": "0x1b1c77b606d13b09c84d1c7394b96b147bc03147",
        "gas": "0xac214",
        "value": "0x0",
        "input": "0xac9650d800000000000000000000000000000000000000000000000000000000000000200000000000000000000000000000000000000000000000000000000000000002000000000000000000000000000000000000000000000000000000000000004000000000000000000000000000000000000000000000000000000000000001800000000000000000000000000000000000000000000000000000000000000104f70204050000000000000000000000001c7d4b196cb0c7b01d743fbc6116a902379c723800000000000000000000000034182d56d905a195524a8f1813180c134687ca340000000000000000000000000000000000000000000000000000000000000bb8000000000000000000000000000000000000000000000000000000000000003c00000000000000000000000096bf4e2fc2154cf3f48f789a469dcd1dcff80040000000000000000000000000000000000000000100000000000000000000000000000000000000000000000000000000000000000000000000000000000000e00000000000000000000000000000000000000000000000000000000000000000000000000000000000000000000000000000000000000000000000000000000000000000000000000000000000000000000000000000000000000364dd46508f000000000000000000000000000000000000000000000000000000000000004000000000000000000000000000000000000000000000000000000000673822a40000000000000000000000000000000000000000000000000000000000000300000000000000000000000000000000000000000000000000000000000000004000000000000000000000000000000000000000000000000000000000000000800000000000000000000000000000000000000000000000000000000000000002021100000000000000000000000000000000000000000000000000000000000000000000000000000000000000000000000000000000000000000000000000020000000000000000000000000000000000000000000000000000000000000040000000000000000000000000000000000000000000000000000000000000020000000000000000000000000000000000000000000000000000000000000001a00000000000000000000000001c7d4b196cb0c7b01d743fbc6116a902379c723800000000000000000000000034182d56d905a195524a8f1813180c134687ca340000000000000000000000000000000000000000000000000000000000000bb8000000000000000000000000000000000000000000000000000000000000003c00000000000000000000000096bf4e2fc2154cf3f48f789a469dcd1dcff80040fffffffffffffffffffffffffffffffffffffffffffffffffffffffffffffda800000000000000000000000000000000000000000000000000000000000002580000000000000000000000000000000000000000000000000000000000000065000000000000000000000000000000000000000000000000000000000000000400000000000000000000000000000000000000000000000000000000000003e90000000000000000000000009f7cf1d1f558e57ef88a59ac3d47214ef25b6a060000000000000000000000000000000000000000000000000000000000000180000000000000000000000000000000000000000000000000000000000000000000000000000000000000000000000000000000000000000000000000000000400000000000000000000000001c7d4b196cb0c7b01d743fbc6116a902379c723800000000000000000000000034182d56d905a195524a8f1813180c134687ca3400000000000000000000000000000000000000000000000000000000",
        "nonce": "0x35",
        "chainId": "0xaa36a7"
      },
      "additionalContracts": [],
      "isFixedGasLimit": false
    }
  ],
  "receipts": [
    {
      "status": "0x1",
      "cumulativeGasUsed": "0xde310d",
      "logs": [
        {
          "address": "0x1c7d4b196cb0c7b01d743fbc6116a902379c7238",
          "topics": [
            "0x8c5be1e5ebec7d5bd14f71427d1e84f3dd0314c0f7b2291e5b200ac8c7c3b925",
            "0x00000000000000000000000081d786b35f3ea2f39aa17cb18d9772e4ecd97206",
            "0x000000000000000000000000000000000022d473030f116ddee9f6b43ac78ba3"
          ],
          "data": "0xffffffffffffffffffffffffffffffffffffffffffffffffffffffffffffffff",
          "blockHash": "0x49f4cec13c691b7f5c09e872c7af6d923a2c598eab9608814512c0c19e0867b3",
          "blockNumber": "0x6c21f0",
          "blockTimestamp": "0x67382280",
          "transactionHash": "0x89b9fc5380b06dfd712fc858d49d541221f94c784a0a4abd8ee011e5b18d0b4a",
          "transactionIndex": "0x21",
          "logIndex": "0x31",
          "removed": false
        }
      ],
      "logsBloom": "0x00000000000000000000000000000000000000000000000000000000000200000000000000000000000000000000000000000000800000000000000000200000000000000000000200004000000000800000000000000800000000000000000000000000000000000000000000000000000000000000000000000000000000000000000000100000000000000000000000000000000000000000000000000000020000000000000000000000000000000000000000000000000000000000000000000000000000000000000000000002000000000000000000000000000000000010000000000000000010000000000000000000000000000000000000000000",
      "type": "0x2",
      "transactionHash": "0x89b9fc5380b06dfd712fc858d49d541221f94c784a0a4abd8ee011e5b18d0b4a",
      "transactionIndex": "0x21",
      "blockHash": "0x49f4cec13c691b7f5c09e872c7af6d923a2c598eab9608814512c0c19e0867b3",
      "blockNumber": "0x6c21f0",
      "gasUsed": "0xd9ad",
      "effectiveGasPrice": "0x65723a8",
      "from": "0x81d786b35f3ea2f39aa17cb18d9772e4ecd97206",
      "to": "0x1c7d4b196cb0c7b01d743fbc6116a902379c7238",
      "contractAddress": null
    },
    {
      "status": "0x1",
      "cumulativeGasUsed": "0xdeebd7",
      "logs": [
        {
          "address": "0x000000000022d473030f116ddee9f6b43ac78ba3",
          "topics": [
            "0xda9fa7c1b00402c17d0161b249b1ab8bbec047c5a52207b9c112deffd817036b",
            "0x00000000000000000000000081d786b35f3ea2f39aa17cb18d9772e4ecd97206",
            "0x0000000000000000000000001c7d4b196cb0c7b01d743fbc6116a902379c7238",
            "0x0000000000000000000000001b1c77b606d13b09c84d1c7394b96b147bc03147"
          ],
          "data": "0x000000000000000000000000ffffffffffffffffffffffffffffffffffffffff0000000000000000000000000000000000000000000000000000ffffffffffff",
          "blockHash": "0x49f4cec13c691b7f5c09e872c7af6d923a2c598eab9608814512c0c19e0867b3",
          "blockNumber": "0x6c21f0",
          "blockTimestamp": "0x67382280",
          "transactionHash": "0xd145e8d91fb47c5cee4af28aefc1c1548c106c0c1bef88d2dffba91c00fa8cf0",
          "transactionIndex": "0x22",
          "logIndex": "0x32",
          "removed": false
        }
      ],
      "logsBloom": "0x00010000000000000000000000000000000000000000000000000000000000000000000000000040000000000000000000000000000004000000000000080000100000000000000200000000000000800000000000000000000000000000000000000000000000000000000000000000000000000000000000000000000000000020000000000000000000000000000000000000000000000000000000000000000000000000000000000000000000000000008000000000000000080020000000000000000000000000000000000002000000000000000040000000000000000000000000000000000000000000000000800000000000000000000000000400",
      "type": "0x2",
      "transactionHash": "0xd145e8d91fb47c5cee4af28aefc1c1548c106c0c1bef88d2dffba91c00fa8cf0",
      "transactionIndex": "0x22",
      "blockHash": "0x49f4cec13c691b7f5c09e872c7af6d923a2c598eab9608814512c0c19e0867b3",
      "blockNumber": "0x6c21f0",
      "gasUsed": "0xbaca",
      "effectiveGasPrice": "0x65723a8",
      "from": "0x81d786b35f3ea2f39aa17cb18d9772e4ecd97206",
      "to": "0x000000000022d473030f116ddee9f6b43ac78ba3",
      "contractAddress": null
    },
    {
      "status": "0x1",
      "cumulativeGasUsed": "0xdfb50c",
      "logs": [
        {
          "address": "0x34182d56d905a195524a8f1813180c134687ca34",
          "topics": [
            "0x8c5be1e5ebec7d5bd14f71427d1e84f3dd0314c0f7b2291e5b200ac8c7c3b925",
            "0x00000000000000000000000081d786b35f3ea2f39aa17cb18d9772e4ecd97206",
            "0x000000000000000000000000000000000022d473030f116ddee9f6b43ac78ba3"
          ],
          "data": "0xffffffffffffffffffffffffffffffffffffffffffffffffffffffffffffffff",
          "blockHash": "0x49f4cec13c691b7f5c09e872c7af6d923a2c598eab9608814512c0c19e0867b3",
          "blockNumber": "0x6c21f0",
          "blockTimestamp": "0x67382280",
          "transactionHash": "0x3cf0fb5e8652ee2edaa3c0502776ed27f1321e82eb2ed7af9459d855b241b44c",
          "transactionIndex": "0x23",
          "logIndex": "0x33",
          "removed": false
        }
      ],
      "logsBloom": "0x00000000000000000000000000000000000000000000000000000000000000000000000000000000000000000000000000000000800000000000000000200000000000000000000200004000000000800000000000000800000000000000000000000000000000000000000008000000000000000000000000000000000000000000000000000000000000000000000000000000000000000000000000000000020000000000000000000000000000000000000200000000000000000000000000000000000000000000000000000002000000000000000000000000000080000010000000000000000000000000000000000000000000000000000000000000",
      "type": "0x2",
      "transactionHash": "0x3cf0fb5e8652ee2edaa3c0502776ed27f1321e82eb2ed7af9459d855b241b44c",
      "transactionIndex": "0x23",
      "blockHash": "0x49f4cec13c691b7f5c09e872c7af6d923a2c598eab9608814512c0c19e0867b3",
      "blockNumber": "0x6c21f0",
      "gasUsed": "0xc935",
      "effectiveGasPrice": "0x65723a8",
      "from": "0x81d786b35f3ea2f39aa17cb18d9772e4ecd97206",
      "to": "0x34182d56d905a195524a8f1813180c134687ca34",
      "contractAddress": null
    },
    {
      "status": "0x1",
      "cumulativeGasUsed": "0xe06fd6",
      "logs": [
        {
          "address": "0x000000000022d473030f116ddee9f6b43ac78ba3",
          "topics": [
            "0xda9fa7c1b00402c17d0161b249b1ab8bbec047c5a52207b9c112deffd817036b",
            "0x00000000000000000000000081d786b35f3ea2f39aa17cb18d9772e4ecd97206",
            "0x00000000000000000000000034182d56d905a195524a8f1813180c134687ca34",
            "0x0000000000000000000000001b1c77b606d13b09c84d1c7394b96b147bc03147"
          ],
          "data": "0x000000000000000000000000ffffffffffffffffffffffffffffffffffffffff0000000000000000000000000000000000000000000000000000ffffffffffff",
          "blockHash": "0x49f4cec13c691b7f5c09e872c7af6d923a2c598eab9608814512c0c19e0867b3",
          "blockNumber": "0x6c21f0",
          "blockTimestamp": "0x67382280",
          "transactionHash": "0x1f38648d51e518d1b344847313d01909a57f8342d9c508fa93dd8934c386f78e",
          "transactionIndex": "0x24",
          "logIndex": "0x34",
          "removed": false
        }
      ],
      "logsBloom": "0x00010000000000000000000000000000000000000000000020000000000000000000800000000040000000000000000000000000000000000000000000080000000000000000000200000000000000800000000000000000000000000000000000000000000000000000000000000000000000000000000000000000000000000020000000000000000000000000000000000000000000000000000000000000000040000000000000000000000000000000000000000000000000080020000000000000000000000000000000000002000000000000000040000000000000000000000000000000000000000000000000800000000000000000000000000400",
      "type": "0x2",
      "transactionHash": "0x1f38648d51e518d1b344847313d01909a57f8342d9c508fa93dd8934c386f78e",
      "transactionIndex": "0x24",
      "blockHash": "0x49f4cec13c691b7f5c09e872c7af6d923a2c598eab9608814512c0c19e0867b3",
      "blockNumber": "0x6c21f0",
      "gasUsed": "0xbaca",
      "effectiveGasPrice": "0x65723a8",
      "from": "0x81d786b35f3ea2f39aa17cb18d9772e4ecd97206",
      "to": "0x000000000022d473030f116ddee9f6b43ac78ba3",
      "contractAddress": null
    },
    {
      "status": "0x1",
      "cumulativeGasUsed": "0xe7caf8",
      "logs": [
        {
          "address": "0x8c4bcbe6b9ef47855f97e675296fa3f6fafa5f1a",
          "topics": [
            "0xdd466e674ea557f56295e2d0218a125ea4b4f0f6f3307b95f85e6110838d6438",
            "0x0843384e4bf12bedfa739c6f73c195b7257d1b152ac857cfb1fc7347be1bfbf2",
            "0x0000000000000000000000001c7d4b196cb0c7b01d743fbc6116a902379c7238",
            "0x00000000000000000000000034182d56d905a195524a8f1813180c134687ca34"
          ],
          "data": "0x0000000000000000000000000000000000000000000000000000000000000bb8000000000000000000000000000000000000000000000000000000000000003c00000000000000000000000096bf4e2fc2154cf3f48f789a469dcd1dcff8004000000000000000000000000000000000000000010000000000000000000000000000000000000000000000000000000000000000000000000000000000000000",
          "blockHash": "0x49f4cec13c691b7f5c09e872c7af6d923a2c598eab9608814512c0c19e0867b3",
          "blockNumber": "0x6c21f0",
          "blockTimestamp": "0x67382280",
          "transactionHash": "0xe78d4054b650af61b2939ddd95bfa016c2a294ee1a9b785da23125f5bf6d4823",
          "transactionIndex": "0x25",
          "logIndex": "0x35",
          "removed": false
        },
        {
          "address": "0x1b1c77b606d13b09c84d1c7394b96b147bc03147",
          "topics": [
            "0xddf252ad1be2c89b69c2b068fc378daa952ba7f163c4a11628f55a4df523b3ef",
            "0x0000000000000000000000000000000000000000000000000000000000000000",
            "0x0000000000000000000000009f7cf1d1f558e57ef88a59ac3d47214ef25b6a06",
            "0x0000000000000000000000000000000000000000000000000000000000000036"
          ],
          "data": "0x",
          "blockHash": "0x49f4cec13c691b7f5c09e872c7af6d923a2c598eab9608814512c0c19e0867b3",
          "blockNumber": "0x6c21f0",
          "blockTimestamp": "0x67382280",
          "transactionHash": "0xe78d4054b650af61b2939ddd95bfa016c2a294ee1a9b785da23125f5bf6d4823",
          "transactionIndex": "0x25",
          "logIndex": "0x36",
          "removed": false
        },
        {
          "address": "0x8c4bcbe6b9ef47855f97e675296fa3f6fafa5f1a",
          "topics": [
            "0xf208f4912782fd25c7f114ca3723a2d5dd6f3bcc3ac8db5af63baa85f711d5ec",
            "0x0843384e4bf12bedfa739c6f73c195b7257d1b152ac857cfb1fc7347be1bfbf2",
            "0x0000000000000000000000001b1c77b606d13b09c84d1c7394b96b147bc03147"
          ],
          "data": "0xfffffffffffffffffffffffffffffffffffffffffffffffffffffffffffffda8000000000000000000000000000000000000000000000000000000000000025800000000000000000000000000000000000000000000000000000000000000650000000000000000000000000000000000000000000000000000000000000036",
          "blockHash": "0x49f4cec13c691b7f5c09e872c7af6d923a2c598eab9608814512c0c19e0867b3",
          "blockNumber": "0x6c21f0",
          "blockTimestamp": "0x67382280",
          "transactionHash": "0xe78d4054b650af61b2939ddd95bfa016c2a294ee1a9b785da23125f5bf6d4823",
          "transactionIndex": "0x25",
          "logIndex": "0x37",
          "removed": false
        },
        {
          "address": "0x1c7d4b196cb0c7b01d743fbc6116a902379c7238",
          "topics": [
            "0xddf252ad1be2c89b69c2b068fc378daa952ba7f163c4a11628f55a4df523b3ef",
            "0x00000000000000000000000081d786b35f3ea2f39aa17cb18d9772e4ecd97206",
            "0x0000000000000000000000008c4bcbe6b9ef47855f97e675296fa3f6fafa5f1a"
          ],
          "data": "0x0000000000000000000000000000000000000000000000000000000000000003",
          "blockHash": "0x49f4cec13c691b7f5c09e872c7af6d923a2c598eab9608814512c0c19e0867b3",
          "blockNumber": "0x6c21f0",
          "blockTimestamp": "0x67382280",
          "transactionHash": "0xe78d4054b650af61b2939ddd95bfa016c2a294ee1a9b785da23125f5bf6d4823",
          "transactionIndex": "0x25",
          "logIndex": "0x38",
          "removed": false
        },
        {
          "address": "0x34182d56d905a195524a8f1813180c134687ca34",
          "topics": [
            "0xddf252ad1be2c89b69c2b068fc378daa952ba7f163c4a11628f55a4df523b3ef",
            "0x00000000000000000000000081d786b35f3ea2f39aa17cb18d9772e4ecd97206",
            "0x0000000000000000000000008c4bcbe6b9ef47855f97e675296fa3f6fafa5f1a"
          ],
          "data": "0x0000000000000000000000000000000000000000000000000000000000000003",
          "blockHash": "0x49f4cec13c691b7f5c09e872c7af6d923a2c598eab9608814512c0c19e0867b3",
          "blockNumber": "0x6c21f0",
          "blockTimestamp": "0x67382280",
          "transactionHash": "0xe78d4054b650af61b2939ddd95bfa016c2a294ee1a9b785da23125f5bf6d4823",
          "transactionIndex": "0x25",
          "logIndex": "0x39",
          "removed": false
        }
      ],
      "logsBloom": "0x000000000000000000000000000000000000000000000000200000000002000800008000000000400000000020000000000000000000040000000000000000001000400000000002000000080000008000000000000000001008000000000000000000000200001000000000090008000000000000000000000000100000000000004000011000081000008000000000000000010000001000000000002000000000440040000000000000000000000000000082000000000000000000220000000000020000000000000000008000020040200000004000000000000000a0000000000000000000000012000000000004800000000000000000000000000000",
      "type": "0x2",
      "transactionHash": "0xe78d4054b650af61b2939ddd95bfa016c2a294ee1a9b785da23125f5bf6d4823",
      "transactionIndex": "0x25",
      "blockHash": "0x49f4cec13c691b7f5c09e872c7af6d923a2c598eab9608814512c0c19e0867b3",
      "blockNumber": "0x6c21f0",
      "gasUsed": "0x75b22",
      "effectiveGasPrice": "0x65723a8",
      "from": "0x81d786b35f3ea2f39aa17cb18d9772e4ecd97206",
      "to": "0x1b1c77b606d13b09c84d1c7394b96b147bc03147",
      "contractAddress": null
    }
  ],
  "libraries": [],
  "pending": [],
  "returns": {},
  "timestamp": 1731732097,
  "chain": 11155111,
  "commit": "633df5c"
}