{
  "transactions": [
    {
      "hash": "0x1bc84fab1542f0e5d320faf9c3b477cb7175242b882c295f179542293431671c",
      "transactionType": "CALL",
      "contractName": null,
      "contractAddress": "0x1c7d4b196cb0c7b01d743fbc6116a902379c7238",
      "function": "approve(address,uint256)",
      "arguments": [
        "0xe49d2815C231826caB58017e214Bed19fE1c2dD4",
        "115792089237316195423570985008687907853269984665640564039457584007913129639935"
      ],
      "transaction": {
        "from": "0x81d786b35f3ea2f39aa17cb18d9772e4ecd97206",
        "to": "0x1c7d4b196cb0c7b01d743fbc6116a902379c7238",
        "gas": "0xc19d",
        "value": "0x0",
        "input": "0x095ea7b3000000000000000000000000e49d2815c231826cab58017e214bed19fe1c2dd4ffffffffffffffffffffffffffffffffffffffffffffffffffffffffffffffff",
        "nonce": "0x6e",
        "chainId": "0xaa36a7"
      },
      "additionalContracts": [],
      "isFixedGasLimit": false
    },
    {
      "hash": "0x526970f073e6ae446ee6d6f7241d1d4f75e55001179207064577a9c473a464e1",
      "transactionType": "CALL",
      "contractName": null,
      "contractAddress": "0x34182d56d905a195524a8f1813180c134687ca34",
      "function": "approve(address,uint256)",
      "arguments": [
        "0xe49d2815C231826caB58017e214Bed19fE1c2dD4",
        "115792089237316195423570985008687907853269984665640564039457584007913129639935"
      ],
      "transaction": {
        "from": "0x81d786b35f3ea2f39aa17cb18d9772e4ecd97206",
        "to": "0x34182d56d905a195524a8f1813180c134687ca34",
        "gas": "0xaade",
        "value": "0x0",
        "input": "0x095ea7b3000000000000000000000000e49d2815c231826cab58017e214bed19fe1c2dd4ffffffffffffffffffffffffffffffffffffffffffffffffffffffffffffffff",
        "nonce": "0x6f",
        "chainId": "0xaa36a7"
      },
      "additionalContracts": [],
      "isFixedGasLimit": false
    },
    {
      "hash": "0xeb9a93a654abc3dd10bdd5c4470532e8da38f458a3f424ea59ce8c4b0953b27b",
      "transactionType": "CALL",
      "contractName": "PoolSwapTest",
      "contractAddress": "0xe49d2815c231826cab58017e214bed19fe1c2dd4",
      "function": "swap((address,address,uint24,int24,address),(bool,int256,uint160),(bool,bool),bytes)",
      "arguments": [
        "(0x1c7D4B196Cb0C7B01d743Fbc6116a902379C7238, 0x34182d56d905a195524a8F1813180C134687ca34, 3000, 60, 0xa3EC8Bf389cbFB9f74412E5c320EB84C5865C040)",
        "(true, 10000000, 4295128740)",
        "(false, false)",
        "0x"
      ],
      "transaction": {
        "from": "0x81d786b35f3ea2f39aa17cb18d9772e4ecd97206",
        "to": "0xe49d2815c231826cab58017e214bed19fe1c2dd4",
        "gas": "0xaf65d",
        "value": "0x0",
        "input": "0x2229d0b40000000000000000000000001c7d4b196cb0c7b01d743fbc6116a902379c723800000000000000000000000034182d56d905a195524a8f1813180c134687ca340000000000000000000000000000000000000000000000000000000000000bb8000000000000000000000000000000000000000000000000000000000000003c000000000000000000000000a3ec8bf389cbfb9f74412e5c320eb84c5865c0400000000000000000000000000000000000000000000000000000000000000001000000000000000000000000000000000000000000000000000000000098968000000000000000000000000000000000000000000000000000000001000276a40000000000000000000000000000000000000000000000000000000000000000000000000000000000000000000000000000000000000000000000000000000000000000000000000000000000000000000000000000000000000000000001600000000000000000000000000000000000000000000000000000000000000000",
        "nonce": "0x70",
        "chainId": "0xaa36a7"
      },
      "additionalContracts": [],
      "isFixedGasLimit": false
    }
  ],
  "receipts": [
    {
      "status": "0x1",
      "cumulativeGasUsed": "0x62eea9",
      "logs": [
        {
          "address": "0x1c7d4b196cb0c7b01d743fbc6116a902379c7238",
          "topics": [
            "0x8c5be1e5ebec7d5bd14f71427d1e84f3dd0314c0f7b2291e5b200ac8c7c3b925",
            "0x00000000000000000000000081d786b35f3ea2f39aa17cb18d9772e4ecd97206",
            "0x000000000000000000000000e49d2815c231826cab58017e214bed19fe1c2dd4"
          ],
          "data": "0xffffffffffffffffffffffffffffffffffffffffffffffffffffffffffffffff",
          "blockHash": "0x8cf2c78b7291a51cb515a4ecd46fa70b88510be786793a2a4f2e26bc737f1ee0",
          "blockNumber": "0x6c25e4",
          "blockTimestamp": "0x67385538",
          "transactionHash": "0x1bc84fab1542f0e5d320faf9c3b477cb7175242b882c295f179542293431671c",
          "transactionIndex": "0x2e",
          "logIndex": "0x39",
          "removed": false
        }
      ],
      "logsBloom": "0x00000000000000000000000000000000000000000000000000000000000200000000000000000000000000000000000000000000000000000000000000200000000000000000000200000000000000800000000000000000000000000000000000000000000000000000000000000000000000000000000000000000000000000000000000100000000000000000000000000000000000002800000000000000020000000000000000000000000000000000000000000000000000000000000000000000000000000000000000000002000000000000000000000000000000000010000000000000000010000000000000000000000000000000400000000000",
      "type": "0x2",
      "transactionHash": "0x1bc84fab1542f0e5d320faf9c3b477cb7175242b882c295f179542293431671c",
      "transactionIndex": "0x2e",
      "blockHash": "0x8cf2c78b7291a51cb515a4ecd46fa70b88510be786793a2a4f2e26bc737f1ee0",
      "blockNumber": "0x6c25e4",
      "gasUsed": "0x8c2d",
      "effectiveGasPrice": "0x205daaf5",
      "from": "0x81d786b35f3ea2f39aa17cb18d9772e4ecd97206",
      "to": "0x1c7d4b196cb0c7b01d743fbc6116a902379c7238",
      "contractAddress": null
    },
    {
      "status": "0x1",
      "cumulativeGasUsed": "0x636a5e",
      "logs": [
        {
          "address": "0x34182d56d905a195524a8f1813180c134687ca34",
          "topics": [
            "0x8c5be1e5ebec7d5bd14f71427d1e84f3dd0314c0f7b2291e5b200ac8c7c3b925",
            "0x00000000000000000000000081d786b35f3ea2f39aa17cb18d9772e4ecd97206",
            "0x000000000000000000000000e49d2815c231826cab58017e214bed19fe1c2dd4"
          ],
          "data": "0xffffffffffffffffffffffffffffffffffffffffffffffffffffffffffffffff",
          "blockHash": "0x8cf2c78b7291a51cb515a4ecd46fa70b88510be786793a2a4f2e26bc737f1ee0",
          "blockNumber": "0x6c25e4",
          "blockTimestamp": "0x67385538",
          "transactionHash": "0x526970f073e6ae446ee6d6f7241d1d4f75e55001179207064577a9c473a464e1",
          "transactionIndex": "0x2f",
          "logIndex": "0x3a",
          "removed": false
        }
      ],
      "logsBloom": "0x00000000000000000000000000000000000000000000000000000000000000000000000000000000000000000000000000000000000000000000000000200000000000000000000200000000000000800000000000000000000000000000000000000000000000000000000008000000000000000000000000000000000000000000000000000000000000000000000000000000000000002800000000000000020000000000000000000000000000000000000200000000000000000000000000000000000000000000000000000002000000000000000000000000000080000010000000000000000000000000000000000000000000000000400000000000",
      "type": "0x2",
      "transactionHash": "0x526970f073e6ae446ee6d6f7241d1d4f75e55001179207064577a9c473a464e1",
      "transactionIndex": "0x2f",
      "blockHash": "0x8cf2c78b7291a51cb515a4ecd46fa70b88510be786793a2a4f2e26bc737f1ee0",
      "blockNumber": "0x6c25e4",
      "gasUsed": "0x7bb5",
      "effectiveGasPrice": "0x205daaf5",
      "from": "0x81d786b35f3ea2f39aa17cb18d9772e4ecd97206",
      "to": "0x34182d56d905a195524a8f1813180c134687ca34",
      "contractAddress": null
    },
    {
      "status": "0x1",
      "cumulativeGasUsed": "0x74c6de",
      "logs": [
        {
          "address": "0x8c4bcbe6b9ef47855f97e675296fa3f6fafa5f1a",
          "topics": [
            "0x40e9cecb9f5f1f1c5b9c97dec2917b7ee92e57ba5563708daca94dd84ad7112f",
            "0x650a8163af9666ab8077fbe00cc3bf8d82e0e3631874917ec8cbd3ebe512f2cb",
            "0x000000000000000000000000e49d2815c231826cab58017e214bed19fe1c2dd4"
          ],
          "data": "0xffffffffffffffffffffffffffffffffffffffffffffffffffffffffff66f3f400000000000000000000000000000000000000000000000000000000008ffb4e00000000000000000000000000000000000000000000000000000001000276a40000000000000000000000000000000000000000000000000000000000000000fffffffffffffffffffffffffffffffffffffffffffffffffffffffffff276180000000000000000000000000000000000000000000000000000000000000bb8",
          "blockHash": "0x8cf2c78b7291a51cb515a4ecd46fa70b88510be786793a2a4f2e26bc737f1ee0",
          "blockNumber": "0x6c25e4",
          "blockTimestamp": "0x67385538",
          "transactionHash": "0xeb9a93a654abc3dd10bdd5c4470532e8da38f458a3f424ea59ce8c4b0953b27b",
          "transactionIndex": "0x31",
          "logIndex": "0x40",
          "removed": false
        },
        {
          "address": "0x1c7d4b196cb0c7b01d743fbc6116a902379c7238",
          "topics": [
            "0xddf252ad1be2c89b69c2b068fc378daa952ba7f163c4a11628f55a4df523b3ef",
            "0x00000000000000000000000081d786b35f3ea2f39aa17cb18d9772e4ecd97206",
            "0x0000000000000000000000008c4bcbe6b9ef47855f97e675296fa3f6fafa5f1a"
          ],
          "data": "0x0000000000000000000000000000000000000000000000000000000000990c0c",
          "blockHash": "0x8cf2c78b7291a51cb515a4ecd46fa70b88510be786793a2a4f2e26bc737f1ee0",
          "blockNumber": "0x6c25e4",
          "blockTimestamp": "0x67385538",
          "transactionHash": "0xeb9a93a654abc3dd10bdd5c4470532e8da38f458a3f424ea59ce8c4b0953b27b",
          "transactionIndex": "0x31",
          "logIndex": "0x41",
          "removed": false
        },
        {
          "address": "0x34182d56d905a195524a8f1813180c134687ca34",
          "topics": [
            "0xddf252ad1be2c89b69c2b068fc378daa952ba7f163c4a11628f55a4df523b3ef",
            "0x0000000000000000000000008c4bcbe6b9ef47855f97e675296fa3f6fafa5f1a",
            "0x00000000000000000000000081d786b35f3ea2f39aa17cb18d9772e4ecd97206"
          ],
          "data": "0x00000000000000000000000000000000000000000000000000000000008ffb4e",
          "blockHash": "0x8cf2c78b7291a51cb515a4ecd46fa70b88510be786793a2a4f2e26bc737f1ee0",
          "blockNumber": "0x6c25e4",
          "blockTimestamp": "0x67385538",
          "transactionHash": "0xeb9a93a654abc3dd10bdd5c4470532e8da38f458a3f424ea59ce8c4b0953b27b",
          "transactionIndex": "0x31",
          "logIndex": "0x42",
          "removed": false
        }
      ],
      "logsBloom": "0x00000000000000000000000000000000000000000000000000000000000200000000120000000000000000002000000000000000040000000000000000000000000000000000000200000008000000800002000000000020000800000000000000000000000000100000000008000000000000000000000000000010000000000000000000100000100000000000000000000000000000002800000000000000000000000000000000000000000000000000000200000000000000000000000000000002000000000000000000800002000020000000000000000000000080000000000000000000004010000000000000000000000000000000400000000000",
      "type": "0x2",
      "transactionHash": "0xeb9a93a654abc3dd10bdd5c4470532e8da38f458a3f424ea59ce8c4b0953b27b",
      "transactionIndex": "0x31",
      "blockHash": "0x8cf2c78b7291a51cb515a4ecd46fa70b88510be786793a2a4f2e26bc737f1ee0",
      "blockNumber": "0x6c25e4",
      "gasUsed": "0x77ee2",
      "effectiveGasPrice": "0x205daaf5",
      "from": "0x81d786b35f3ea2f39aa17cb18d9772e4ecd97206",
      "to": "0xe49d2815c231826cab58017e214bed19fe1c2dd4",
      "contractAddress": null
    }
  ],
  "libraries": [],
  "pending": [],
  "returns": {},
  "timestamp": 1731745081,
  "chain": 11155111,
  "commit": "80fb7a2"
}