{
  "transactions": [
    {
      "hash": "0x84d5512374ffd6a6ec03e369a4006e9437472f31ed208d37c2145057bb86b013",
      "transactionType": "CALL",
      "contractName": null,
      "contractAddress": "0x1c7d4b196cb0c7b01d743fbc6116a902379c7238",
      "function": "approve(address,uint256)",
      "arguments": [
        "0xe49d2815C231826caB58017e214Bed19fE1c2dD4",
        "115792089237316195423570985008687907853269984665640564039457584007913129639935"
      ],
      "transaction": {
        "from": "0x81d786b35f3ea2f39aa17cb18d9772e4ecd97206",
        "to": "0x1c7d4b196cb0c7b01d743fbc6116a902379c7238",
        "gas": "0x13eb1",
        "value": "0x0",
        "input": "0x095ea7b3000000000000000000000000e49d2815c231826cab58017e214bed19fe1c2dd4ffffffffffffffffffffffffffffffffffffffffffffffffffffffffffffffff",
        "nonce": "0x3b",
        "chainId": "0xaa36a7"
      },
      "additionalContracts": [],
      "isFixedGasLimit": false
    },
    {
      "hash": "0x951dfa4dcbf08ed44b2630b2ddbb7fc8c65d30d9f138e97e3792ba91985b6390",
      "transactionType": "CALL",
      "contractName": null,
      "contractAddress": "0x34182d56d905a195524a8f1813180c134687ca34",
      "function": "approve(address,uint256)",
      "arguments": [
        "0xe49d2815C231826caB58017e214Bed19fE1c2dD4",
        "115792089237316195423570985008687907853269984665640564039457584007913129639935"
      ],
      "transaction": {
        "from": "0x81d786b35f3ea2f39aa17cb18d9772e4ecd97206",
        "to": "0x34182d56d905a195524a8f1813180c134687ca34",
        "gas": "0x1269b",
        "value": "0x0",
        "input": "0x095ea7b3000000000000000000000000e49d2815c231826cab58017e214bed19fe1c2dd4ffffffffffffffffffffffffffffffffffffffffffffffffffffffffffffffff",
        "nonce": "0x3c",
        "chainId": "0xaa36a7"
      },
      "additionalContracts": [],
      "isFixedGasLimit": false
    },
    {
      "hash": "0x65b49b6e68f17ad01c1eeb6d959802916c41846c549fe024ab5fbff243d7b9ca",
      "transactionType": "CALL",
      "contractName": "PoolSwapTest",
      "contractAddress": "0xe49d2815c231826cab58017e214bed19fe1c2dd4",
      "function": "swap((address,address,uint24,int24,address),(bool,int256,uint160),(bool,bool),bytes)",
      "arguments": [
        "(0x1c7D4B196Cb0C7B01d743Fbc6116a902379C7238, 0x34182d56d905a195524a8F1813180C134687ca34, 3000, 60, 0x96BF4e2fc2154cf3f48f789A469Dcd1DcFf80040)",
        "(true, 100000000000000000000, 4295128740)",
        "(false, false)",
        "0x"
      ],
      "transaction": {
        "from": "0x81d786b35f3ea2f39aa17cb18d9772e4ecd97206",
        "to": "0xe49d2815c231826cab58017e214bed19fe1c2dd4",
        "gas": "0xa6685",
        "value": "0x0",
        "input": "0x2229d0b40000000000000000000000001c7d4b196cb0c7b01d743fbc6116a902379c723800000000000000000000000034182d56d905a195524a8f1813180c134687ca340000000000000000000000000000000000000000000000000000000000000bb8000000000000000000000000000000000000000000000000000000000000003c00000000000000000000000096bf4e2fc2154cf3f48f789a469dcd1dcff8004000000000000000000000000000000000000000000000000000000000000000010000000000000000000000000000000000000000000000056bc75e2d6310000000000000000000000000000000000000000000000000000000000001000276a40000000000000000000000000000000000000000000000000000000000000000000000000000000000000000000000000000000000000000000000000000000000000000000000000000000000000000000000000000000000000000000001600000000000000000000000000000000000000000000000000000000000000000",
        "nonce": "0x3d",
        "chainId": "0xaa36a7"
      },
      "additionalContracts": [],
      "isFixedGasLimit": false
    }
  ],
  "receipts": [
    {
      "status": "0x1",
      "cumulativeGasUsed": "0x11ca095",
      "logs": [
        {
          "address": "0x1c7d4b196cb0c7b01d743fbc6116a902379c7238",
          "topics": [
            "0x8c5be1e5ebec7d5bd14f71427d1e84f3dd0314c0f7b2291e5b200ac8c7c3b925",
            "0x00000000000000000000000081d786b35f3ea2f39aa17cb18d9772e4ecd97206",
            "0x000000000000000000000000e49d2815c231826cab58017e214bed19fe1c2dd4"
          ],
          "data": "0xffffffffffffffffffffffffffffffffffffffffffffffffffffffffffffffff",
          "blockHash": "0x2971096921ce733dc91d83eb5502874618e1e985029fce3a0fb3bc4c5d97a8df",
          "blockNumber": "0x6c221c",
          "blockTimestamp": "0x673824b4",
          "transactionHash": "0x84d5512374ffd6a6ec03e369a4006e9437472f31ed208d37c2145057bb86b013",
          "transactionIndex": "0x28",
          "logIndex": "0x192",
          "removed": false
        }
      ],
      "logsBloom": "0x00000000000000000000000000000000000000000000000000000000000200000000000000000000000000000000000000000000000000000000000000200000000000000000000200000000000000800000000000000000000000000000000000000000000000000000000000000000000000000000000000000000000000000000000000100000000000000000000000000000000000002800000000000000020000000000000000000000000000000000000000000000000000000000000000000000000000000000000000000002000000000000000000000000000000000010000000000000000010000000000000000000000000000000400000000000",
      "type": "0x2",
      "transactionHash": "0x84d5512374ffd6a6ec03e369a4006e9437472f31ed208d37c2145057bb86b013",
      "transactionIndex": "0x28",
      "blockHash": "0x2971096921ce733dc91d83eb5502874618e1e985029fce3a0fb3bc4c5d97a8df",
      "blockNumber": "0x6c221c",
      "gasUsed": "0xd9e9",
      "effectiveGasPrice": "0xd027930",
      "from": "0x81d786b35f3ea2f39aa17cb18d9772e4ecd97206",
      "to": "0x1c7d4b196cb0c7b01d743fbc6116a902379c7238",
      "contractAddress": null
    },
    {
      "status": "0x1",
      "cumulativeGasUsed": "0x11d6a06",
      "logs": [
        {
          "address": "0x34182d56d905a195524a8f1813180c134687ca34",
          "topics": [
            "0x8c5be1e5ebec7d5bd14f71427d1e84f3dd0314c0f7b2291e5b200ac8c7c3b925",
            "0x00000000000000000000000081d786b35f3ea2f39aa17cb18d9772e4ecd97206",
            "0x000000000000000000000000e49d2815c231826cab58017e214bed19fe1c2dd4"
          ],
          "data": "0xffffffffffffffffffffffffffffffffffffffffffffffffffffffffffffffff",
          "blockHash": "0x2971096921ce733dc91d83eb5502874618e1e985029fce3a0fb3bc4c5d97a8df",
          "blockNumber": "0x6c221c",
          "blockTimestamp": "0x673824b4",
          "transactionHash": "0x951dfa4dcbf08ed44b2630b2ddbb7fc8c65d30d9f138e97e3792ba91985b6390",
          "transactionIndex": "0x29",
          "logIndex": "0x193",
          "removed": false
        }
      ],
      "logsBloom": "0x00000000000000000000000000000000000000000000000000000000000000000000000000000000000000000000000000000000000000000000000000200000000000000000000200000000000000800000000000000000000000000000000000000000000000000000000008000000000000000000000000000000000000000000000000000000000000000000000000000000000000002800000000000000020000000000000000000000000000000000000200000000000000000000000000000000000000000000000000000002000000000000000000000000000080000010000000000000000000000000000000000000000000000000400000000000",
      "type": "0x2",
      "transactionHash": "0x951dfa4dcbf08ed44b2630b2ddbb7fc8c65d30d9f138e97e3792ba91985b6390",
      "transactionIndex": "0x29",
      "blockHash": "0x2971096921ce733dc91d83eb5502874618e1e985029fce3a0fb3bc4c5d97a8df",
      "blockNumber": "0x6c221c",
      "gasUsed": "0xc971",
      "effectiveGasPrice": "0xd027930",
      "from": "0x81d786b35f3ea2f39aa17cb18d9772e4ecd97206",
      "to": "0x34182d56d905a195524a8f1813180c134687ca34",
      "contractAddress": null
    },
    {
      "status": "0x1",
      "cumulativeGasUsed": "0x124f1a5",
      "logs": [
        {
          "address": "0x8c4bcbe6b9ef47855f97e675296fa3f6fafa5f1a",
          "topics": [
            "0x40e9cecb9f5f1f1c5b9c97dec2917b7ee92e57ba5563708daca94dd84ad7112f",
            "0x0843384e4bf12bedfa739c6f73c195b7257d1b152ac857cfb1fc7347be1bfbf2",
            "0x000000000000000000000000e49d2815c231826cab58017e214bed19fe1c2dd4"
          ],
          "data": "0xffffffffffffffffffffffffffffffffffffffffffffffffffffffffffff86dd000000000000000000000000000000000000000000000000000000000000753200000000000000000000000000000000000000000000000000000001000276a40000000000000000000000000000000000000000000000000000000000000000fffffffffffffffffffffffffffffffffffffffffffffffffffffffffff276180000000000000000000000000000000000000000000000000000000000000bb8",
          "blockHash": "0x2971096921ce733dc91d83eb5502874618e1e985029fce3a0fb3bc4c5d97a8df",
          "blockNumber": "0x6c221c",
          "blockTimestamp": "0x673824b4",
          "transactionHash": "0x65b49b6e68f17ad01c1eeb6d959802916c41846c549fe024ab5fbff243d7b9ca",
          "transactionIndex": "0x2a",
          "logIndex": "0x194",
          "removed": false
        },
        {
          "address": "0x1c7d4b196cb0c7b01d743fbc6116a902379c7238",
          "topics": [
            "0xddf252ad1be2c89b69c2b068fc378daa952ba7f163c4a11628f55a4df523b3ef",
            "0x00000000000000000000000081d786b35f3ea2f39aa17cb18d9772e4ecd97206",
            "0x0000000000000000000000008c4bcbe6b9ef47855f97e675296fa3f6fafa5f1a"
          ],
          "data": "0x0000000000000000000000000000000000000000000000000000000000007923",
          "blockHash": "0x2971096921ce733dc91d83eb5502874618e1e985029fce3a0fb3bc4c5d97a8df",
          "blockNumber": "0x6c221c",
          "blockTimestamp": "0x673824b4",
          "transactionHash": "0x65b49b6e68f17ad01c1eeb6d959802916c41846c549fe024ab5fbff243d7b9ca",
          "transactionIndex": "0x2a",
          "logIndex": "0x195",
          "removed": false
        },
        {
          "address": "0x34182d56d905a195524a8f1813180c134687ca34",
          "topics": [
            "0xddf252ad1be2c89b69c2b068fc378daa952ba7f163c4a11628f55a4df523b3ef",
            "0x0000000000000000000000008c4bcbe6b9ef47855f97e675296fa3f6fafa5f1a",
            "0x00000000000000000000000081d786b35f3ea2f39aa17cb18d9772e4ecd97206"
          ],
          "data": "0x0000000000000000000000000000000000000000000000000000000000007532",
          "blockHash": "0x2971096921ce733dc91d83eb5502874618e1e985029fce3a0fb3bc4c5d97a8df",
          "blockNumber": "0x6c221c",
          "blockTimestamp": "0x673824b4",
          "transactionHash": "0x65b49b6e68f17ad01c1eeb6d959802916c41846c549fe024ab5fbff243d7b9ca",
          "transactionIndex": "0x2a",
          "logIndex": "0x196",
          "removed": false
        }
      ],
      "logsBloom": "0x00000000000000000000000000000000000000000000000000000000000200000000000000000000000000002000000000000000040000000000000000000000000000000000000200000008000000800000000000000020100800000000000000000000000000100000000008000000000000000000000000000010000000000000400000100000100000000000000000000000000000102800000000000000000000000000000000000000000000000000000200000000000000000000000000000002000000000000000000800002000020000000000000000000000080000000000000000000004010000000000000000000000000000000400000000000",
      "type": "0x2",
      "transactionHash": "0x65b49b6e68f17ad01c1eeb6d959802916c41846c549fe024ab5fbff243d7b9ca",
      "transactionIndex": "0x2a",
      "blockHash": "0x2971096921ce733dc91d83eb5502874618e1e985029fce3a0fb3bc4c5d97a8df",
      "blockNumber": "0x6c221c",
      "gasUsed": "0x7879f",
      "effectiveGasPrice": "0xd027930",
      "from": "0x81d786b35f3ea2f39aa17cb18d9772e4ecd97206",
      "to": "0xe49d2815c231826cab58017e214bed19fe1c2dd4",
      "contractAddress": null
    }
  ],
  "libraries": [],
  "pending": [],
  "returns": {},
  "timestamp": 1731732661,
  "chain": 11155111,
  "commit": "633df5c"
}