{
  "transactions": [
    {
      "hash": "0xcde5eec0ccea9b55c2135c3415b231674de78d1af4aa8e1e33a13aa00eea182d",
      "transactionType": "CALL",
      "contractName": null,
      "contractAddress": "0x1c7d4b196cb0c7b01d743fbc6116a902379c7238",
      "function": "approve(address,uint256)",
      "arguments": [
        "0xe49d2815C231826caB58017e214Bed19fE1c2dD4",
        "115792089237316195423570985008687907853269984665640564039457584007913129639935"
      ],
      "transaction": {
        "from": "0x81d786b35f3ea2f39aa17cb18d9772e4ecd97206",
        "to": "0x1c7d4b196cb0c7b01d743fbc6116a902379c7238",
        "gas": "0xd0b8",
        "value": "0x0",
        "input": "0x095ea7b3000000000000000000000000e49d2815c231826cab58017e214bed19fe1c2dd4ffffffffffffffffffffffffffffffffffffffffffffffffffffffffffffffff",
        "nonce": "0x3e",
        "chainId": "0xaa36a7"
      },
      "additionalContracts": [],
      "isFixedGasLimit": false
    },
    {
      "hash": "0x692d03f8396575380ed2b235412a2f8139fbcafbe955fa11fa98ba18d2ffcccc",
      "transactionType": "CALL",
      "contractName": null,
      "contractAddress": "0x34182d56d905a195524a8f1813180c134687ca34",
      "function": "approve(address,uint256)",
      "arguments": [
        "0xe49d2815C231826caB58017e214Bed19fE1c2dD4",
        "115792089237316195423570985008687907853269984665640564039457584007913129639935"
      ],
      "transaction": {
        "from": "0x81d786b35f3ea2f39aa17cb18d9772e4ecd97206",
        "to": "0x34182d56d905a195524a8f1813180c134687ca34",
        "gas": "0xaade",
        "value": "0x0",
        "input": "0x095ea7b3000000000000000000000000e49d2815c231826cab58017e214bed19fe1c2dd4ffffffffffffffffffffffffffffffffffffffffffffffffffffffffffffffff",
        "nonce": "0x3f",
        "chainId": "0xaa36a7"
      },
      "additionalContracts": [],
      "isFixedGasLimit": false
    },
    {
      "hash": "0x62ffaaae2a4af5470ae2ce89b98dfb1e970806a8989236e2b16ae55a65917e76",
      "transactionType": "CALL",
      "contractName": "PoolSwapTest",
      "contractAddress": "0xe49d2815c231826cab58017e214bed19fe1c2dd4",
      "function": "swap((address,address,uint24,int24,address),(bool,int256,uint160),(bool,bool),bytes)",
      "arguments": [
        "(0x1c7D4B196Cb0C7B01d743Fbc6116a902379C7238, 0x34182d56d905a195524a8F1813180C134687ca34, 3000, 60, 0x96BF4e2fc2154cf3f48f789A469Dcd1DcFf80040)",
        "(false, 100000000000000000000, 1461446703485210103287273052203988822378723970341)",
        "(false, false)",
        "0x"
      ],
      "transaction": {
        "from": "0x81d786b35f3ea2f39aa17cb18d9772e4ecd97206",
        "to": "0xe49d2815c231826cab58017e214bed19fe1c2dd4",
        "gas": "0x118749",
        "value": "0x0",
        "input": "0x2229d0b40000000000000000000000001c7d4b196cb0c7b01d743fbc6116a902379c723800000000000000000000000034182d56d905a195524a8f1813180c134687ca340000000000000000000000000000000000000000000000000000000000000bb8000000000000000000000000000000000000000000000000000000000000003c00000000000000000000000096bf4e2fc2154cf3f48f789a469dcd1dcff8004000000000000000000000000000000000000000000000000000000000000000000000000000000000000000000000000000000000000000056bc75e2d63100000000000000000000000000000fffd8963efd1fc6a506488495d951d5263988d250000000000000000000000000000000000000000000000000000000000000000000000000000000000000000000000000000000000000000000000000000000000000000000000000000000000000000000000000000000000000000000001600000000000000000000000000000000000000000000000000000000000000000",
        "nonce": "0x40",
        "chainId": "0xaa36a7"
      },
      "additionalContracts": [],
      "isFixedGasLimit": false
    }
  ],
  "receipts": [
    {
      "status": "0x1",
      "cumulativeGasUsed": "0x845d6a",
      "logs": [
        {
          "address": "0x1c7d4b196cb0c7b01d743fbc6116a902379c7238",
          "topics": [
            "0x8c5be1e5ebec7d5bd14f71427d1e84f3dd0314c0f7b2291e5b200ac8c7c3b925",
            "0x00000000000000000000000081d786b35f3ea2f39aa17cb18d9772e4ecd97206",
            "0x000000000000000000000000e49d2815c231826cab58017e214bed19fe1c2dd4"
          ],
          "data": "0xffffffffffffffffffffffffffffffffffffffffffffffffffffffffffffffff",
          "blockHash": "0x2151200dcd346dd757c9039d1ae0c71d3019e4666ce2e6442787cf5e9bc199a4",
          "blockNumber": "0x6c2223",
          "blockTimestamp": "0x67382508",
          "transactionHash": "0xcde5eec0ccea9b55c2135c3415b231674de78d1af4aa8e1e33a13aa00eea182d",
          "transactionIndex": "0x29",
          "logIndex": "0x48",
          "removed": false
        }
      ],
      "logsBloom": "0x00000000000000000000000000000000000000000000000000000000000200000000000000000000000000000000000000000000000000000000000000200000000000000000000200000000000000800000000000000000000000000000000000000000000000000000000000000000000000000000000000000000000000000000000000100000000000000000000000000000000000002800000000000000020000000000000000000000000000000000000000000000000000000000000000000000000000000000000000000002000000000000000000000000000000000010000000000000000010000000000000000000000000000000400000000000",
      "type": "0x2",
      "transactionHash": "0xcde5eec0ccea9b55c2135c3415b231674de78d1af4aa8e1e33a13aa00eea182d",
      "transactionIndex": "0x29",
      "blockHash": "0x2151200dcd346dd757c9039d1ae0c71d3019e4666ce2e6442787cf5e9bc199a4",
      "blockNumber": "0x6c2223",
      "gasUsed": "0x971d",
      "effectiveGasPrice": "0xce8082d",
      "from": "0x81d786b35f3ea2f39aa17cb18d9772e4ecd97206",
      "to": "0x1c7d4b196cb0c7b01d743fbc6116a902379c7238",
      "contractAddress": null
    },
    {
      "status": "0x1",
      "cumulativeGasUsed": "0x84d91f",
      "logs": [
        {
          "address": "0x34182d56d905a195524a8f1813180c134687ca34",
          "topics": [
            "0x8c5be1e5ebec7d5bd14f71427d1e84f3dd0314c0f7b2291e5b200ac8c7c3b925",
            "0x00000000000000000000000081d786b35f3ea2f39aa17cb18d9772e4ecd97206",
            "0x000000000000000000000000e49d2815c231826cab58017e214bed19fe1c2dd4"
          ],
          "data": "0xffffffffffffffffffffffffffffffffffffffffffffffffffffffffffffffff",
          "blockHash": "0x2151200dcd346dd757c9039d1ae0c71d3019e4666ce2e6442787cf5e9bc199a4",
          "blockNumber": "0x6c2223",
          "blockTimestamp": "0x67382508",
          "transactionHash": "0x692d03f8396575380ed2b235412a2f8139fbcafbe955fa11fa98ba18d2ffcccc",
          "transactionIndex": "0x2a",
          "logIndex": "0x49",
          "removed": false
        }
      ],
      "logsBloom": "0x00000000000000000000000000000000000000000000000000000000000000000000000000000000000000000000000000000000000000000000000000200000000000000000000200000000000000800000000000000000000000000000000000000000000000000000000008000000000000000000000000000000000000000000000000000000000000000000000000000000000000002800000000000000020000000000000000000000000000000000000200000000000000000000000000000000000000000000000000000002000000000000000000000000000080000010000000000000000000000000000000000000000000000000400000000000",
      "type": "0x2",
      "transactionHash": "0x692d03f8396575380ed2b235412a2f8139fbcafbe955fa11fa98ba18d2ffcccc",
      "transactionIndex": "0x2a",
      "blockHash": "0x2151200dcd346dd757c9039d1ae0c71d3019e4666ce2e6442787cf5e9bc199a4",
      "blockNumber": "0x6c2223",
      "gasUsed": "0x7bb5",
      "effectiveGasPrice": "0xce8082d",
      "from": "0x81d786b35f3ea2f39aa17cb18d9772e4ecd97206",
      "to": "0x34182d56d905a195524a8f1813180c134687ca34",
      "contractAddress": null
    },
    {
      "status": "0x1",
      "cumulativeGasUsed": "0x9189d6",
      "logs": [
        {
          "address": "0x8c4bcbe6b9ef47855f97e675296fa3f6fafa5f1a",
          "topics": [
            "0x40e9cecb9f5f1f1c5b9c97dec2917b7ee92e57ba5563708daca94dd84ad7112f",
            "0x0843384e4bf12bedfa739c6f73c195b7257d1b152ac857cfb1fc7347be1bfbf2",
            "0x000000000000000000000000e49d2815c231826cab58017e214bed19fe1c2dd4"
          ],
          "data": "0x000000000000000000000000000000000000000000000000000000000000edf7ffffffffffffffffffffffffffffffffffffffffffffffffffffffffffff114f000000000000000000000000fffd8963efd1fc6a506488495d951d5263988d25000000000000000000000000000000000000000000000000000000000000000000000000000000000000000000000000000000000000000000000000000d89e70000000000000000000000000000000000000000000000000000000000000bb8",
          "blockHash": "0x2151200dcd346dd757c9039d1ae0c71d3019e4666ce2e6442787cf5e9bc199a4",
          "blockNumber": "0x6c2223",
          "blockTimestamp": "0x67382508",
          "transactionHash": "0x62ffaaae2a4af5470ae2ce89b98dfb1e970806a8989236e2b16ae55a65917e76",
          "transactionIndex": "0x2b",
          "logIndex": "0x4a",
          "removed": false
        },
        {
          "address": "0x34182d56d905a195524a8f1813180c134687ca34",
          "topics": [
            "0xddf252ad1be2c89b69c2b068fc378daa952ba7f163c4a11628f55a4df523b3ef",
            "0x00000000000000000000000081d786b35f3ea2f39aa17cb18d9772e4ecd97206",
            "0x0000000000000000000000008c4bcbe6b9ef47855f97e675296fa3f6fafa5f1a"
          ],
          "data": "0x000000000000000000000000000000000000000000000000000000000000eeb1",
          "blockHash": "0x2151200dcd346dd757c9039d1ae0c71d3019e4666ce2e6442787cf5e9bc199a4",
          "blockNumber": "0x6c2223",
          "blockTimestamp": "0x67382508",
          "transactionHash": "0x62ffaaae2a4af5470ae2ce89b98dfb1e970806a8989236e2b16ae55a65917e76",
          "transactionIndex": "0x2b",
          "logIndex": "0x4b",
          "removed": false
        },
        {
          "address": "0x1c7d4b196cb0c7b01d743fbc6116a902379c7238",
          "topics": [
            "0xddf252ad1be2c89b69c2b068fc378daa952ba7f163c4a11628f55a4df523b3ef",
            "0x0000000000000000000000008c4bcbe6b9ef47855f97e675296fa3f6fafa5f1a",
            "0x00000000000000000000000081d786b35f3ea2f39aa17cb18d9772e4ecd97206"
          ],
          "data": "0x000000000000000000000000000000000000000000000000000000000000edf7",
          "blockHash": "0x2151200dcd346dd757c9039d1ae0c71d3019e4666ce2e6442787cf5e9bc199a4",
          "blockNumber": "0x6c2223",
          "blockTimestamp": "0x67382508",
          "transactionHash": "0x62ffaaae2a4af5470ae2ce89b98dfb1e970806a8989236e2b16ae55a65917e76",
          "transactionIndex": "0x2b",
          "logIndex": "0x4c",
          "removed": false
        }
      ],
      "logsBloom": "0x00000000000000000000000000000000000000000000000000000000000200000000000000000000000000002000000000000000040000000000000000000000000000000000000200000008000000800000000000000020100800000000000000000000000000100000000008000000000000000000000000000010000000000000400000100000100000000000000000000000000000102800000000000000000000000000000000000000000000000000000200000000000000000000000000000002000000000000000000800002000020000000000000000000000080000000000000000000004010000000000000000000000000000000400000000000",
      "type": "0x2",
      "transactionHash": "0x62ffaaae2a4af5470ae2ce89b98dfb1e970806a8989236e2b16ae55a65917e76",
      "transactionIndex": "0x2b",
      "blockHash": "0x2151200dcd346dd757c9039d1ae0c71d3019e4666ce2e6442787cf5e9bc199a4",
      "blockNumber": "0x6c2223",
      "gasUsed": "0xcb0b7",
      "effectiveGasPrice": "0xce8082d",
      "from": "0x81d786b35f3ea2f39aa17cb18d9772e4ecd97206",
      "to": "0xe49d2815c231826cab58017e214bed19fe1c2dd4",
      "contractAddress": null
    }
  ],
  "libraries": [],
  "pending": [],
  "returns": {},
  "timestamp": 1731732745,
  "chain": 11155111,
  "commit": "633df5c"
}