{
  "transactions": [
    {
      "hash": "0xaffcb9e2a7a019ac0d894bff8a006dfa4a1d188c1f6a0b3bb6f7f90d0b132e97",
      "transactionType": "CALL",
      "contractName": null,
      "contractAddress": "0x1c7d4b196cb0c7b01d743fbc6116a902379c7238",
      "function": "approve(address,uint256)",
      "arguments": [
        "0xe49d2815C231826caB58017e214Bed19fE1c2dD4",
        "115792089237316195423570985008687907853269984665640564039457584007913129639935"
      ],
      "transaction": {
        "from": "0x81d786b35f3ea2f39aa17cb18d9772e4ecd97206",
        "to": "0x1c7d4b196cb0c7b01d743fbc6116a902379c7238",
        "gas": "0xd0b8",
        "value": "0x0",
        "input": "0x095ea7b3000000000000000000000000e49d2815c231826cab58017e214bed19fe1c2dd4ffffffffffffffffffffffffffffffffffffffffffffffffffffffffffffffff",
        "nonce": "0x6b",
        "chainId": "0xaa36a7"
      },
      "additionalContracts": [],
      "isFixedGasLimit": false
    },
    {
      "hash": "0xb0cc220cd80a11cd58a9d5f86dab37120cc4cde1f69ce213640520efbfe1b15e",
      "transactionType": "CALL",
      "contractName": null,
      "contractAddress": "0x34182d56d905a195524a8f1813180c134687ca34",
      "function": "approve(address,uint256)",
      "arguments": [
        "0xe49d2815C231826caB58017e214Bed19fE1c2dD4",
        "115792089237316195423570985008687907853269984665640564039457584007913129639935"
      ],
      "transaction": {
        "from": "0x81d786b35f3ea2f39aa17cb18d9772e4ecd97206",
        "to": "0x34182d56d905a195524a8f1813180c134687ca34",
        "gas": "0xaade",
        "value": "0x0",
        "input": "0x095ea7b3000000000000000000000000e49d2815c231826cab58017e214bed19fe1c2dd4ffffffffffffffffffffffffffffffffffffffffffffffffffffffffffffffff",
        "nonce": "0x6c",
        "chainId": "0xaa36a7"
      },
      "additionalContracts": [],
      "isFixedGasLimit": false
    },
    {
      "hash": "0xdbd9e30cd85e91227a375e83b05154a3210bf244cb56dcd2bbad9130f945032c",
      "transactionType": "CALL",
      "contractName": "PoolSwapTest",
      "contractAddress": "0xe49d2815c231826cab58017e214bed19fe1c2dd4",
      "function": "swap((address,address,uint24,int24,address),(bool,int256,uint160),(bool,bool),bytes)",
      "arguments": [
        "(0x1c7D4B196Cb0C7B01d743Fbc6116a902379C7238, 0x34182d56d905a195524a8F1813180C134687ca34, 3000, 60, 0xa3EC8Bf389cbFB9f74412E5c320EB84C5865C040)",
        "(false, 10000000, 1461446703485210103287273052203988822378723970341)",
        "(false, false)",
        "0x"
      ],
      "transaction": {
        "from": "0x81d786b35f3ea2f39aa17cb18d9772e4ecd97206",
        "to": "0xe49d2815c231826cab58017e214bed19fe1c2dd4",
        "gas": "0xa5c8c",
        "value": "0x0",
        "input": "0x2229d0b40000000000000000000000001c7d4b196cb0c7b01d743fbc6116a902379c723800000000000000000000000034182d56d905a195524a8f1813180c134687ca340000000000000000000000000000000000000000000000000000000000000bb8000000000000000000000000000000000000000000000000000000000000003c000000000000000000000000a3ec8bf389cbfb9f74412e5c320eb84c5865c04000000000000000000000000000000000000000000000000000000000000000000000000000000000000000000000000000000000000000000000000000989680000000000000000000000000fffd8963efd1fc6a506488495d951d5263988d250000000000000000000000000000000000000000000000000000000000000000000000000000000000000000000000000000000000000000000000000000000000000000000000000000000000000000000000000000000000000000000001600000000000000000000000000000000000000000000000000000000000000000",
        "nonce": "0x6d",
        "chainId": "0xaa36a7"
      },
      "additionalContracts": [],
      "isFixedGasLimit": false
    }
  ],
  "receipts": [
    {
      "status": "0x1",
      "cumulativeGasUsed": "0x137b9f7",
      "logs": [
        {
          "address": "0x1c7d4b196cb0c7b01d743fbc6116a902379c7238",
          "topics": [
            "0x8c5be1e5ebec7d5bd14f71427d1e84f3dd0314c0f7b2291e5b200ac8c7c3b925",
            "0x00000000000000000000000081d786b35f3ea2f39aa17cb18d9772e4ecd97206",
            "0x000000000000000000000000e49d2815c231826cab58017e214bed19fe1c2dd4"
          ],
          "data": "0xffffffffffffffffffffffffffffffffffffffffffffffffffffffffffffffff",
          "blockHash": "0x7188ca392b82e9a8985f810d9cdc00d1d1b38f2e58574791c5bffcfab979e105",
          "blockNumber": "0x6c25e0",
          "blockTimestamp": "0x67385508",
          "transactionHash": "0xaffcb9e2a7a019ac0d894bff8a006dfa4a1d188c1f6a0b3bb6f7f90d0b132e97",
          "transactionIndex": "0x6f",
          "logIndex": "0xa9",
          "removed": false
        }
      ],
      "logsBloom": "0x00000000000000000000000000000000000000000000000000000000000200000000000000000000000000000000000000000000000000000000000000200000000000000000000200000000000000800000000000000000000000000000000000000000000000000000000000000000000000000000000000000000000000000000000000100000000000000000000000000000000000002800000000000000020000000000000000000000000000000000000000000000000000000000000000000000000000000000000000000002000000000000000000000000000000000010000000000000000010000000000000000000000000000000400000000000",
      "type": "0x2",
      "transactionHash": "0xaffcb9e2a7a019ac0d894bff8a006dfa4a1d188c1f6a0b3bb6f7f90d0b132e97",
      "transactionIndex": "0x6f",
      "blockHash": "0x7188ca392b82e9a8985f810d9cdc00d1d1b38f2e58574791c5bffcfab979e105",
      "blockNumber": "0x6c25e0",
      "gasUsed": "0x971d",
      "effectiveGasPrice": "0x1cee8ebc",
      "from": "0x81d786b35f3ea2f39aa17cb18d9772e4ecd97206",
      "to": "0x1c7d4b196cb0c7b01d743fbc6116a902379c7238",
      "contractAddress": null
    },
    {
      "status": "0x1",
      "cumulativeGasUsed": "0x13835ac",
      "logs": [
        {
          "address": "0x34182d56d905a195524a8f1813180c134687ca34",
          "topics": [
            "0x8c5be1e5ebec7d5bd14f71427d1e84f3dd0314c0f7b2291e5b200ac8c7c3b925",
            "0x00000000000000000000000081d786b35f3ea2f39aa17cb18d9772e4ecd97206",
            "0x000000000000000000000000e49d2815c231826cab58017e214bed19fe1c2dd4"
          ],
          "data": "0xffffffffffffffffffffffffffffffffffffffffffffffffffffffffffffffff",
          "blockHash": "0x7188ca392b82e9a8985f810d9cdc00d1d1b38f2e58574791c5bffcfab979e105",
          "blockNumber": "0x6c25e0",
          "blockTimestamp": "0x67385508",
          "transactionHash": "0xb0cc220cd80a11cd58a9d5f86dab37120cc4cde1f69ce213640520efbfe1b15e",
          "transactionIndex": "0x70",
          "logIndex": "0xaa",
          "removed": false
        }
      ],
      "logsBloom": "0x00000000000000000000000000000000000000000000000000000000000000000000000000000000000000000000000000000000000000000000000000200000000000000000000200000000000000800000000000000000000000000000000000000000000000000000000008000000000000000000000000000000000000000000000000000000000000000000000000000000000000002800000000000000020000000000000000000000000000000000000200000000000000000000000000000000000000000000000000000002000000000000000000000000000080000010000000000000000000000000000000000000000000000000400000000000",
      "type": "0x2",
      "transactionHash": "0xb0cc220cd80a11cd58a9d5f86dab37120cc4cde1f69ce213640520efbfe1b15e",
      "transactionIndex": "0x70",
      "blockHash": "0x7188ca392b82e9a8985f810d9cdc00d1d1b38f2e58574791c5bffcfab979e105",
      "blockNumber": "0x6c25e0",
      "gasUsed": "0x7bb5",
      "effectiveGasPrice": "0x1cee8ebc",
      "from": "0x81d786b35f3ea2f39aa17cb18d9772e4ecd97206",
      "to": "0x34182d56d905a195524a8f1813180c134687ca34",
      "contractAddress": null
    },
    {
      "status": "0x1",
      "cumulativeGasUsed": "0x13fb612",
      "logs": [
        {
          "address": "0x8c4bcbe6b9ef47855f97e675296fa3f6fafa5f1a",
          "topics": [
            "0x40e9cecb9f5f1f1c5b9c97dec2917b7ee92e57ba5563708daca94dd84ad7112f",
            "0x650a8163af9666ab8077fbe00cc3bf8d82e0e3631874917ec8cbd3ebe512f2cb",
            "0x000000000000000000000000e49d2815c231826cab58017e214bed19fe1c2dd4"
          ],
          "data": "0x0000000000000000000000000000000000000000000000000000000000989680ffffffffffffffffffffffffffffffffffffffffffffffffffffffffff6f95c70000000000000000000000000000000000000000f8eadb103ea3a36c0bd6e1af000000000000000000000000000000000000000000000000000000012a1d10e5fffffffffffffffffffffffffffffffffffffffffffffffffffffffffffffdce0000000000000000000000000000000000000000000000000000000000000bb8",
          "blockHash": "0x7188ca392b82e9a8985f810d9cdc00d1d1b38f2e58574791c5bffcfab979e105",
          "blockNumber": "0x6c25e0",
          "blockTimestamp": "0x67385508",
          "transactionHash": "0xdbd9e30cd85e91227a375e83b05154a3210bf244cb56dcd2bbad9130f945032c",
          "transactionIndex": "0x71",
          "logIndex": "0xab",
          "removed": false
        },
        {
          "address": "0x34182d56d905a195524a8f1813180c134687ca34",
          "topics": [
            "0xddf252ad1be2c89b69c2b068fc378daa952ba7f163c4a11628f55a4df523b3ef",
            "0x00000000000000000000000081d786b35f3ea2f39aa17cb18d9772e4ecd97206",
            "0x0000000000000000000000008c4bcbe6b9ef47855f97e675296fa3f6fafa5f1a"
          ],
          "data": "0x0000000000000000000000000000000000000000000000000000000000906a39",
          "blockHash": "0x7188ca392b82e9a8985f810d9cdc00d1d1b38f2e58574791c5bffcfab979e105",
          "blockNumber": "0x6c25e0",
          "blockTimestamp": "0x67385508",
          "transactionHash": "0xdbd9e30cd85e91227a375e83b05154a3210bf244cb56dcd2bbad9130f945032c",
          "transactionIndex": "0x71",
          "logIndex": "0xac",
          "removed": false
        },
        {
          "address": "0x1c7d4b196cb0c7b01d743fbc6116a902379c7238",
          "topics": [
            "0xddf252ad1be2c89b69c2b068fc378daa952ba7f163c4a11628f55a4df523b3ef",
            "0x0000000000000000000000008c4bcbe6b9ef47855f97e675296fa3f6fafa5f1a",
            "0x00000000000000000000000081d786b35f3ea2f39aa17cb18d9772e4ecd97206"
          ],
          "data": "0x0000000000000000000000000000000000000000000000000000000000989680",
          "blockHash": "0x7188ca392b82e9a8985f810d9cdc00d1d1b38f2e58574791c5bffcfab979e105",
          "blockNumber": "0x6c25e0",
          "blockTimestamp": "0x67385508",
          "transactionHash": "0xdbd9e30cd85e91227a375e83b05154a3210bf244cb56dcd2bbad9130f945032c",
          "transactionIndex": "0x71",
          "logIndex": "0xad",
          "removed": false
        }
      ],
      "logsBloom": "0x00000000000000000000000000000000000000000000000000000000000200000000120000000000000000002000000000000000040000000000000000000000000000000000000200000008000000800002000000000020000800000000000000000000000000100000000008000000000000000000000000000010000000000000000000100000100000000000000000000000000000002800000000000000000000000000000000000000000000000000000200000000000000000000000000000002000000000000000000800002000020000000000000000000000080000000000000000000004010000000000000000000000000000000400000000000",
      "type": "0x2",
      "transactionHash": "0xdbd9e30cd85e91227a375e83b05154a3210bf244cb56dcd2bbad9130f945032c",
      "transactionIndex": "0x71",
      "blockHash": "0x7188ca392b82e9a8985f810d9cdc00d1d1b38f2e58574791c5bffcfab979e105",
      "blockNumber": "0x6c25e0",
      "gasUsed": "0x78066",
      "effectiveGasPrice": "0x1cee8ebc",
      "from": "0x81d786b35f3ea2f39aa17cb18d9772e4ecd97206",
      "to": "0xe49d2815c231826cab58017e214bed19fe1c2dd4",
      "contractAddress": null
    }
  ],
  "libraries": [],
  "pending": [],
  "returns": {},
  "timestamp": 1731745037,
  "chain": 11155111,
  "commit": "80fb7a2"
}