{
  "transactions": [
    {
      "hash": "0x37d2e8eea2db5209347f128ac792e30c8004f335c1676f6d76d0af8e4694e509",
      "transactionType": "CALL",
      "contractName": null,
      "contractAddress": "0x1c7d4b196cb0c7b01d743fbc6116a902379c7238",
      "function": "approve(address,uint256)",
      "arguments": [
        "0x000000000022D473030F116dDEE9F6B43aC78BA3",
        "115792089237316195423570985008687907853269984665640564039457584007913129639935"
      ],
      "transaction": {
        "from": "0x81d786b35f3ea2f39aa17cb18d9772e4ecd97206",
        "to": "0x1c7d4b196cb0c7b01d743fbc6116a902379c7238",
        "gas": "0xdca8",
        "value": "0x0",
        "input": "0x095ea7b3000000000000000000000000000000000022d473030f116ddee9f6b43ac78ba3ffffffffffffffffffffffffffffffffffffffffffffffffffffffffffffffff",
        "nonce": "0x66",
        "chainId": "0xaa36a7"
      },
      "additionalContracts": [],
      "isFixedGasLimit": false
    },
    {
      "hash": "0x7d7eb1a0a53b51632631f1ad0cae0c7da15c677fceddfcd2e37e9fe05a45a7cb",
      "transactionType": "CALL",
      "contractName": null,
      "contractAddress": "0x000000000022d473030f116ddee9f6b43ac78ba3",
      "function": "approve(address,address,uint160,uint48)",
      "arguments": [
        "0x1c7D4B196Cb0C7B01d743Fbc6116a902379C7238",
        "0x1B1C77B606d13b09C84d1c7394B96b147bC03147",
        "1461501637330902918203684832716283019655932542975",
        "281474976710655"
      ],
      "transaction": {
        "from": "0x81d786b35f3ea2f39aa17cb18d9772e4ecd97206",
        "to": "0x000000000022d473030f116ddee9f6b43ac78ba3",
        "gas": "0x96a0",
        "value": "0x0",
        "input": "0x87517c450000000000000000000000001c7d4b196cb0c7b01d743fbc6116a902379c72380000000000000000000000001b1c77b606d13b09c84d1c7394b96b147bc03147000000000000000000000000ffffffffffffffffffffffffffffffffffffffff0000000000000000000000000000000000000000000000000000ffffffffffff",
        "nonce": "0x67",
        "chainId": "0xaa36a7"
      },
      "additionalContracts": [],
      "isFixedGasLimit": false
    },
    {
      "hash": "0x999494148a16ec918193fe6f3236a6f3eaeb9d06351906835fc7f51aff7cbe4c",
      "transactionType": "CALL",
      "contractName": null,
      "contractAddress": "0x34182d56d905a195524a8f1813180c134687ca34",
      "function": "approve(address,uint256)",
      "arguments": [
        "0x000000000022D473030F116dDEE9F6B43aC78BA3",
        "115792089237316195423570985008687907853269984665640564039457584007913129639935"
      ],
      "transaction": {
        "from": "0x81d786b35f3ea2f39aa17cb18d9772e4ecd97206",
        "to": "0x34182d56d905a195524a8f1813180c134687ca34",
        "gas": "0xb494",
        "value": "0x0",
        "input": "0x095ea7b3000000000000000000000000000000000022d473030f116ddee9f6b43ac78ba3ffffffffffffffffffffffffffffffffffffffffffffffffffffffffffffffff",
        "nonce": "0x68",
        "chainId": "0xaa36a7"
      },
      "additionalContracts": [],
      "isFixedGasLimit": false
    },
    {
      "hash": "0x072f23725d658117da373d0fcd8b7d7828740a64e4fa4001f921e27342c0d642",
      "transactionType": "CALL",
      "contractName": null,
      "contractAddress": "0x000000000022d473030f116ddee9f6b43ac78ba3",
      "function": "approve(address,address,uint160,uint48)",
      "arguments": [
        "0x34182d56d905a195524a8F1813180C134687ca34",
        "0x1B1C77B606d13b09C84d1c7394B96b147bC03147",
        "1461501637330902918203684832716283019655932542975",
        "281474976710655"
      ],
      "transaction": {
        "from": "0x81d786b35f3ea2f39aa17cb18d9772e4ecd97206",
        "to": "0x000000000022d473030f116ddee9f6b43ac78ba3",
        "gas": "0x96a0",
        "value": "0x0",
        "input": "0x87517c4500000000000000000000000034182d56d905a195524a8f1813180c134687ca340000000000000000000000001b1c77b606d13b09c84d1c7394b96b147bc03147000000000000000000000000ffffffffffffffffffffffffffffffffffffffff0000000000000000000000000000000000000000000000000000ffffffffffff",
        "nonce": "0x69",
        "chainId": "0xaa36a7"
      },
      "additionalContracts": [],
      "isFixedGasLimit": false
    },
    {
      "hash": "0x6730aad678a2027adccf99506e54853ce8ec4a8a6ed6cfdfe6a010b2704d444e",
      "transactionType": "CALL",
      "contractName": "PositionManager",
      "contractAddress": "0x1b1c77b606d13b09c84d1c7394b96b147bc03147",
      "function": "modifyLiquidities(bytes,uint256)",
      "arguments": [
        "0x000000000000000000000000000000000000000000000000000000000000004000000000000000000000000000000000000000000000000000000000000000800000000000000000000000000000000000000000000000000000000000000002021100000000000000000000000000000000000000000000000000000000000000000000000000000000000000000000000000000000000000000000000000020000000000000000000000000000000000000000000000000000000000000040000000000000000000000000000000000000000000000000000000000000020000000000000000000000000000000000000000000000000000000000000001a00000000000000000000000001c7d4b196cb0c7b01d743fbc6116a902379c723800000000000000000000000034182d56d905a195524a8f1813180c134687ca340000000000000000000000000000000000000000000000000000000000000bb8000000000000000000000000000000000000000000000000000000000000003c000000000000000000000000a3ec8bf389cbfb9f74412e5c320eb84c5865c040fffffffffffffffffffffffffffffffffffffffffffffffffffffffffffffda800000000000000000000000000000000000000000000000000000000000002580000000000000000000000000000000000000000000000000000000129fe51500000000000000000000000000000000000000000000000000000000011e1a301000000000000000000000000000000000000000000000000000000e8d4a510010000000000000000000000001804c8ab1f12e6bbf3894d4083f33e07309d1f380000000000000000000000000000000000000000000000000000000000000180000000000000000000000000000000000000000000000000000000000000000000000000000000000000000000000000000000000000000000000000000000400000000000000000000000001c7d4b196cb0c7b01d743fbc6116a902379c723800000000000000000000000034182d56d905a195524a8f1813180c134687ca34",
        "1731744876"
      ],
      "transaction": {
        "from": "0x81d786b35f3ea2f39aa17cb18d9772e4ecd97206",
        "to": "0x1b1c77b606d13b09c84d1c7394b96b147bc03147",
        "gas": "0x5a58f",
        "value": "0x0",
        "input": "0xdd46508f0000000000000000000000000000000000000000000000000000000000000040000000000000000000000000000000000000000000000000000000006738546c0000000000000000000000000000000000000000000000000000000000000300000000000000000000000000000000000000000000000000000000000000004000000000000000000000000000000000000000000000000000000000000000800000000000000000000000000000000000000000000000000000000000000002021100000000000000000000000000000000000000000000000000000000000000000000000000000000000000000000000000000000000000000000000000020000000000000000000000000000000000000000000000000000000000000040000000000000000000000000000000000000000000000000000000000000020000000000000000000000000000000000000000000000000000000000000001a00000000000000000000000001c7d4b196cb0c7b01d743fbc6116a902379c723800000000000000000000000034182d56d905a195524a8f1813180c134687ca340000000000000000000000000000000000000000000000000000000000000bb8000000000000000000000000000000000000000000000000000000000000003c000000000000000000000000a3ec8bf389cbfb9f74412e5c320eb84c5865c040fffffffffffffffffffffffffffffffffffffffffffffffffffffffffffffda800000000000000000000000000000000000000000000000000000000000002580000000000000000000000000000000000000000000000000000000129fe51500000000000000000000000000000000000000000000000000000000011e1a301000000000000000000000000000000000000000000000000000000e8d4a510010000000000000000000000001804c8ab1f12e6bbf3894d4083f33e07309d1f380000000000000000000000000000000000000000000000000000000000000180000000000000000000000000000000000000000000000000000000000000000000000000000000000000000000000000000000000000000000000000000000400000000000000000000000001c7d4b196cb0c7b01d743fbc6116a902379c723800000000000000000000000034182d56d905a195524a8f1813180c134687ca34",
        "nonce": "0x6a",
        "chainId": "0xaa36a7"
      },
      "additionalContracts": [],
      "isFixedGasLimit": false
    }
  ],
  "receipts": [
    {
      "status": "0x1",
      "cumulativeGasUsed": "0xc38bd4",
      "logs": [
        {
          "address": "0x1c7d4b196cb0c7b01d743fbc6116a902379c7238",
          "topics": [
            "0x8c5be1e5ebec7d5bd14f71427d1e84f3dd0314c0f7b2291e5b200ac8c7c3b925",
            "0x00000000000000000000000081d786b35f3ea2f39aa17cb18d9772e4ecd97206",
            "0x000000000000000000000000000000000022d473030f116ddee9f6b43ac78ba3"
          ],
          "data": "0xffffffffffffffffffffffffffffffffffffffffffffffffffffffffffffffff",
          "blockHash": "0xe09f5a35ed2c1f0fa31a4f6ea62607ad2c57a0160d38d5265d4ef2e8b2cc7067",
          "blockNumber": "0x6c25d2",
          "blockTimestamp": "0x67385448",
          "transactionHash": "0x37d2e8eea2db5209347f128ac792e30c8004f335c1676f6d76d0af8e4694e509",
          "transactionIndex": "0x3f",
          "logIndex": "0x3f",
          "removed": false
        }
      ],
      "logsBloom": "0x00000000000000000000000000000000000000000000000000000000000200000000000000000000000000000000000000000000800000000000000000200000000000000000000200004000000000800000000000000800000000000000000000000000000000000000000000000000000000000000000000000000000000000000000000100000000000000000000000000000000000000000000000000000020000000000000000000000000000000000000000000000000000000000000000000000000000000000000000000002000000000000000000000000000000000010000000000000000010000000000000000000000000000000000000000000",
      "type": "0x2",
      "transactionHash": "0x37d2e8eea2db5209347f128ac792e30c8004f335c1676f6d76d0af8e4694e509",
      "transactionIndex": "0x3f",
      "blockHash": "0xe09f5a35ed2c1f0fa31a4f6ea62607ad2c57a0160d38d5265d4ef2e8b2cc7067",
      "blockNumber": "0x6c25d2",
      "gasUsed": "0x96e1",
      "effectiveGasPrice": "0x1e15c381",
      "from": "0x81d786b35f3ea2f39aa17cb18d9772e4ecd97206",
      "to": "0x1c7d4b196cb0c7b01d743fbc6116a902379c7238",
      "contractAddress": null
    },
    {
      "status": "0x1",
      "cumulativeGasUsed": "0xc3f8e2",
      "logs": [
        {
          "address": "0x000000000022d473030f116ddee9f6b43ac78ba3",
          "topics": [
            "0xda9fa7c1b00402c17d0161b249b1ab8bbec047c5a52207b9c112deffd817036b",
            "0x00000000000000000000000081d786b35f3ea2f39aa17cb18d9772e4ecd97206",
            "0x0000000000000000000000001c7d4b196cb0c7b01d743fbc6116a902379c7238",
            "0x0000000000000000000000001b1c77b606d13b09c84d1c7394b96b147bc03147"
          ],
          "data": "0x000000000000000000000000ffffffffffffffffffffffffffffffffffffffff0000000000000000000000000000000000000000000000000000ffffffffffff",
          "blockHash": "0xe09f5a35ed2c1f0fa31a4f6ea62607ad2c57a0160d38d5265d4ef2e8b2cc7067",
          "blockNumber": "0x6c25d2",
          "blockTimestamp": "0x67385448",
          "transactionHash": "0x7d7eb1a0a53b51632631f1ad0cae0c7da15c677fceddfcd2e37e9fe05a45a7cb",
          "transactionIndex": "0x40",
          "logIndex": "0x40",
          "removed": false
        }
      ],
      "logsBloom": "0x00010000000000000000000000000000000000000000000000000000000000000000000000000040000000000000000000000000000004000000000000080000100000000000000200000000000000800000000000000000000000000000000000000000000000000000000000000000000000000000000000000000000000000020000000000000000000000000000000000000000000000000000000000000000000000000000000000000000000000000008000000000000000080020000000000000000000000000000000000002000000000000000040000000000000000000000000000000000000000000000000800000000000000000000000000400",
      "type": "0x2",
      "transactionHash": "0x7d7eb1a0a53b51632631f1ad0cae0c7da15c677fceddfcd2e37e9fe05a45a7cb",
      "transactionIndex": "0x40",
      "blockHash": "0xe09f5a35ed2c1f0fa31a4f6ea62607ad2c57a0160d38d5265d4ef2e8b2cc7067",
      "blockNumber": "0x6c25d2",
      "gasUsed": "0x6d0e",
      "effectiveGasPrice": "0x1e15c381",
      "from": "0x81d786b35f3ea2f39aa17cb18d9772e4ecd97206",
      "to": "0x000000000022d473030f116ddee9f6b43ac78ba3",
      "contractAddress": null
    },
    {
      "status": "0x1",
      "cumulativeGasUsed": "0xc4745b",
      "logs": [
        {
          "address": "0x34182d56d905a195524a8f1813180c134687ca34",
          "topics": [
            "0x8c5be1e5ebec7d5bd14f71427d1e84f3dd0314c0f7b2291e5b200ac8c7c3b925",
            "0x00000000000000000000000081d786b35f3ea2f39aa17cb18d9772e4ecd97206",
            "0x000000000000000000000000000000000022d473030f116ddee9f6b43ac78ba3"
          ],
          "data": "0xffffffffffffffffffffffffffffffffffffffffffffffffffffffffffffffff",
          "blockHash": "0xe09f5a35ed2c1f0fa31a4f6ea62607ad2c57a0160d38d5265d4ef2e8b2cc7067",
          "blockNumber": "0x6c25d2",
          "blockTimestamp": "0x67385448",
          "transactionHash": "0x999494148a16ec918193fe6f3236a6f3eaeb9d06351906835fc7f51aff7cbe4c",
          "transactionIndex": "0x41",
          "logIndex": "0x41",
          "removed": false
        }
      ],
      "logsBloom": "0x00000000000000000000000000000000000000000000000000000000000000000000000000000000000000000000000000000000800000000000000000200000000000000000000200004000000000800000000000000800000000000000000000000000000000000000000008000000000000000000000000000000000000000000000000000000000000000000000000000000000000000000000000000000020000000000000000000000000000000000000200000000000000000000000000000000000000000000000000000002000000000000000000000000000080000010000000000000000000000000000000000000000000000000000000000000",
      "type": "0x2",
      "transactionHash": "0x999494148a16ec918193fe6f3236a6f3eaeb9d06351906835fc7f51aff7cbe4c",
      "transactionIndex": "0x41",
      "blockHash": "0xe09f5a35ed2c1f0fa31a4f6ea62607ad2c57a0160d38d5265d4ef2e8b2cc7067",
      "blockNumber": "0x6c25d2",
      "gasUsed": "0x7b79",
      "effectiveGasPrice": "0x1e15c381",
      "from": "0x81d786b35f3ea2f39aa17cb18d9772e4ecd97206",
      "to": "0x34182d56d905a195524a8f1813180c134687ca34",
      "contractAddress": null
    },
    {
      "status": "0x1",
      "cumulativeGasUsed": "0xc4e169",
      "logs": [
        {
          "address": "0x000000000022d473030f116ddee9f6b43ac78ba3",
          "topics": [
            "0xda9fa7c1b00402c17d0161b249b1ab8bbec047c5a52207b9c112deffd817036b",
            "0x00000000000000000000000081d786b35f3ea2f39aa17cb18d9772e4ecd97206",
            "0x00000000000000000000000034182d56d905a195524a8f1813180c134687ca34",
            "0x0000000000000000000000001b1c77b606d13b09c84d1c7394b96b147bc03147"
          ],
          "data": "0x000000000000000000000000ffffffffffffffffffffffffffffffffffffffff0000000000000000000000000000000000000000000000000000ffffffffffff",
          "blockHash": "0xe09f5a35ed2c1f0fa31a4f6ea62607ad2c57a0160d38d5265d4ef2e8b2cc7067",
          "blockNumber": "0x6c25d2",
          "blockTimestamp": "0x67385448",
          "transactionHash": "0x072f23725d658117da373d0fcd8b7d7828740a64e4fa4001f921e27342c0d642",
          "transactionIndex": "0x42",
          "logIndex": "0x42",
          "removed": false
        }
      ],
      "logsBloom": "0x00010000000000000000000000000000000000000000000020000000000000000000800000000040000000000000000000000000000000000000000000080000000000000000000200000000000000800000000000000000000000000000000000000000000000000000000000000000000000000000000000000000000000000020000000000000000000000000000000000000000000000000000000000000000040000000000000000000000000000000000000000000000000080020000000000000000000000000000000000002000000000000000040000000000000000000000000000000000000000000000000800000000000000000000000000400",
      "type": "0x2",
      "transactionHash": "0x072f23725d658117da373d0fcd8b7d7828740a64e4fa4001f921e27342c0d642",
      "transactionIndex": "0x42",
      "blockHash": "0xe09f5a35ed2c1f0fa31a4f6ea62607ad2c57a0160d38d5265d4ef2e8b2cc7067",
      "blockNumber": "0x6c25d2",
      "gasUsed": "0x6d0e",
      "effectiveGasPrice": "0x1e15c381",
      "from": "0x81d786b35f3ea2f39aa17cb18d9772e4ecd97206",
      "to": "0x000000000022d473030f116ddee9f6b43ac78ba3",
      "contractAddress": null
    },
    {
      "status": "0x1",
      "cumulativeGasUsed": "0xc8bdd4",
      "logs": [
        {
          "address": "0x1b1c77b606d13b09c84d1c7394b96b147bc03147",
          "topics": [
            "0xddf252ad1be2c89b69c2b068fc378daa952ba7f163c4a11628f55a4df523b3ef",
            "0x0000000000000000000000000000000000000000000000000000000000000000",
            "0x0000000000000000000000001804c8ab1f12e6bbf3894d4083f33e07309d1f38",
            "0x000000000000000000000000000000000000000000000000000000000000003d"
          ],
          "data": "0x",
          "blockHash": "0xe09f5a35ed2c1f0fa31a4f6ea62607ad2c57a0160d38d5265d4ef2e8b2cc7067",
          "blockNumber": "0x6c25d2",
          "blockTimestamp": "0x67385448",
          "transactionHash": "0x6730aad678a2027adccf99506e54853ce8ec4a8a6ed6cfdfe6a010b2704d444e",
          "transactionIndex": "0x43",
          "logIndex": "0x43",
          "removed": false
        },
        {
          "address": "0x8c4bcbe6b9ef47855f97e675296fa3f6fafa5f1a",
          "topics": [
            "0xf208f4912782fd25c7f114ca3723a2d5dd6f3bcc3ac8db5af63baa85f711d5ec",
            "0x650a8163af9666ab8077fbe00cc3bf8d82e0e3631874917ec8cbd3ebe512f2cb",
            "0x0000000000000000000000001b1c77b606d13b09c84d1c7394b96b147bc03147"
          ],
          "data": "0xfffffffffffffffffffffffffffffffffffffffffffffffffffffffffffffda800000000000000000000000000000000000000000000000000000000000002580000000000000000000000000000000000000000000000000000000129fe5150000000000000000000000000000000000000000000000000000000000000003d",
          "blockHash": "0xe09f5a35ed2c1f0fa31a4f6ea62607ad2c57a0160d38d5265d4ef2e8b2cc7067",
          "blockNumber": "0x6c25d2",
          "blockTimestamp": "0x67385448",
          "transactionHash": "0x6730aad678a2027adccf99506e54853ce8ec4a8a6ed6cfdfe6a010b2704d444e",
          "transactionIndex": "0x43",
          "logIndex": "0x44",
          "removed": false
        },
        {
          "address": "0x1c7d4b196cb0c7b01d743fbc6116a902379c7238",
          "topics": [
            "0xddf252ad1be2c89b69c2b068fc378daa952ba7f163c4a11628f55a4df523b3ef",
            "0x00000000000000000000000081d786b35f3ea2f39aa17cb18d9772e4ecd97206",
            "0x0000000000000000000000008c4bcbe6b9ef47855f97e675296fa3f6fafa5f1a"
          ],
          "data": "0x0000000000000000000000000000000000000000000000000000000011e1a300",
          "blockHash": "0xe09f5a35ed2c1f0fa31a4f6ea62607ad2c57a0160d38d5265d4ef2e8b2cc7067",
          "blockNumber": "0x6c25d2",
          "blockTimestamp": "0x67385448",
          "transactionHash": "0x6730aad678a2027adccf99506e54853ce8ec4a8a6ed6cfdfe6a010b2704d444e",
          "transactionIndex": "0x43",
          "logIndex": "0x45",
          "removed": false
        },
        {
          "address": "0x34182d56d905a195524a8f1813180c134687ca34",
          "topics": [
            "0xddf252ad1be2c89b69c2b068fc378daa952ba7f163c4a11628f55a4df523b3ef",
            "0x00000000000000000000000081d786b35f3ea2f39aa17cb18d9772e4ecd97206",
            "0x0000000000000000000000008c4bcbe6b9ef47855f97e675296fa3f6fafa5f1a"
          ],
          "data": "0x0000000000000000000000000000000000000000000000000000000000000000",
          "blockHash": "0xe09f5a35ed2c1f0fa31a4f6ea62607ad2c57a0160d38d5265d4ef2e8b2cc7067",
          "blockNumber": "0x6c25d2",
          "blockTimestamp": "0x67385448",
          "transactionHash": "0x6730aad678a2027adccf99506e54853ce8ec4a8a6ed6cfdfe6a010b2704d444e",
          "transactionIndex": "0x43",
          "logIndex": "0x46",
          "removed": false
        }
      ],
      "logsBloom": "0x000000000000000000000000000000000000000000000000000000000002000800001200000000400000000020000000000000000000000000000000000000000000000000000002000000080000008000020000000000000008000400000000200000400200001000010000090008000000000000000000000000100000000000000000011000001000040000000000000000000000000000000000000000000000040000000000000000000000000000000002000000000000000000200000000000020000040000000000008000020040200000000000000000000000a0000000000000000000000010000000000004800000000000000000000000000000",
      "type": "0x2",
      "transactionHash": "0x6730aad678a2027adccf99506e54853ce8ec4a8a6ed6cfdfe6a010b2704d444e",
      "transactionIndex": "0x43",
      "blockHash": "0xe09f5a35ed2c1f0fa31a4f6ea62607ad2c57a0160d38d5265d4ef2e8b2cc7067",
      "blockNumber": "0x6c25d2",
      "gasUsed": "0x3dc6b",
      "effectiveGasPrice": "0x1e15c381",
      "from": "0x81d786b35f3ea2f39aa17cb18d9772e4ecd97206",
      "to": "0x1b1c77b606d13b09c84d1c7394b96b147bc03147",
      "contractAddress": null
    }
  ],
  "libraries": [],
  "pending": [],
  "returns": {},
  "timestamp": 1731744843,
  "chain": 11155111,
  "commit": "80fb7a2"
}