{
  "transactions": [
    {
      "hash": "0xb1895ada64f034e204f01c1ccbd2f70f10ba3944cb7a559a20f3d45e752a1933",
      "transactionType": "CALL",
      "contractName": null,
      "contractAddress": "0x1c7d4b196cb0c7b01d743fbc6116a902379c7238",
      "function": "approve(address,uint256)",
      "arguments": [
        "0x000000000022D473030F116dDEE9F6B43aC78BA3",
        "115792089237316195423570985008687907853269984665640564039457584007913129639935"
      ],
      "transaction": {
        "from": "0x81d786b35f3ea2f39aa17cb18d9772e4ecd97206",
        "to": "0x1c7d4b196cb0c7b01d743fbc6116a902379c7238",
        "gas": "0xdca8",
        "value": "0x0",
        "input": "0x095ea7b3000000000000000000000000000000000022d473030f116ddee9f6b43ac78ba3ffffffffffffffffffffffffffffffffffffffffffffffffffffffffffffffff",
        "nonce": "0x54",
        "chainId": "0xaa36a7"
      },
      "additionalContracts": [],
      "isFixedGasLimit": false
    },
    {
      "hash": "0x196fe2378d91f671650b0c034eae7831df536e53d75a47e35c47b5cf4e675c20",
      "transactionType": "CALL",
      "contractName": null,
      "contractAddress": "0x000000000022d473030f116ddee9f6b43ac78ba3",
      "function": "approve(address,address,uint160,uint48)",
      "arguments": [
        "0x1c7D4B196Cb0C7B01d743Fbc6116a902379C7238",
        "0x1B1C77B606d13b09C84d1c7394B96b147bC03147",
        "1461501637330902918203684832716283019655932542975",
        "281474976710655"
      ],
      "transaction": {
        "from": "0x81d786b35f3ea2f39aa17cb18d9772e4ecd97206",
        "to": "0x000000000022d473030f116ddee9f6b43ac78ba3",
        "gas": "0x96a0",
        "value": "0x0",
        "input": "0x87517c450000000000000000000000001c7d4b196cb0c7b01d743fbc6116a902379c72380000000000000000000000001b1c77b606d13b09c84d1c7394b96b147bc03147000000000000000000000000ffffffffffffffffffffffffffffffffffffffff0000000000000000000000000000000000000000000000000000ffffffffffff",
        "nonce": "0x55",
        "chainId": "0xaa36a7"
      },
      "additionalContracts": [],
      "isFixedGasLimit": false
    },
    {
      "hash": "0x9bb521330878cfc41d1e8eb709de166b3fe47ae07e70c4385566f11775c246b3",
      "transactionType": "CALL",
      "contractName": null,
      "contractAddress": "0x34182d56d905a195524a8f1813180c134687ca34",
      "function": "approve(address,uint256)",
      "arguments": [
        "0x000000000022D473030F116dDEE9F6B43aC78BA3",
        "115792089237316195423570985008687907853269984665640564039457584007913129639935"
      ],
      "transaction": {
        "from": "0x81d786b35f3ea2f39aa17cb18d9772e4ecd97206",
        "to": "0x34182d56d905a195524a8f1813180c134687ca34",
        "gas": "0xb494",
        "value": "0x0",
        "input": "0x095ea7b3000000000000000000000000000000000022d473030f116ddee9f6b43ac78ba3ffffffffffffffffffffffffffffffffffffffffffffffffffffffffffffffff",
        "nonce": "0x56",
        "chainId": "0xaa36a7"
      },
      "additionalContracts": [],
      "isFixedGasLimit": false
    },
    {
      "hash": "0x683141b8318ff22a756823aa189866eff76d60a700b042959194acbc48e5044f",
      "transactionType": "CALL",
      "contractName": null,
      "contractAddress": "0x000000000022d473030f116ddee9f6b43ac78ba3",
      "function": "approve(address,address,uint160,uint48)",
      "arguments": [
        "0x34182d56d905a195524a8F1813180C134687ca34",
        "0x1B1C77B606d13b09C84d1c7394B96b147bC03147",
        "1461501637330902918203684832716283019655932542975",
        "281474976710655"
      ],
      "transaction": {
        "from": "0x81d786b35f3ea2f39aa17cb18d9772e4ecd97206",
        "to": "0x000000000022d473030f116ddee9f6b43ac78ba3",
        "gas": "0x96a0",
        "value": "0x0",
        "input": "0x87517c4500000000000000000000000034182d56d905a195524a8f1813180c134687ca340000000000000000000000001b1c77b606d13b09c84d1c7394b96b147bc03147000000000000000000000000ffffffffffffffffffffffffffffffffffffffff0000000000000000000000000000000000000000000000000000ffffffffffff",
        "nonce": "0x57",
        "chainId": "0xaa36a7"
      },
      "additionalContracts": [],
      "isFixedGasLimit": false
    },
    {
      "hash": "0x81e0bc6c2997cb3819828712bef5e43467724fca0bc6a623ff8bed57a7743a42",
      "transactionType": "CALL",
      "contractName": "PositionManager",
      "contractAddress": "0x1b1c77b606d13b09c84d1c7394b96b147bc03147",
      "function": "modifyLiquidities(bytes,uint256)",
      "arguments": [
        "0x000000000000000000000000000000000000000000000000000000000000004000000000000000000000000000000000000000000000000000000000000000800000000000000000000000000000000000000000000000000000000000000002021100000000000000000000000000000000000000000000000000000000000000000000000000000000000000000000000000000000000000000000000000020000000000000000000000000000000000000000000000000000000000000040000000000000000000000000000000000000000000000000000000000000020000000000000000000000000000000000000000000000000000000000000001a00000000000000000000000001c7d4b196cb0c7b01d743fbc6116a902379c723800000000000000000000000034182d56d905a195524a8f1813180c134687ca340000000000000000000000000000000000000000000000000000000000000bb8000000000000000000000000000000000000000000000000000000000000003c000000000000000000000000a3ec8bf389cbfb9f74412e5c320eb84c5865c040fffffffffffffffffffffffffffffffffffffffffffffffffffffffffffffda8000000000000000000000000000000000000000000000000000000000000025800000000000000000000000000000000000000000000000000000000000f7d5400000000000000000000000000000000000000000000000000000000000075310000000000000000000000000000000000000000000000000000000005f5e1010000000000000000000000001804c8ab1f12e6bbf3894d4083f33e07309d1f380000000000000000000000000000000000000000000000000000000000000180000000000000000000000000000000000000000000000000000000000000000000000000000000000000000000000000000000000000000000000000000000400000000000000000000000001c7d4b196cb0c7b01d743fbc6116a902379c723800000000000000000000000034182d56d905a195524a8f1813180c134687ca34",
        "1731740340"
      ],
      "transaction": {
        "from": "0x81d786b35f3ea2f39aa17cb18d9772e4ecd97206",
        "to": "0x1b1c77b606d13b09c84d1c7394b96b147bc03147",
        "gas": "0x5452b",
        "value": "0x0",
        "input": "0xdd46508f000000000000000000000000000000000000000000000000000000000000004000000000000000000000000000000000000000000000000000000000673842b40000000000000000000000000000000000000000000000000000000000000300000000000000000000000000000000000000000000000000000000000000004000000000000000000000000000000000000000000000000000000000000000800000000000000000000000000000000000000000000000000000000000000002021100000000000000000000000000000000000000000000000000000000000000000000000000000000000000000000000000000000000000000000000000020000000000000000000000000000000000000000000000000000000000000040000000000000000000000000000000000000000000000000000000000000020000000000000000000000000000000000000000000000000000000000000001a00000000000000000000000001c7d4b196cb0c7b01d743fbc6116a902379c723800000000000000000000000034182d56d905a195524a8f1813180c134687ca340000000000000000000000000000000000000000000000000000000000000bb8000000000000000000000000000000000000000000000000000000000000003c000000000000000000000000a3ec8bf389cbfb9f74412e5c320eb84c5865c040fffffffffffffffffffffffffffffffffffffffffffffffffffffffffffffda8000000000000000000000000000000000000000000000000000000000000025800000000000000000000000000000000000000000000000000000000000f7d5400000000000000000000000000000000000000000000000000000000000075310000000000000000000000000000000000000000000000000000000005f5e1010000000000000000000000001804c8ab1f12e6bbf3894d4083f33e07309d1f380000000000000000000000000000000000000000000000000000000000000180000000000000000000000000000000000000000000000000000000000000000000000000000000000000000000000000000000000000000000000000000000400000000000000000000000001c7d4b196cb0c7b01d743fbc6116a902379c723800000000000000000000000034182d56d905a195524a8f1813180c134687ca34",
        "nonce": "0x58",
        "chainId": "0xaa36a7"
      },
      "additionalContracts": [],
      "isFixedGasLimit": false
    }
  ],
  "receipts": [
    {
      "status": "0x1",
      "cumulativeGasUsed": "0x1105b95",
      "logs": [
        {
          "address": "0x1c7d4b196cb0c7b01d743fbc6116a902379c7238",
          "topics": [
            "0x8c5be1e5ebec7d5bd14f71427d1e84f3dd0314c0f7b2291e5b200ac8c7c3b925",
            "0x00000000000000000000000081d786b35f3ea2f39aa17cb18d9772e4ecd97206",
            "0x000000000000000000000000000000000022d473030f116ddee9f6b43ac78ba3"
          ],
          "data": "0xffffffffffffffffffffffffffffffffffffffffffffffffffffffffffffffff",
          "blockHash": "0xe82243dfb27ad4bc01d9e5516b3ec5b4c6ac11c529fdf77bde7c4663b8fc4f71",
          "blockNumber": "0x6c246b",
          "blockTimestamp": "0x6738429c",
          "transactionHash": "0xb1895ada64f034e204f01c1ccbd2f70f10ba3944cb7a559a20f3d45e752a1933",
          "transactionIndex": "0x47",
          "logIndex": "0x6e",
          "removed": false
        }
      ],
      "logsBloom": "0x00000000000000000000000000000000000000000000000000000000000200000000000000000000000000000000000000000000800000000000000000200000000000000000000200004000000000800000000000000800000000000000000000000000000000000000000000000000000000000000000000000000000000000000000000100000000000000000000000000000000000000000000000000000020000000000000000000000000000000000000000000000000000000000000000000000000000000000000000000002000000000000000000000000000000000010000000000000000010000000000000000000000000000000000000000000",
      "type": "0x2",
      "transactionHash": "0xb1895ada64f034e204f01c1ccbd2f70f10ba3944cb7a559a20f3d45e752a1933",
      "transactionIndex": "0x47",
      "blockHash": "0xe82243dfb27ad4bc01d9e5516b3ec5b4c6ac11c529fdf77bde7c4663b8fc4f71",
      "blockNumber": "0x6c246b",
      "gasUsed": "0x96e1",
      "effectiveGasPrice": "0x1187b102",
      "from": "0x81d786b35f3ea2f39aa17cb18d9772e4ecd97206",
      "to": "0x1c7d4b196cb0c7b01d743fbc6116a902379c7238",
      "contractAddress": null
    },
    {
      "status": "0x1",
      "cumulativeGasUsed": "0x110c8a3",
      "logs": [
        {
          "address": "0x000000000022d473030f116ddee9f6b43ac78ba3",
          "topics": [
            "0xda9fa7c1b00402c17d0161b249b1ab8bbec047c5a52207b9c112deffd817036b",
            "0x00000000000000000000000081d786b35f3ea2f39aa17cb18d9772e4ecd97206",
            "0x0000000000000000000000001c7d4b196cb0c7b01d743fbc6116a902379c7238",
            "0x0000000000000000000000001b1c77b606d13b09c84d1c7394b96b147bc03147"
          ],
          "data": "0x000000000000000000000000ffffffffffffffffffffffffffffffffffffffff0000000000000000000000000000000000000000000000000000ffffffffffff",
          "blockHash": "0xe82243dfb27ad4bc01d9e5516b3ec5b4c6ac11c529fdf77bde7c4663b8fc4f71",
          "blockNumber": "0x6c246b",
          "blockTimestamp": "0x6738429c",
          "transactionHash": "0x196fe2378d91f671650b0c034eae7831df536e53d75a47e35c47b5cf4e675c20",
          "transactionIndex": "0x48",
          "logIndex": "0x6f",
          "removed": false
        }
      ],
      "logsBloom": "0x00010000000000000000000000000000000000000000000000000000000000000000000000000040000000000000000000000000000004000000000000080000100000000000000200000000000000800000000000000000000000000000000000000000000000000000000000000000000000000000000000000000000000000020000000000000000000000000000000000000000000000000000000000000000000000000000000000000000000000000008000000000000000080020000000000000000000000000000000000002000000000000000040000000000000000000000000000000000000000000000000800000000000000000000000000400",
      "type": "0x2",
      "transactionHash": "0x196fe2378d91f671650b0c034eae7831df536e53d75a47e35c47b5cf4e675c20",
      "transactionIndex": "0x48",
      "blockHash": "0xe82243dfb27ad4bc01d9e5516b3ec5b4c6ac11c529fdf77bde7c4663b8fc4f71",
      "blockNumber": "0x6c246b",
      "gasUsed": "0x6d0e",
      "effectiveGasPrice": "0x1187b102",
      "from": "0x81d786b35f3ea2f39aa17cb18d9772e4ecd97206",
      "to": "0x000000000022d473030f116ddee9f6b43ac78ba3",
      "contractAddress": null
    },
    {
      "status": "0x1",
      "cumulativeGasUsed": "0x1120e1f",
      "logs": [
        {
          "address": "0x34182d56d905a195524a8f1813180c134687ca34",
          "topics": [
            "0x8c5be1e5ebec7d5bd14f71427d1e84f3dd0314c0f7b2291e5b200ac8c7c3b925",
            "0x00000000000000000000000081d786b35f3ea2f39aa17cb18d9772e4ecd97206",
            "0x000000000000000000000000000000000022d473030f116ddee9f6b43ac78ba3"
          ],
          "data": "0xffffffffffffffffffffffffffffffffffffffffffffffffffffffffffffffff",
          "blockHash": "0xe82243dfb27ad4bc01d9e5516b3ec5b4c6ac11c529fdf77bde7c4663b8fc4f71",
          "blockNumber": "0x6c246b",
          "blockTimestamp": "0x6738429c",
          "transactionHash": "0x9bb521330878cfc41d1e8eb709de166b3fe47ae07e70c4385566f11775c246b3",
          "transactionIndex": "0x4a",
          "logIndex": "0x71",
          "removed": false
        }
      ],
      "logsBloom": "0x00000000000000000000000000000000000000000000000000000000000000000000000000000000000000000000000000000000800000000000000000200000000000000000000200004000000000800000000000000800000000000000000000000000000000000000000008000000000000000000000000000000000000000000000000000000000000000000000000000000000000000000000000000000020000000000000000000000000000000000000200000000000000000000000000000000000000000000000000000002000000000000000000000000000080000010000000000000000000000000000000000000000000000000000000000000",
      "type": "0x2",
      "transactionHash": "0x9bb521330878cfc41d1e8eb709de166b3fe47ae07e70c4385566f11775c246b3",
      "transactionIndex": "0x4a",
      "blockHash": "0xe82243dfb27ad4bc01d9e5516b3ec5b4c6ac11c529fdf77bde7c4663b8fc4f71",
      "blockNumber": "0x6c246b",
      "gasUsed": "0x7b79",
      "effectiveGasPrice": "0x1187b102",
      "from": "0x81d786b35f3ea2f39aa17cb18d9772e4ecd97206",
      "to": "0x34182d56d905a195524a8f1813180c134687ca34",
      "contractAddress": null
    },
    {
      "status": "0x1",
      "cumulativeGasUsed": "0x113a514",
      "logs": [
        {
          "address": "0x000000000022d473030f116ddee9f6b43ac78ba3",
          "topics": [
            "0xda9fa7c1b00402c17d0161b249b1ab8bbec047c5a52207b9c112deffd817036b",
            "0x00000000000000000000000081d786b35f3ea2f39aa17cb18d9772e4ecd97206",
            "0x00000000000000000000000034182d56d905a195524a8f1813180c134687ca34",
            "0x0000000000000000000000001b1c77b606d13b09c84d1c7394b96b147bc03147"
          ],
          "data": "0x000000000000000000000000ffffffffffffffffffffffffffffffffffffffff0000000000000000000000000000000000000000000000000000ffffffffffff",
          "blockHash": "0xe82243dfb27ad4bc01d9e5516b3ec5b4c6ac11c529fdf77bde7c4663b8fc4f71",
          "blockNumber": "0x6c246b",
          "blockTimestamp": "0x6738429c",
          "transactionHash": "0x683141b8318ff22a756823aa189866eff76d60a700b042959194acbc48e5044f",
          "transactionIndex": "0x4c",
          "logIndex": "0x73",
          "removed": false
        }
      ],
      "logsBloom": "0x00010000000000000000000000000000000000000000000020000000000000000000800000000040000000000000000000000000000000000000000000080000000000000000000200000000000000800000000000000000000000000000000000000000000000000000000000000000000000000000000000000000000000000020000000000000000000000000000000000000000000000000000000000000000040000000000000000000000000000000000000000000000000080020000000000000000000000000000000000002000000000000000040000000000000000000000000000000000000000000000000800000000000000000000000000400",
      "type": "0x2",
      "transactionHash": "0x683141b8318ff22a756823aa189866eff76d60a700b042959194acbc48e5044f",
      "transactionIndex": "0x4c",
      "blockHash": "0xe82243dfb27ad4bc01d9e5516b3ec5b4c6ac11c529fdf77bde7c4663b8fc4f71",
      "blockNumber": "0x6c246b",
      "gasUsed": "0x6d0e",
      "effectiveGasPrice": "0x1187b102",
      "from": "0x81d786b35f3ea2f39aa17cb18d9772e4ecd97206",
      "to": "0x000000000022d473030f116ddee9f6b43ac78ba3",
      "contractAddress": null
    },
    {
      "status": "0x1",
      "cumulativeGasUsed": "0x11775db",
      "logs": [
        {
          "address": "0x1b1c77b606d13b09c84d1c7394b96b147bc03147",
          "topics": [
            "0xddf252ad1be2c89b69c2b068fc378daa952ba7f163c4a11628f55a4df523b3ef",
            "0x0000000000000000000000000000000000000000000000000000000000000000",
            "0x0000000000000000000000001804c8ab1f12e6bbf3894d4083f33e07309d1f38",
            "0x000000000000000000000000000000000000000000000000000000000000003a"
          ],
          "data": "0x",
          "blockHash": "0xe82243dfb27ad4bc01d9e5516b3ec5b4c6ac11c529fdf77bde7c4663b8fc4f71",
          "blockNumber": "0x6c246b",
          "blockTimestamp": "0x6738429c",
          "transactionHash": "0x81e0bc6c2997cb3819828712bef5e43467724fca0bc6a623ff8bed57a7743a42",
          "transactionIndex": "0x4d",
          "logIndex": "0x74",
          "removed": false
        },
        {
          "address": "0x8c4bcbe6b9ef47855f97e675296fa3f6fafa5f1a",
          "topics": [
            "0xf208f4912782fd25c7f114ca3723a2d5dd6f3bcc3ac8db5af63baa85f711d5ec",
            "0x650a8163af9666ab8077fbe00cc3bf8d82e0e3631874917ec8cbd3ebe512f2cb",
            "0x0000000000000000000000001b1c77b606d13b09c84d1c7394b96b147bc03147"
          ],
          "data": "0xfffffffffffffffffffffffffffffffffffffffffffffffffffffffffffffda8000000000000000000000000000000000000000000000000000000000000025800000000000000000000000000000000000000000000000000000000000f7d54000000000000000000000000000000000000000000000000000000000000003a",
          "blockHash": "0xe82243dfb27ad4bc01d9e5516b3ec5b4c6ac11c529fdf77bde7c4663b8fc4f71",
          "blockNumber": "0x6c246b",
          "blockTimestamp": "0x6738429c",
          "transactionHash": "0x81e0bc6c2997cb3819828712bef5e43467724fca0bc6a623ff8bed57a7743a42",
          "transactionIndex": "0x4d",
          "logIndex": "0x75",
          "removed": false
        },
        {
          "address": "0x1c7d4b196cb0c7b01d743fbc6116a902379c7238",
          "topics": [
            "0xddf252ad1be2c89b69c2b068fc378daa952ba7f163c4a11628f55a4df523b3ef",
            "0x00000000000000000000000081d786b35f3ea2f39aa17cb18d9772e4ecd97206",
            "0x0000000000000000000000008c4bcbe6b9ef47855f97e675296fa3f6fafa5f1a"
          ],
          "data": "0x0000000000000000000000000000000000000000000000000000000000007530",
          "blockHash": "0xe82243dfb27ad4bc01d9e5516b3ec5b4c6ac11c529fdf77bde7c4663b8fc4f71",
          "blockNumber": "0x6c246b",
          "blockTimestamp": "0x6738429c",
          "transactionHash": "0x81e0bc6c2997cb3819828712bef5e43467724fca0bc6a623ff8bed57a7743a42",
          "transactionIndex": "0x4d",
          "logIndex": "0x76",
          "removed": false
        },
        {
          "address": "0x34182d56d905a195524a8f1813180c134687ca34",
          "topics": [
            "0xddf252ad1be2c89b69c2b068fc378daa952ba7f163c4a11628f55a4df523b3ef",
            "0x00000000000000000000000081d786b35f3ea2f39aa17cb18d9772e4ecd97206",
            "0x0000000000000000000000008c4bcbe6b9ef47855f97e675296fa3f6fafa5f1a"
          ],
          "data": "0x0000000000000000000000000000000000000000000000000000000000007530",
          "blockHash": "0xe82243dfb27ad4bc01d9e5516b3ec5b4c6ac11c529fdf77bde7c4663b8fc4f71",
          "blockNumber": "0x6c246b",
          "blockTimestamp": "0x6738429c",
          "transactionHash": "0x81e0bc6c2997cb3819828712bef5e43467724fca0bc6a623ff8bed57a7743a42",
          "transactionIndex": "0x4d",
          "logIndex": "0x77",
          "removed": false
        }
      ],
      "logsBloom": "0x000000000000000000000000000000000000000000000000000000000002000800001200000000400000000020000000000000000000000000000000000000000000000000000002000000080000008200020000000000000008000000000000000000000200001000010000090008000000000000000000000000100000000000000000011000001000040000000000000000800000000000000000000000000000040000000000000000000200000000000002000000000000000000200000000000020000040000000000008000020040200000000000000000000000a0000000000000000000000010000000000004800000000000000000000000000000",
      "type": "0x2",
      "transactionHash": "0x81e0bc6c2997cb3819828712bef5e43467724fca0bc6a623ff8bed57a7743a42",
      "transactionIndex": "0x4d",
      "blockHash": "0xe82243dfb27ad4bc01d9e5516b3ec5b4c6ac11c529fdf77bde7c4663b8fc4f71",
      "blockNumber": "0x6c246b",
      "gasUsed": "0x3d0c7",
      "effectiveGasPrice": "0x1187b102",
      "from": "0x81d786b35f3ea2f39aa17cb18d9772e4ecd97206",
      "to": "0x1b1c77b606d13b09c84d1c7394b96b147bc03147",
      "contractAddress": null
    }
  ],
  "libraries": [],
  "pending": [],
  "returns": {},
  "timestamp": 1731740317,
  "chain": 11155111,
  "commit": "00d419b"
}