{
  "transactions": [
    {
      "hash": "0x8a2fb80280c24a163fcd818ab6a7188de4c3e23bec85a883ef9ac35197c72719",
      "transactionType": "CALL",
      "contractName": null,
      "contractAddress": "0x1c7d4b196cb0c7b01d743fbc6116a902379c7238",
      "function": "approve(address,uint256)",
      "arguments": [
        "0x000000000022D473030F116dDEE9F6B43aC78BA3",
        "115792089237316195423570985008687907853269984665640564039457584007913129639935"
      ],
      "transaction": {
        "from": "0x81d786b35f3ea2f39aa17cb18d9772e4ecd97206",
        "to": "0x1c7d4b196cb0c7b01d743fbc6116a902379c7238",
        "gas": "0xdca8",
        "value": "0x0",
        "input": "0x095ea7b3000000000000000000000000000000000022d473030f116ddee9f6b43ac78ba3ffffffffffffffffffffffffffffffffffffffffffffffffffffffffffffffff",
        "nonce": "0x96",
        "chainId": "0xaa36a7"
      },
      "additionalContracts": [],
      "isFixedGasLimit": false
    },
    {
      "hash": "0xd2984b04cbaf8622f5a7e767eebd7a5c997056477dcfe7626f7ad60a02b9bad6",
      "transactionType": "CALL",
      "contractName": null,
      "contractAddress": "0x000000000022d473030f116ddee9f6b43ac78ba3",
      "function": "approve(address,address,uint160,uint48)",
      "arguments": [
        "0x1c7D4B196Cb0C7B01d743Fbc6116a902379C7238",
        "0x1B1C77B606d13b09C84d1c7394B96b147bC03147",
        "1461501637330902918203684832716283019655932542975",
        "281474976710655"
      ],
      "transaction": {
        "from": "0x81d786b35f3ea2f39aa17cb18d9772e4ecd97206",
        "to": "0x000000000022d473030f116ddee9f6b43ac78ba3",
        "gas": "0x96a0",
        "value": "0x0",
        "input": "0x87517c450000000000000000000000001c7d4b196cb0c7b01d743fbc6116a902379c72380000000000000000000000001b1c77b606d13b09c84d1c7394b96b147bc03147000000000000000000000000ffffffffffffffffffffffffffffffffffffffff0000000000000000000000000000000000000000000000000000ffffffffffff",
        "nonce": "0x97",
        "chainId": "0xaa36a7"
      },
      "additionalContracts": [],
      "isFixedGasLimit": false
    },
    {
      "hash": "0xa03b8df32aa51b077d3148751e5b04a1e3b5da31afb7aaca4876f696459c88d0",
      "transactionType": "CALL",
      "contractName": null,
      "contractAddress": "0x34182d56d905a195524a8f1813180c134687ca34",
      "function": "approve(address,uint256)",
      "arguments": [
        "0x000000000022D473030F116dDEE9F6B43aC78BA3",
        "115792089237316195423570985008687907853269984665640564039457584007913129639935"
      ],
      "transaction": {
        "from": "0x81d786b35f3ea2f39aa17cb18d9772e4ecd97206",
        "to": "0x34182d56d905a195524a8f1813180c134687ca34",
        "gas": "0xb494",
        "value": "0x0",
        "input": "0x095ea7b3000000000000000000000000000000000022d473030f116ddee9f6b43ac78ba3ffffffffffffffffffffffffffffffffffffffffffffffffffffffffffffffff",
        "nonce": "0x98",
        "chainId": "0xaa36a7"
      },
      "additionalContracts": [],
      "isFixedGasLimit": false
    },
    {
      "hash": "0xfedd5e3e1fafb3386c52d4ef3ce05de26e05fca707a30a7847c971a7084dd1b3",
      "transactionType": "CALL",
      "contractName": null,
      "contractAddress": "0x000000000022d473030f116ddee9f6b43ac78ba3",
      "function": "approve(address,address,uint160,uint48)",
      "arguments": [
        "0x34182d56d905a195524a8F1813180C134687ca34",
        "0x1B1C77B606d13b09C84d1c7394B96b147bC03147",
        "1461501637330902918203684832716283019655932542975",
        "281474976710655"
      ],
      "transaction": {
        "from": "0x81d786b35f3ea2f39aa17cb18d9772e4ecd97206",
        "to": "0x000000000022d473030f116ddee9f6b43ac78ba3",
        "gas": "0x96a0",
        "value": "0x0",
        "input": "0x87517c4500000000000000000000000034182d56d905a195524a8f1813180c134687ca340000000000000000000000001b1c77b606d13b09c84d1c7394b96b147bc03147000000000000000000000000ffffffffffffffffffffffffffffffffffffffff0000000000000000000000000000000000000000000000000000ffffffffffff",
        "nonce": "0x99",
        "chainId": "0xaa36a7"
      },
      "additionalContracts": [],
      "isFixedGasLimit": false
    },
    {
      "hash": "0xbbf6733542db8b6bcdeeb25a5750a40e0f92ac56a9f0a33eb2bc37fc6e361968",
      "transactionType": "CALL",
      "contractName": "PositionManager",
      "contractAddress": "0x1b1c77b606d13b09c84d1c7394b96b147bc03147",
      "function": "modifyLiquidities(bytes,uint256)",
      "arguments": [
        "0x000000000000000000000000000000000000000000000000000000000000004000000000000000000000000000000000000000000000000000000000000000800000000000000000000000000000000000000000000000000000000000000002021100000000000000000000000000000000000000000000000000000000000000000000000000000000000000000000000000000000000000000000000000020000000000000000000000000000000000000000000000000000000000000040000000000000000000000000000000000000000000000000000000000000020000000000000000000000000000000000000000000000000000000000000001a00000000000000000000000001c7d4b196cb0c7b01d743fbc6116a902379c723800000000000000000000000034182d56d905a195524a8f1813180c134687ca340000000000000000000000000000000000000000000000000000000000000bb8000000000000000000000000000000000000000000000000000000000000003c00000000000000000000000081d0634175d1c75e5da5cbff65cd486607adc040fffffffffffffffffffffffffffffffffffffffffffffffffffffffffffffda80000000000000000000000000000000000000000000000000000000000000258000000000000000000000000000000000000000000000000000000025d0fc8160000000000000000000000000000000000000000000000000000000011e1a301000000000000000000000000000000000000000000000000000000e8d4a510010000000000000000000000001804c8ab1f12e6bbf3894d4083f33e07309d1f380000000000000000000000000000000000000000000000000000000000000180000000000000000000000000000000000000000000000000000000000000000000000000000000000000000000000000000000000000000000000000000000400000000000000000000000001c7d4b196cb0c7b01d743fbc6116a902379c723800000000000000000000000034182d56d905a195524a8f1813180c134687ca34",
        "1731754944"
      ],
      "transaction": {
        "from": "0x81d786b35f3ea2f39aa17cb18d9772e4ecd97206",
        "to": "0x1b1c77b606d13b09c84d1c7394b96b147bc03147",
        "gas": "0x594e0",
        "value": "0x0",
        "input": "0xdd46508f00000000000000000000000000000000000000000000000000000000000000400000000000000000000000000000000000000000000000000000000067387bc00000000000000000000000000000000000000000000000000000000000000300000000000000000000000000000000000000000000000000000000000000004000000000000000000000000000000000000000000000000000000000000000800000000000000000000000000000000000000000000000000000000000000002021100000000000000000000000000000000000000000000000000000000000000000000000000000000000000000000000000000000000000000000000000020000000000000000000000000000000000000000000000000000000000000040000000000000000000000000000000000000000000000000000000000000020000000000000000000000000000000000000000000000000000000000000001a00000000000000000000000001c7d4b196cb0c7b01d743fbc6116a902379c723800000000000000000000000034182d56d905a195524a8f1813180c134687ca340000000000000000000000000000000000000000000000000000000000000bb8000000000000000000000000000000000000000000000000000000000000003c00000000000000000000000081d0634175d1c75e5da5cbff65cd486607adc040fffffffffffffffffffffffffffffffffffffffffffffffffffffffffffffda80000000000000000000000000000000000000000000000000000000000000258000000000000000000000000000000000000000000000000000000025d0fc8160000000000000000000000000000000000000000000000000000000011e1a301000000000000000000000000000000000000000000000000000000e8d4a510010000000000000000000000001804c8ab1f12e6bbf3894d4083f33e07309d1f380000000000000000000000000000000000000000000000000000000000000180000000000000000000000000000000000000000000000000000000000000000000000000000000000000000000000000000000000000000000000000000000400000000000000000000000001c7d4b196cb0c7b01d743fbc6116a902379c723800000000000000000000000034182d56d905a195524a8f1813180c134687ca34",
        "nonce": "0x9a",
        "chainId": "0xaa36a7"
      },
      "additionalContracts": [],
      "isFixedGasLimit": false
    }
  ],
  "receipts": [
    {
      "status": "0x1",
      "cumulativeGasUsed": "0xc71e84",
      "logs": [
        {
          "address": "0x1c7d4b196cb0c7b01d743fbc6116a902379c7238",
          "topics": [
            "0x8c5be1e5ebec7d5bd14f71427d1e84f3dd0314c0f7b2291e5b200ac8c7c3b925",
            "0x00000000000000000000000081d786b35f3ea2f39aa17cb18d9772e4ecd97206",
            "0x000000000000000000000000000000000022d473030f116ddee9f6b43ac78ba3"
          ],
          "data": "0xffffffffffffffffffffffffffffffffffffffffffffffffffffffffffffffff",
          "blockHash": "0x2d34f97b32fd8b9e8c3b2c7415cc194e712f37e89abd9d85e690e19106c620c2",
          "blockNumber": "0x6c28e3",
          "blockTimestamp": "0x67387ba8",
          "transactionHash": "0x8a2fb80280c24a163fcd818ab6a7188de4c3e23bec85a883ef9ac35197c72719",
          "transactionIndex": "0x3c",
          "logIndex": "0x5f",
          "removed": false
        }
      ],
      "logsBloom": "0x00000000000000000000000000000000000000000000000000000000000200000000000000000000000000000000000000000000800000000000000000200000000000000000000200004000000000800000000000000800000000000000000000000000000000000000000000000000000000000000000000000000000000000000000000100000000000000000000000000000000000000000000000000000020000000000000000000000000000000000000000000000000000000000000000000000000000000000000000000002000000000000000000000000000000000010000000000000000010000000000000000000000000000000000000000000",
      "type": "0x2",
      "transactionHash": "0x8a2fb80280c24a163fcd818ab6a7188de4c3e23bec85a883ef9ac35197c72719",
      "transactionIndex": "0x3c",
      "blockHash": "0x2d34f97b32fd8b9e8c3b2c7415cc194e712f37e89abd9d85e690e19106c620c2",
      "blockNumber": "0x6c28e3",
      "gasUsed": "0x96e1",
      "effectiveGasPrice": "0x2100976c",
      "from": "0x81d786b35f3ea2f39aa17cb18d9772e4ecd97206",
      "to": "0x1c7d4b196cb0c7b01d743fbc6116a902379c7238",
      "contractAddress": null
    },
    {
      "status": "0x1",
      "cumulativeGasUsed": "0xc78b92",
      "logs": [
        {
          "address": "0x000000000022d473030f116ddee9f6b43ac78ba3",
          "topics": [
            "0xda9fa7c1b00402c17d0161b249b1ab8bbec047c5a52207b9c112deffd817036b",
            "0x00000000000000000000000081d786b35f3ea2f39aa17cb18d9772e4ecd97206",
            "0x0000000000000000000000001c7d4b196cb0c7b01d743fbc6116a902379c7238",
            "0x0000000000000000000000001b1c77b606d13b09c84d1c7394b96b147bc03147"
          ],
          "data": "0x000000000000000000000000ffffffffffffffffffffffffffffffffffffffff0000000000000000000000000000000000000000000000000000ffffffffffff",
          "blockHash": "0x2d34f97b32fd8b9e8c3b2c7415cc194e712f37e89abd9d85e690e19106c620c2",
          "blockNumber": "0x6c28e3",
          "blockTimestamp": "0x67387ba8",
          "transactionHash": "0xd2984b04cbaf8622f5a7e767eebd7a5c997056477dcfe7626f7ad60a02b9bad6",
          "transactionIndex": "0x3d",
          "logIndex": "0x60",
          "removed": false
        }
      ],
      "logsBloom": "0x00010000000000000000000000000000000000000000000000000000000000000000000000000040000000000000000000000000000004000000000000080000100000000000000200000000000000800000000000000000000000000000000000000000000000000000000000000000000000000000000000000000000000000020000000000000000000000000000000000000000000000000000000000000000000000000000000000000000000000000008000000000000000080020000000000000000000000000000000000002000000000000000040000000000000000000000000000000000000000000000000800000000000000000000000000400",
      "type": "0x2",
      "transactionHash": "0xd2984b04cbaf8622f5a7e767eebd7a5c997056477dcfe7626f7ad60a02b9bad6",
      "transactionIndex": "0x3d",
      "blockHash": "0x2d34f97b32fd8b9e8c3b2c7415cc194e712f37e89abd9d85e690e19106c620c2",
      "blockNumber": "0x6c28e3",
      "gasUsed": "0x6d0e",
      "effectiveGasPrice": "0x2100976c",
      "from": "0x81d786b35f3ea2f39aa17cb18d9772e4ecd97206",
      "to": "0x000000000022d473030f116ddee9f6b43ac78ba3",
      "contractAddress": null
    },
    {
      "status": "0x1",
      "cumulativeGasUsed": "0xc8070b",
      "logs": [
        {
          "address": "0x34182d56d905a195524a8f1813180c134687ca34",
          "topics": [
            "0x8c5be1e5ebec7d5bd14f71427d1e84f3dd0314c0f7b2291e5b200ac8c7c3b925",
            "0x00000000000000000000000081d786b35f3ea2f39aa17cb18d9772e4ecd97206",
            "0x000000000000000000000000000000000022d473030f116ddee9f6b43ac78ba3"
          ],
          "data": "0xffffffffffffffffffffffffffffffffffffffffffffffffffffffffffffffff",
          "blockHash": "0x2d34f97b32fd8b9e8c3b2c7415cc194e712f37e89abd9d85e690e19106c620c2",
          "blockNumber": "0x6c28e3",
          "blockTimestamp": "0x67387ba8",
          "transactionHash": "0xa03b8df32aa51b077d3148751e5b04a1e3b5da31afb7aaca4876f696459c88d0",
          "transactionIndex": "0x3e",
          "logIndex": "0x61",
          "removed": false
        }
      ],
      "logsBloom": "0x00000000000000000000000000000000000000000000000000000000000000000000000000000000000000000000000000000000800000000000000000200000000000000000000200004000000000800000000000000800000000000000000000000000000000000000000008000000000000000000000000000000000000000000000000000000000000000000000000000000000000000000000000000000020000000000000000000000000000000000000200000000000000000000000000000000000000000000000000000002000000000000000000000000000080000010000000000000000000000000000000000000000000000000000000000000",
      "type": "0x2",
      "transactionHash": "0xa03b8df32aa51b077d3148751e5b04a1e3b5da31afb7aaca4876f696459c88d0",
      "transactionIndex": "0x3e",
      "blockHash": "0x2d34f97b32fd8b9e8c3b2c7415cc194e712f37e89abd9d85e690e19106c620c2",
      "blockNumber": "0x6c28e3",
      "gasUsed": "0x7b79",
      "effectiveGasPrice": "0x2100976c",
      "from": "0x81d786b35f3ea2f39aa17cb18d9772e4ecd97206",
      "to": "0x34182d56d905a195524a8f1813180c134687ca34",
      "contractAddress": null
    },
    {
      "status": "0x1",
      "cumulativeGasUsed": "0xc87419",
      "logs": [
        {
          "address": "0x000000000022d473030f116ddee9f6b43ac78ba3",
          "topics": [
            "0xda9fa7c1b00402c17d0161b249b1ab8bbec047c5a52207b9c112deffd817036b",
            "0x00000000000000000000000081d786b35f3ea2f39aa17cb18d9772e4ecd97206",
            "0x00000000000000000000000034182d56d905a195524a8f1813180c134687ca34",
            "0x0000000000000000000000001b1c77b606d13b09c84d1c7394b96b147bc03147"
          ],
          "data": "0x000000000000000000000000ffffffffffffffffffffffffffffffffffffffff0000000000000000000000000000000000000000000000000000ffffffffffff",
          "blockHash": "0x2d34f97b32fd8b9e8c3b2c7415cc194e712f37e89abd9d85e690e19106c620c2",
          "blockNumber": "0x6c28e3",
          "blockTimestamp": "0x67387ba8",
          "transactionHash": "0xfedd5e3e1fafb3386c52d4ef3ce05de26e05fca707a30a7847c971a7084dd1b3",
          "transactionIndex": "0x3f",
          "logIndex": "0x62",
          "removed": false
        }
      ],
      "logsBloom": "0x00010000000000000000000000000000000000000000000020000000000000000000800000000040000000000000000000000000000000000000000000080000000000000000000200000000000000800000000000000000000000000000000000000000000000000000000000000000000000000000000000000000000000000020000000000000000000000000000000000000000000000000000000000000000040000000000000000000000000000000000000000000000000080020000000000000000000000000000000000002000000000000000040000000000000000000000000000000000000000000000000800000000000000000000000000400",
      "type": "0x2",
      "transactionHash": "0xfedd5e3e1fafb3386c52d4ef3ce05de26e05fca707a30a7847c971a7084dd1b3",
      "transactionIndex": "0x3f",
      "blockHash": "0x2d34f97b32fd8b9e8c3b2c7415cc194e712f37e89abd9d85e690e19106c620c2",
      "blockNumber": "0x6c28e3",
      "gasUsed": "0x6d0e",
      "effectiveGasPrice": "0x2100976c",
      "from": "0x81d786b35f3ea2f39aa17cb18d9772e4ecd97206",
      "to": "0x000000000022d473030f116ddee9f6b43ac78ba3",
      "contractAddress": null
    },
    {
      "status": "0x1",
      "cumulativeGasUsed": "0xcc451c",
      "logs": [
        {
          "address": "0x1b1c77b606d13b09c84d1c7394b96b147bc03147",
          "topics": [
            "0xddf252ad1be2c89b69c2b068fc378daa952ba7f163c4a11628f55a4df523b3ef",
            "0x0000000000000000000000000000000000000000000000000000000000000000",
            "0x0000000000000000000000001804c8ab1f12e6bbf3894d4083f33e07309d1f38",
            "0x0000000000000000000000000000000000000000000000000000000000000042"
          ],
          "data": "0x",
          "blockHash": "0x2d34f97b32fd8b9e8c3b2c7415cc194e712f37e89abd9d85e690e19106c620c2",
          "blockNumber": "0x6c28e3",
          "blockTimestamp": "0x67387ba8",
          "transactionHash": "0xbbf6733542db8b6bcdeeb25a5750a40e0f92ac56a9f0a33eb2bc37fc6e361968",
          "transactionIndex": "0x40",
          "logIndex": "0x63",
          "removed": false
        },
        {
          "address": "0x8c4bcbe6b9ef47855f97e675296fa3f6fafa5f1a",
          "topics": [
            "0xf208f4912782fd25c7f114ca3723a2d5dd6f3bcc3ac8db5af63baa85f711d5ec",
            "0xbbb96d16d69da14cdacf4bc29935c59c5c28f4e52f0eb9b46e56e9c74a7a24f2",
            "0x0000000000000000000000001b1c77b606d13b09c84d1c7394b96b147bc03147"
          ],
          "data": "0xfffffffffffffffffffffffffffffffffffffffffffffffffffffffffffffda80000000000000000000000000000000000000000000000000000000000000258000000000000000000000000000000000000000000000000000000025d0fc8160000000000000000000000000000000000000000000000000000000000000042",
          "blockHash": "0x2d34f97b32fd8b9e8c3b2c7415cc194e712f37e89abd9d85e690e19106c620c2",
          "blockNumber": "0x6c28e3",
          "blockTimestamp": "0x67387ba8",
          "transactionHash": "0xbbf6733542db8b6bcdeeb25a5750a40e0f92ac56a9f0a33eb2bc37fc6e361968",
          "transactionIndex": "0x40",
          "logIndex": "0x64",
          "removed": false
        },
        {
          "address": "0x1c7d4b196cb0c7b01d743fbc6116a902379c7238",
          "topics": [
            "0xddf252ad1be2c89b69c2b068fc378daa952ba7f163c4a11628f55a4df523b3ef",
            "0x00000000000000000000000081d786b35f3ea2f39aa17cb18d9772e4ecd97206",
            "0x0000000000000000000000008c4bcbe6b9ef47855f97e675296fa3f6fafa5f1a"
          ],
          "data": "0x0000000000000000000000000000000000000000000000000000000011e1a300",
          "blockHash": "0x2d34f97b32fd8b9e8c3b2c7415cc194e712f37e89abd9d85e690e19106c620c2",
          "blockNumber": "0x6c28e3",
          "blockTimestamp": "0x67387ba8",
          "transactionHash": "0xbbf6733542db8b6bcdeeb25a5750a40e0f92ac56a9f0a33eb2bc37fc6e361968",
          "transactionIndex": "0x40",
          "logIndex": "0x65",
          "removed": false
        },
        {
          "address": "0x34182d56d905a195524a8f1813180c134687ca34",
          "topics": [
            "0xddf252ad1be2c89b69c2b068fc378daa952ba7f163c4a11628f55a4df523b3ef",
            "0x00000000000000000000000081d786b35f3ea2f39aa17cb18d9772e4ecd97206",
            "0x0000000000000000000000008c4bcbe6b9ef47855f97e675296fa3f6fafa5f1a"
          ],
          "data": "0x0000000000000000000000000000000000000000000000000000000011e1a300",
          "blockHash": "0x2d34f97b32fd8b9e8c3b2c7415cc194e712f37e89abd9d85e690e19106c620c2",
          "blockNumber": "0x6c28e3",
          "blockTimestamp": "0x67387ba8",
          "transactionHash": "0xbbf6733542db8b6bcdeeb25a5750a40e0f92ac56a9f0a33eb2bc37fc6e361968",
          "transactionIndex": "0x40",
          "logIndex": "0x66",
          "removed": false
        }
      ],
      "logsBloom": "0x000000000000000000000000000000000000000000000000000000000002000800000000000000400000000020000000000000000000000000000000000000000000000000000002000000080000008000000000000000000008000000000000000000000200001000010000090008000000000800000000000000100000000000000000011000001000040000000000000000000000000000000080000000000000040000000000000000000000000000000002000000000000000000200000000000020000040000000800008000020040200000000000000000000000a0000000000080000020000010000000000004800000000000000000000000000100",
      "type": "0x2",
      "transactionHash": "0xbbf6733542db8b6bcdeeb25a5750a40e0f92ac56a9f0a33eb2bc37fc6e361968",
      "transactionIndex": "0x40",
      "blockHash": "0x2d34f97b32fd8b9e8c3b2c7415cc194e712f37e89abd9d85e690e19106c620c2",
      "blockNumber": "0x6c28e3",
      "gasUsed": "0x3d103",
      "effectiveGasPrice": "0x2100976c",
      "from": "0x81d786b35f3ea2f39aa17cb18d9772e4ecd97206",
      "to": "0x1b1c77b606d13b09c84d1c7394b96b147bc03147",
      "contractAddress": null
    }
  ],
  "libraries": [],
  "pending": [],
  "returns": {},
  "timestamp": 1731754921,
  "chain": 11155111,
  "commit": "ca954c4"
}