{
  "transactions": [
    {
      "hash": "0x30b035e33b79bf5d669ef9d4c8fe43c7818e2bab131f50b3798b29941b3f755a",
      "transactionType": "CALL",
      "contractName": null,
      "contractAddress": "0x1c7d4b196cb0c7b01d743fbc6116a902379c7238",
      "function": "approve(address,uint256)",
      "arguments": [
        "0x000000000022D473030F116dDEE9F6B43aC78BA3",
        "115792089237316195423570985008687907853269984665640564039457584007913129639935"
      ],
      "transaction": {
        "from": "0x81d786b35f3ea2f39aa17cb18d9772e4ecd97206",
        "to": "0x1c7d4b196cb0c7b01d743fbc6116a902379c7238",
        "gas": "0xdca8",
        "value": "0x0",
        "input": "0x095ea7b3000000000000000000000000000000000022d473030f116ddee9f6b43ac78ba3ffffffffffffffffffffffffffffffffffffffffffffffffffffffffffffffff",
        "nonce": "0x36",
        "chainId": "0xaa36a7"
      },
      "additionalContracts": [],
      "isFixedGasLimit": false
    },
    {
      "hash": "0x57b684d67dde1fb22d9943b53697fcdc1006e5ac2bb7562b230d2f078ff8c77b",
      "transactionType": "CALL",
      "contractName": null,
      "contractAddress": "0x000000000022d473030f116ddee9f6b43ac78ba3",
      "function": "approve(address,address,uint160,uint48)",
      "arguments": [
        "0x1c7D4B196Cb0C7B01d743Fbc6116a902379C7238",
        "0x1B1C77B606d13b09C84d1c7394B96b147bC03147",
        "1461501637330902918203684832716283019655932542975",
        "281474976710655"
      ],
      "transaction": {
        "from": "0x81d786b35f3ea2f39aa17cb18d9772e4ecd97206",
        "to": "0x000000000022d473030f116ddee9f6b43ac78ba3",
        "gas": "0x96a0",
        "value": "0x0",
        "input": "0x87517c450000000000000000000000001c7d4b196cb0c7b01d743fbc6116a902379c72380000000000000000000000001b1c77b606d13b09c84d1c7394b96b147bc03147000000000000000000000000ffffffffffffffffffffffffffffffffffffffff0000000000000000000000000000000000000000000000000000ffffffffffff",
        "nonce": "0x37",
        "chainId": "0xaa36a7"
      },
      "additionalContracts": [],
      "isFixedGasLimit": false
    },
    {
      "hash": "0xc1b1da1b338c14d23239b6dcbd31b770774b99541999d2e1c061fb177dcb0b7b",
      "transactionType": "CALL",
      "contractName": null,
      "contractAddress": "0x34182d56d905a195524a8f1813180c134687ca34",
      "function": "approve(address,uint256)",
      "arguments": [
        "0x000000000022D473030F116dDEE9F6B43aC78BA3",
        "115792089237316195423570985008687907853269984665640564039457584007913129639935"
      ],
      "transaction": {
        "from": "0x81d786b35f3ea2f39aa17cb18d9772e4ecd97206",
        "to": "0x34182d56d905a195524a8f1813180c134687ca34",
        "gas": "0xb494",
        "value": "0x0",
        "input": "0x095ea7b3000000000000000000000000000000000022d473030f116ddee9f6b43ac78ba3ffffffffffffffffffffffffffffffffffffffffffffffffffffffffffffffff",
        "nonce": "0x38",
        "chainId": "0xaa36a7"
      },
      "additionalContracts": [],
      "isFixedGasLimit": false
    },
    {
      "hash": "0x5aa99c4b14b48cbfd12a2d629fb4b43713baf664965f3697c7aa9aebd8f49665",
      "transactionType": "CALL",
      "contractName": null,
      "contractAddress": "0x000000000022d473030f116ddee9f6b43ac78ba3",
      "function": "approve(address,address,uint160,uint48)",
      "arguments": [
        "0x34182d56d905a195524a8F1813180C134687ca34",
        "0x1B1C77B606d13b09C84d1c7394B96b147bC03147",
        "1461501637330902918203684832716283019655932542975",
        "281474976710655"
      ],
      "transaction": {
        "from": "0x81d786b35f3ea2f39aa17cb18d9772e4ecd97206",
        "to": "0x000000000022d473030f116ddee9f6b43ac78ba3",
        "gas": "0x96a0",
        "value": "0x0",
        "input": "0x87517c4500000000000000000000000034182d56d905a195524a8f1813180c134687ca340000000000000000000000001b1c77b606d13b09c84d1c7394b96b147bc03147000000000000000000000000ffffffffffffffffffffffffffffffffffffffff0000000000000000000000000000000000000000000000000000ffffffffffff",
        "nonce": "0x39",
        "chainId": "0xaa36a7"
      },
      "additionalContracts": [],
      "isFixedGasLimit": false
    },
    {
      "hash": "0xd28d94bedff8c40b6e26d63e02907af4f4749760ad1bcbe9a34a94335b09f919",
      "transactionType": "CALL",
      "contractName": "PositionManager",
      "contractAddress": "0x1b1c77b606d13b09c84d1c7394b96b147bc03147",
      "function": "modifyLiquidities(bytes,uint256)",
      "arguments": [
        "0x000000000000000000000000000000000000000000000000000000000000004000000000000000000000000000000000000000000000000000000000000000800000000000000000000000000000000000000000000000000000000000000002021100000000000000000000000000000000000000000000000000000000000000000000000000000000000000000000000000000000000000000000000000020000000000000000000000000000000000000000000000000000000000000040000000000000000000000000000000000000000000000000000000000000020000000000000000000000000000000000000000000000000000000000000001a00000000000000000000000001c7d4b196cb0c7b01d743fbc6116a902379c723800000000000000000000000034182d56d905a195524a8f1813180c134687ca340000000000000000000000000000000000000000000000000000000000000bb8000000000000000000000000000000000000000000000000000000000000003c00000000000000000000000096bf4e2fc2154cf3f48f789a469dcd1dcff80040fffffffffffffffffffffffffffffffffffffffffffffffffffffffffffffda8000000000000000000000000000000000000000000000000000000000000025800000000000000000000000000000000000000000000000000000000000f7d5400000000000000000000000000000000000000000000000000000000000075310000000000000000000000000000000000000000000000000000000005f5e1010000000000000000000000001804c8ab1f12e6bbf3894d4083f33e07309d1f380000000000000000000000000000000000000000000000000000000000000180000000000000000000000000000000000000000000000000000000000000000000000000000000000000000000000000000000000000000000000000000000400000000000000000000000001c7d4b196cb0c7b01d743fbc6116a902379c723800000000000000000000000034182d56d905a195524a8f1813180c134687ca34",
        "1731732396"
      ],
      "transaction": {
        "from": "0x81d786b35f3ea2f39aa17cb18d9772e4ecd97206",
        "to": "0x1b1c77b606d13b09c84d1c7394b96b147bc03147",
        "gas": "0x5a15e",
        "value": "0x0",
        "input": "0xdd46508f000000000000000000000000000000000000000000000000000000000000004000000000000000000000000000000000000000000000000000000000673823ac0000000000000000000000000000000000000000000000000000000000000300000000000000000000000000000000000000000000000000000000000000004000000000000000000000000000000000000000000000000000000000000000800000000000000000000000000000000000000000000000000000000000000002021100000000000000000000000000000000000000000000000000000000000000000000000000000000000000000000000000000000000000000000000000020000000000000000000000000000000000000000000000000000000000000040000000000000000000000000000000000000000000000000000000000000020000000000000000000000000000000000000000000000000000000000000001a00000000000000000000000001c7d4b196cb0c7b01d743fbc6116a902379c723800000000000000000000000034182d56d905a195524a8f1813180c134687ca340000000000000000000000000000000000000000000000000000000000000bb8000000000000000000000000000000000000000000000000000000000000003c00000000000000000000000096bf4e2fc2154cf3f48f789a469dcd1dcff80040fffffffffffffffffffffffffffffffffffffffffffffffffffffffffffffda8000000000000000000000000000000000000000000000000000000000000025800000000000000000000000000000000000000000000000000000000000f7d5400000000000000000000000000000000000000000000000000000000000075310000000000000000000000000000000000000000000000000000000005f5e1010000000000000000000000001804c8ab1f12e6bbf3894d4083f33e07309d1f380000000000000000000000000000000000000000000000000000000000000180000000000000000000000000000000000000000000000000000000000000000000000000000000000000000000000000000000000000000000000000000000400000000000000000000000001c7d4b196cb0c7b01d743fbc6116a902379c723800000000000000000000000034182d56d905a195524a8f1813180c134687ca34",
        "nonce": "0x3a",
        "chainId": "0xaa36a7"
      },
      "additionalContracts": [],
      "isFixedGasLimit": false
    }
  ],
  "receipts": [
    {
      "status": "0x1",
      "cumulativeGasUsed": "0x10eb5ea",
      "logs": [
        {
          "address": "0x1c7d4b196cb0c7b01d743fbc6116a902379c7238",
          "topics": [
            "0x8c5be1e5ebec7d5bd14f71427d1e84f3dd0314c0f7b2291e5b200ac8c7c3b925",
            "0x00000000000000000000000081d786b35f3ea2f39aa17cb18d9772e4ecd97206",
            "0x000000000000000000000000000000000022d473030f116ddee9f6b43ac78ba3"
          ],
          "data": "0xffffffffffffffffffffffffffffffffffffffffffffffffffffffffffffffff",
          "blockHash": "0xd2d9eed3709c31bd53f30dcc84c3182ba850b49fb236bc95ffc8cd29558a49d4",
          "blockNumber": "0x6c2204",
          "blockTimestamp": "0x67382388",
          "transactionHash": "0x30b035e33b79bf5d669ef9d4c8fe43c7818e2bab131f50b3798b29941b3f755a",
          "transactionIndex": "0x27",
          "logIndex": "0x198",
          "removed": false
        }
      ],
      "logsBloom": "0x00000000000000000000000000000000000000000000000000000000000200000000000000000000000000000000000000000000800000000000000000200000000000000000000200004000000000800000000000000800000000000000000000000000000000000000000000000000000000000000000000000000000000000000000000100000000000000000000000000000000000000000000000000000020000000000000000000000000000000000000000000000000000000000000000000000000000000000000000000002000000000000000000000000000000000010000000000000000010000000000000000000000000000000000000000000",
      "type": "0x2",
      "transactionHash": "0x30b035e33b79bf5d669ef9d4c8fe43c7818e2bab131f50b3798b29941b3f755a",
      "transactionIndex": "0x27",
      "blockHash": "0xd2d9eed3709c31bd53f30dcc84c3182ba850b49fb236bc95ffc8cd29558a49d4",
      "blockNumber": "0x6c2204",
      "gasUsed": "0x96e1",
      "effectiveGasPrice": "0x8d8e575",
      "from": "0x81d786b35f3ea2f39aa17cb18d9772e4ecd97206",
      "to": "0x1c7d4b196cb0c7b01d743fbc6116a902379c7238",
      "contractAddress": null
    },
    {
      "status": "0x1",
      "cumulativeGasUsed": "0x10f22f8",
      "logs": [
        {
          "address": "0x000000000022d473030f116ddee9f6b43ac78ba3",
          "topics": [
            "0xda9fa7c1b00402c17d0161b249b1ab8bbec047c5a52207b9c112deffd817036b",
            "0x00000000000000000000000081d786b35f3ea2f39aa17cb18d9772e4ecd97206",
            "0x0000000000000000000000001c7d4b196cb0c7b01d743fbc6116a902379c7238",
            "0x0000000000000000000000001b1c77b606d13b09c84d1c7394b96b147bc03147"
          ],
          "data": "0x000000000000000000000000ffffffffffffffffffffffffffffffffffffffff0000000000000000000000000000000000000000000000000000ffffffffffff",
          "blockHash": "0xd2d9eed3709c31bd53f30dcc84c3182ba850b49fb236bc95ffc8cd29558a49d4",
          "blockNumber": "0x6c2204",
          "blockTimestamp": "0x67382388",
          "transactionHash": "0x57b684d67dde1fb22d9943b53697fcdc1006e5ac2bb7562b230d2f078ff8c77b",
          "transactionIndex": "0x28",
          "logIndex": "0x199",
          "removed": false
        }
      ],
      "logsBloom": "0x00010000000000000000000000000000000000000000000000000000000000000000000000000040000000000000000000000000000004000000000000080000100000000000000200000000000000800000000000000000000000000000000000000000000000000000000000000000000000000000000000000000000000000020000000000000000000000000000000000000000000000000000000000000000000000000000000000000000000000000008000000000000000080020000000000000000000000000000000000002000000000000000040000000000000000000000000000000000000000000000000800000000000000000000000000400",
      "type": "0x2",
      "transactionHash": "0x57b684d67dde1fb22d9943b53697fcdc1006e5ac2bb7562b230d2f078ff8c77b",
      "transactionIndex": "0x28",
      "blockHash": "0xd2d9eed3709c31bd53f30dcc84c3182ba850b49fb236bc95ffc8cd29558a49d4",
      "blockNumber": "0x6c2204",
      "gasUsed": "0x6d0e",
      "effectiveGasPrice": "0x8d8e575",
      "from": "0x81d786b35f3ea2f39aa17cb18d9772e4ecd97206",
      "to": "0x000000000022d473030f116ddee9f6b43ac78ba3",
      "contractAddress": null
    },
    {
      "status": "0x1",
      "cumulativeGasUsed": "0x10f9e71",
      "logs": [
        {
          "address": "0x34182d56d905a195524a8f1813180c134687ca34",
          "topics": [
            "0x8c5be1e5ebec7d5bd14f71427d1e84f3dd0314c0f7b2291e5b200ac8c7c3b925",
            "0x00000000000000000000000081d786b35f3ea2f39aa17cb18d9772e4ecd97206",
            "0x000000000000000000000000000000000022d473030f116ddee9f6b43ac78ba3"
          ],
          "data": "0xffffffffffffffffffffffffffffffffffffffffffffffffffffffffffffffff",
          "blockHash": "0xd2d9eed3709c31bd53f30dcc84c3182ba850b49fb236bc95ffc8cd29558a49d4",
          "blockNumber": "0x6c2204",
          "blockTimestamp": "0x67382388",
          "transactionHash": "0xc1b1da1b338c14d23239b6dcbd31b770774b99541999d2e1c061fb177dcb0b7b",
          "transactionIndex": "0x29",
          "logIndex": "0x19a",
          "removed": false
        }
      ],
      "logsBloom": "0x00000000000000000000000000000000000000000000000000000000000000000000000000000000000000000000000000000000800000000000000000200000000000000000000200004000000000800000000000000800000000000000000000000000000000000000000008000000000000000000000000000000000000000000000000000000000000000000000000000000000000000000000000000000020000000000000000000000000000000000000200000000000000000000000000000000000000000000000000000002000000000000000000000000000080000010000000000000000000000000000000000000000000000000000000000000",
      "type": "0x2",
      "transactionHash": "0xc1b1da1b338c14d23239b6dcbd31b770774b99541999d2e1c061fb177dcb0b7b",
      "transactionIndex": "0x29",
      "blockHash": "0xd2d9eed3709c31bd53f30dcc84c3182ba850b49fb236bc95ffc8cd29558a49d4",
      "blockNumber": "0x6c2204",
      "gasUsed": "0x7b79",
      "effectiveGasPrice": "0x8d8e575",
      "from": "0x81d786b35f3ea2f39aa17cb18d9772e4ecd97206",
      "to": "0x34182d56d905a195524a8f1813180c134687ca34",
      "contractAddress": null
    },
    {
      "status": "0x1",
      "cumulativeGasUsed": "0x1100b7f",
      "logs": [
        {
          "address": "0x000000000022d473030f116ddee9f6b43ac78ba3",
          "topics": [
            "0xda9fa7c1b00402c17d0161b249b1ab8bbec047c5a52207b9c112deffd817036b",
            "0x00000000000000000000000081d786b35f3ea2f39aa17cb18d9772e4ecd97206",
            "0x00000000000000000000000034182d56d905a195524a8f1813180c134687ca34",
            "0x0000000000000000000000001b1c77b606d13b09c84d1c7394b96b147bc03147"
          ],
          "data": "0x000000000000000000000000ffffffffffffffffffffffffffffffffffffffff0000000000000000000000000000000000000000000000000000ffffffffffff",
          "blockHash": "0xd2d9eed3709c31bd53f30dcc84c3182ba850b49fb236bc95ffc8cd29558a49d4",
          "blockNumber": "0x6c2204",
          "blockTimestamp": "0x67382388",
          "transactionHash": "0x5aa99c4b14b48cbfd12a2d629fb4b43713baf664965f3697c7aa9aebd8f49665",
          "transactionIndex": "0x2a",
          "logIndex": "0x19b",
          "removed": false
        }
      ],
      "logsBloom": "0x00010000000000000000000000000000000000000000000020000000000000000000800000000040000000000000000000000000000000000000000000080000000000000000000200000000000000800000000000000000000000000000000000000000000000000000000000000000000000000000000000000000000000000020000000000000000000000000000000000000000000000000000000000000000040000000000000000000000000000000000000000000000000080020000000000000000000000000000000000002000000000000000040000000000000000000000000000000000000000000000000800000000000000000000000000400",
      "type": "0x2",
      "transactionHash": "0x5aa99c4b14b48cbfd12a2d629fb4b43713baf664965f3697c7aa9aebd8f49665",
      "transactionIndex": "0x2a",
      "blockHash": "0xd2d9eed3709c31bd53f30dcc84c3182ba850b49fb236bc95ffc8cd29558a49d4",
      "blockNumber": "0x6c2204",
      "gasUsed": "0x6d0e",
      "effectiveGasPrice": "0x8d8e575",
      "from": "0x81d786b35f3ea2f39aa17cb18d9772e4ecd97206",
      "to": "0x000000000022d473030f116ddee9f6b43ac78ba3",
      "contractAddress": null
    },
    {
      "status": "0x1",
      "cumulativeGasUsed": "0x1141f06",
      "logs": [
        {
          "address": "0x1b1c77b606d13b09c84d1c7394b96b147bc03147",
          "topics": [
            "0xddf252ad1be2c89b69c2b068fc378daa952ba7f163c4a11628f55a4df523b3ef",
            "0x0000000000000000000000000000000000000000000000000000000000000000",
            "0x0000000000000000000000001804c8ab1f12e6bbf3894d4083f33e07309d1f38",
            "0x0000000000000000000000000000000000000000000000000000000000000037"
          ],
          "data": "0x",
          "blockHash": "0xd2d9eed3709c31bd53f30dcc84c3182ba850b49fb236bc95ffc8cd29558a49d4",
          "blockNumber": "0x6c2204",
          "blockTimestamp": "0x67382388",
          "transactionHash": "0xd28d94bedff8c40b6e26d63e02907af4f4749760ad1bcbe9a34a94335b09f919",
          "transactionIndex": "0x2b",
          "logIndex": "0x19c",
          "removed": false
        },
        {
          "address": "0x8c4bcbe6b9ef47855f97e675296fa3f6fafa5f1a",
          "topics": [
            "0xf208f4912782fd25c7f114ca3723a2d5dd6f3bcc3ac8db5af63baa85f711d5ec",
            "0x0843384e4bf12bedfa739c6f73c195b7257d1b152ac857cfb1fc7347be1bfbf2",
            "0x0000000000000000000000001b1c77b606d13b09c84d1c7394b96b147bc03147"
          ],
          "data": "0xfffffffffffffffffffffffffffffffffffffffffffffffffffffffffffffda8000000000000000000000000000000000000000000000000000000000000025800000000000000000000000000000000000000000000000000000000000f7d540000000000000000000000000000000000000000000000000000000000000037",
          "blockHash": "0xd2d9eed3709c31bd53f30dcc84c3182ba850b49fb236bc95ffc8cd29558a49d4",
          "blockNumber": "0x6c2204",
          "blockTimestamp": "0x67382388",
          "transactionHash": "0xd28d94bedff8c40b6e26d63e02907af4f4749760ad1bcbe9a34a94335b09f919",
          "transactionIndex": "0x2b",
          "logIndex": "0x19d",
          "removed": false
        },
        {
          "address": "0x1c7d4b196cb0c7b01d743fbc6116a902379c7238",
          "topics": [
            "0xddf252ad1be2c89b69c2b068fc378daa952ba7f163c4a11628f55a4df523b3ef",
            "0x00000000000000000000000081d786b35f3ea2f39aa17cb18d9772e4ecd97206",
            "0x0000000000000000000000008c4bcbe6b9ef47855f97e675296fa3f6fafa5f1a"
          ],
          "data": "0x0000000000000000000000000000000000000000000000000000000000007530",
          "blockHash": "0xd2d9eed3709c31bd53f30dcc84c3182ba850b49fb236bc95ffc8cd29558a49d4",
          "blockNumber": "0x6c2204",
          "blockTimestamp": "0x67382388",
          "transactionHash": "0xd28d94bedff8c40b6e26d63e02907af4f4749760ad1bcbe9a34a94335b09f919",
          "transactionIndex": "0x2b",
          "logIndex": "0x19e",
          "removed": false
        },
        {
          "address": "0x34182d56d905a195524a8f1813180c134687ca34",
          "topics": [
            "0xddf252ad1be2c89b69c2b068fc378daa952ba7f163c4a11628f55a4df523b3ef",
            "0x00000000000000000000000081d786b35f3ea2f39aa17cb18d9772e4ecd97206",
            "0x0000000000000000000000008c4bcbe6b9ef47855f97e675296fa3f6fafa5f1a"
          ],
          "data": "0x0000000000000000000000000000000000000000000000000000000000007530",
          "blockHash": "0xd2d9eed3709c31bd53f30dcc84c3182ba850b49fb236bc95ffc8cd29558a49d4",
          "blockNumber": "0x6c2204",
          "blockTimestamp": "0x67382388",
          "transactionHash": "0xd28d94bedff8c40b6e26d63e02907af4f4749760ad1bcbe9a34a94335b09f919",
          "transactionIndex": "0x2b",
          "logIndex": "0x19f",
          "removed": false
        }
      ],
      "logsBloom": "0x000000002000000000000000000000000000000000000000000000000002000800000000000000400000000020000000000000000000000000000000000000000000000000000002000000080000008000000000000000001008000000000000000000000200001000010000090008000000000000000000000000100000000000004000011000001000040000000000000000000000001000000000000000000000040000000000000000800000000000000002000000000000000000200000000000020000040000000000008000020040200000000000000000000000a0000000000000000000000010000000000004800000100000000000000000000000",
      "type": "0x2",
      "transactionHash": "0xd28d94bedff8c40b6e26d63e02907af4f4749760ad1bcbe9a34a94335b09f919",
      "transactionIndex": "0x2b",
      "blockHash": "0xd2d9eed3709c31bd53f30dcc84c3182ba850b49fb236bc95ffc8cd29558a49d4",
      "blockNumber": "0x6c2204",
      "gasUsed": "0x41387",
      "effectiveGasPrice": "0x8d8e575",
      "from": "0x81d786b35f3ea2f39aa17cb18d9772e4ecd97206",
      "to": "0x1b1c77b606d13b09c84d1c7394b96b147bc03147",
      "contractAddress": null
    }
  ],
  "libraries": [],
  "pending": [],
  "returns": {},
  "timestamp": 1731732362,
  "chain": 11155111,
  "commit": "633df5c"
}