{
  "transactions": [
    {
      "hash": "0x1c3285346ad100fd3654f965aaa6f15c3c7063acb3ca27b54942c091f977a55f",
      "transactionType": "CALL",
      "contractName": null,
      "contractAddress": "0x1c7d4b196cb0c7b01d743fbc6116a902379c7238",
      "function": "approve(address,uint256)",
      "arguments": [
        "0x000000000022D473030F116dDEE9F6B43aC78BA3",
        "115792089237316195423570985008687907853269984665640564039457584007913129639935"
      ],
      "transaction": {
        "from": "0x81d786b35f3ea2f39aa17cb18d9772e4ecd97206",
        "to": "0x1c7d4b196cb0c7b01d743fbc6116a902379c7238",
        "gas": "0xdca8",
        "value": "0x0",
        "input": "0x095ea7b3000000000000000000000000000000000022d473030f116ddee9f6b43ac78ba3ffffffffffffffffffffffffffffffffffffffffffffffffffffffffffffffff",
        "nonce": "0x45",
        "chainId": "0xaa36a7"
      },
      "additionalContracts": [],
      "isFixedGasLimit": false
    },
    {
      "hash": "0xadc965e50c5b43eed48996094bde9a03ef4d06b81817846db6fd4073e9893c7d",
      "transactionType": "CALL",
      "contractName": null,
      "contractAddress": "0x000000000022d473030f116ddee9f6b43ac78ba3",
      "function": "approve(address,address,uint160,uint48)",
      "arguments": [
        "0x1c7D4B196Cb0C7B01d743Fbc6116a902379C7238",
        "0x1B1C77B606d13b09C84d1c7394B96b147bC03147",
        "1461501637330902918203684832716283019655932542975",
        "281474976710655"
      ],
      "transaction": {
        "from": "0x81d786b35f3ea2f39aa17cb18d9772e4ecd97206",
        "to": "0x000000000022d473030f116ddee9f6b43ac78ba3",
        "gas": "0x96a0",
        "value": "0x0",
        "input": "0x87517c450000000000000000000000001c7d4b196cb0c7b01d743fbc6116a902379c72380000000000000000000000001b1c77b606d13b09c84d1c7394b96b147bc03147000000000000000000000000ffffffffffffffffffffffffffffffffffffffff0000000000000000000000000000000000000000000000000000ffffffffffff",
        "nonce": "0x46",
        "chainId": "0xaa36a7"
      },
      "additionalContracts": [],
      "isFixedGasLimit": false
    },
    {
      "hash": "0x8b6c469a1ce0764e1a90d22ec2bcf1ce095c1d1d2acc484bcd14887bf6db3496",
      "transactionType": "CALL",
      "contractName": null,
      "contractAddress": "0x34182d56d905a195524a8f1813180c134687ca34",
      "function": "approve(address,uint256)",
      "arguments": [
        "0x000000000022D473030F116dDEE9F6B43aC78BA3",
        "115792089237316195423570985008687907853269984665640564039457584007913129639935"
      ],
      "transaction": {
        "from": "0x81d786b35f3ea2f39aa17cb18d9772e4ecd97206",
        "to": "0x34182d56d905a195524a8f1813180c134687ca34",
        "gas": "0xb494",
        "value": "0x0",
        "input": "0x095ea7b3000000000000000000000000000000000022d473030f116ddee9f6b43ac78ba3ffffffffffffffffffffffffffffffffffffffffffffffffffffffffffffffff",
        "nonce": "0x47",
        "chainId": "0xaa36a7"
      },
      "additionalContracts": [],
      "isFixedGasLimit": false
    },
    {
      "hash": "0xcdc040f91f11e1cb46ba79807f3d13d61326bc04804c6f7979496f6356248864",
      "transactionType": "CALL",
      "contractName": null,
      "contractAddress": "0x000000000022d473030f116ddee9f6b43ac78ba3",
      "function": "approve(address,address,uint160,uint48)",
      "arguments": [
        "0x34182d56d905a195524a8F1813180C134687ca34",
        "0x1B1C77B606d13b09C84d1c7394B96b147bC03147",
        "1461501637330902918203684832716283019655932542975",
        "281474976710655"
      ],
      "transaction": {
        "from": "0x81d786b35f3ea2f39aa17cb18d9772e4ecd97206",
        "to": "0x000000000022d473030f116ddee9f6b43ac78ba3",
        "gas": "0x96a0",
        "value": "0x0",
        "input": "0x87517c4500000000000000000000000034182d56d905a195524a8f1813180c134687ca340000000000000000000000001b1c77b606d13b09c84d1c7394b96b147bc03147000000000000000000000000ffffffffffffffffffffffffffffffffffffffff0000000000000000000000000000000000000000000000000000ffffffffffff",
        "nonce": "0x48",
        "chainId": "0xaa36a7"
      },
      "additionalContracts": [],
      "isFixedGasLimit": false
    },
    {
      "hash": "0xbbd4af946c65732adf8276ab40cfe32299250a5bbedb78450a1e12ee30e02f55",
      "transactionType": "CALL",
      "contractName": "PositionManager",
      "contractAddress": "0x1b1c77b606d13b09c84d1c7394b96b147bc03147",
      "function": "modifyLiquidities(bytes,uint256)",
      "arguments": [
        "0x000000000000000000000000000000000000000000000000000000000000004000000000000000000000000000000000000000000000000000000000000000800000000000000000000000000000000000000000000000000000000000000002021100000000000000000000000000000000000000000000000000000000000000000000000000000000000000000000000000000000000000000000000000020000000000000000000000000000000000000000000000000000000000000040000000000000000000000000000000000000000000000000000000000000020000000000000000000000000000000000000000000000000000000000000001a00000000000000000000000001c7d4b196cb0c7b01d743fbc6116a902379c723800000000000000000000000034182d56d905a195524a8f1813180c134687ca340000000000000000000000000000000000000000000000000000000000000bb8000000000000000000000000000000000000000000000000000000000000003c00000000000000000000000096bf4e2fc2154cf3f48f789a469dcd1dcff80040fffffffffffffffffffffffffffffffffffffffffffffffffffffffffffffda80000000000000000000000000000000000000000000000000000000000000258000000000000000000000000000000000000000000000000000000000007a0ee00000000000000000000000000000000000000000000000000000000000075310000000000000000000000000000000000000000000000000000000005f5e1010000000000000000000000001804c8ab1f12e6bbf3894d4083f33e07309d1f380000000000000000000000000000000000000000000000000000000000000180000000000000000000000000000000000000000000000000000000000000000000000000000000000000000000000000000000000000000000000000000000400000000000000000000000001c7d4b196cb0c7b01d743fbc6116a902379c723800000000000000000000000034182d56d905a195524a8f1813180c134687ca34",
        "1731739644"
      ],
      "transaction": {
        "from": "0x81d786b35f3ea2f39aa17cb18d9772e4ecd97206",
        "to": "0x1b1c77b606d13b09c84d1c7394b96b147bc03147",
        "gas": "0x5c03a",
        "value": "0x0",
        "input": "0xdd46508f00000000000000000000000000000000000000000000000000000000000000400000000000000000000000000000000000000000000000000000000067383ffc0000000000000000000000000000000000000000000000000000000000000300000000000000000000000000000000000000000000000000000000000000004000000000000000000000000000000000000000000000000000000000000000800000000000000000000000000000000000000000000000000000000000000002021100000000000000000000000000000000000000000000000000000000000000000000000000000000000000000000000000000000000000000000000000020000000000000000000000000000000000000000000000000000000000000040000000000000000000000000000000000000000000000000000000000000020000000000000000000000000000000000000000000000000000000000000001a00000000000000000000000001c7d4b196cb0c7b01d743fbc6116a902379c723800000000000000000000000034182d56d905a195524a8f1813180c134687ca340000000000000000000000000000000000000000000000000000000000000bb8000000000000000000000000000000000000000000000000000000000000003c00000000000000000000000096bf4e2fc2154cf3f48f789a469dcd1dcff80040fffffffffffffffffffffffffffffffffffffffffffffffffffffffffffffda80000000000000000000000000000000000000000000000000000000000000258000000000000000000000000000000000000000000000000000000000007a0ee00000000000000000000000000000000000000000000000000000000000075310000000000000000000000000000000000000000000000000000000005f5e1010000000000000000000000001804c8ab1f12e6bbf3894d4083f33e07309d1f380000000000000000000000000000000000000000000000000000000000000180000000000000000000000000000000000000000000000000000000000000000000000000000000000000000000000000000000000000000000000000000000400000000000000000000000001c7d4b196cb0c7b01d743fbc6116a902379c723800000000000000000000000034182d56d905a195524a8f1813180c134687ca34",
        "nonce": "0x49",
        "chainId": "0xaa36a7"
      },
      "additionalContracts": [],
      "isFixedGasLimit": false
    }
  ],
  "receipts": [
    {
      "status": "0x1",
      "cumulativeGasUsed": "0xf55be1",
      "logs": [
        {
          "address": "0x1c7d4b196cb0c7b01d743fbc6116a902379c7238",
          "topics": [
            "0x8c5be1e5ebec7d5bd14f71427d1e84f3dd0314c0f7b2291e5b200ac8c7c3b925",
            "0x00000000000000000000000081d786b35f3ea2f39aa17cb18d9772e4ecd97206",
            "0x000000000000000000000000000000000022d473030f116ddee9f6b43ac78ba3"
          ],
          "data": "0xffffffffffffffffffffffffffffffffffffffffffffffffffffffffffffffff",
          "blockHash": "0x1f356608d107bdee5cde6684b9f1123631ba32dcff341d5f0138dadfbe98b75e",
          "blockNumber": "0x6c2439",
          "blockTimestamp": "0x67384008",
          "transactionHash": "0x1c3285346ad100fd3654f965aaa6f15c3c7063acb3ca27b54942c091f977a55f",
          "transactionIndex": "0x42",
          "logIndex": "0x84",
          "removed": false
        }
      ],
      "logsBloom": "0x00000000000000000000000000000000000000000000000000000000000200000000000000000000000000000000000000000000800000000000000000200000000000000000000200004000000000800000000000000800000000000000000000000000000000000000000000000000000000000000000000000000000000000000000000100000000000000000000000000000000000000000000000000000020000000000000000000000000000000000000000000000000000000000000000000000000000000000000000000002000000000000000000000000000000000010000000000000000010000000000000000000000000000000000000000000",
      "type": "0x2",
      "transactionHash": "0x1c3285346ad100fd3654f965aaa6f15c3c7063acb3ca27b54942c091f977a55f",
      "transactionIndex": "0x42",
      "blockHash": "0x1f356608d107bdee5cde6684b9f1123631ba32dcff341d5f0138dadfbe98b75e",
      "blockNumber": "0x6c2439",
      "gasUsed": "0x96e1",
      "effectiveGasPrice": "0x11f27464",
      "from": "0x81d786b35f3ea2f39aa17cb18d9772e4ecd97206",
      "to": "0x1c7d4b196cb0c7b01d743fbc6116a902379c7238",
      "contractAddress": null
    },
    {
      "status": "0x1",
      "cumulativeGasUsed": "0xf5c8ef",
      "logs": [
        {
          "address": "0x000000000022d473030f116ddee9f6b43ac78ba3",
          "topics": [
            "0xda9fa7c1b00402c17d0161b249b1ab8bbec047c5a52207b9c112deffd817036b",
            "0x00000000000000000000000081d786b35f3ea2f39aa17cb18d9772e4ecd97206",
            "0x0000000000000000000000001c7d4b196cb0c7b01d743fbc6116a902379c7238",
            "0x0000000000000000000000001b1c77b606d13b09c84d1c7394b96b147bc03147"
          ],
          "data": "0x000000000000000000000000ffffffffffffffffffffffffffffffffffffffff0000000000000000000000000000000000000000000000000000ffffffffffff",
          "blockHash": "0x1f356608d107bdee5cde6684b9f1123631ba32dcff341d5f0138dadfbe98b75e",
          "blockNumber": "0x6c2439",
          "blockTimestamp": "0x67384008",
          "transactionHash": "0xadc965e50c5b43eed48996094bde9a03ef4d06b81817846db6fd4073e9893c7d",
          "transactionIndex": "0x43",
          "logIndex": "0x85",
          "removed": false
        }
      ],
      "logsBloom": "0x00010000000000000000000000000000000000000000000000000000000000000000000000000040000000000000000000000000000004000000000000080000100000000000000200000000000000800000000000000000000000000000000000000000000000000000000000000000000000000000000000000000000000000020000000000000000000000000000000000000000000000000000000000000000000000000000000000000000000000000008000000000000000080020000000000000000000000000000000000002000000000000000040000000000000000000000000000000000000000000000000800000000000000000000000000400",
      "type": "0x2",
      "transactionHash": "0xadc965e50c5b43eed48996094bde9a03ef4d06b81817846db6fd4073e9893c7d",
      "transactionIndex": "0x43",
      "blockHash": "0x1f356608d107bdee5cde6684b9f1123631ba32dcff341d5f0138dadfbe98b75e",
      "blockNumber": "0x6c2439",
      "gasUsed": "0x6d0e",
      "effectiveGasPrice": "0x11f27464",
      "from": "0x81d786b35f3ea2f39aa17cb18d9772e4ecd97206",
      "to": "0x000000000022d473030f116ddee9f6b43ac78ba3",
      "contractAddress": null
    },
    {
      "status": "0x1",
      "cumulativeGasUsed": "0xf64468",
      "logs": [
        {
          "address": "0x34182d56d905a195524a8f1813180c134687ca34",
          "topics": [
            "0x8c5be1e5ebec7d5bd14f71427d1e84f3dd0314c0f7b2291e5b200ac8c7c3b925",
            "0x00000000000000000000000081d786b35f3ea2f39aa17cb18d9772e4ecd97206",
            "0x000000000000000000000000000000000022d473030f116ddee9f6b43ac78ba3"
          ],
          "data": "0xffffffffffffffffffffffffffffffffffffffffffffffffffffffffffffffff",
          "blockHash": "0x1f356608d107bdee5cde6684b9f1123631ba32dcff341d5f0138dadfbe98b75e",
          "blockNumber": "0x6c2439",
          "blockTimestamp": "0x67384008",
          "transactionHash": "0x8b6c469a1ce0764e1a90d22ec2bcf1ce095c1d1d2acc484bcd14887bf6db3496",
          "transactionIndex": "0x44",
          "logIndex": "0x86",
          "removed": false
        }
      ],
      "logsBloom": "0x00000000000000000000000000000000000000000000000000000000000000000000000000000000000000000000000000000000800000000000000000200000000000000000000200004000000000800000000000000800000000000000000000000000000000000000000008000000000000000000000000000000000000000000000000000000000000000000000000000000000000000000000000000000020000000000000000000000000000000000000200000000000000000000000000000000000000000000000000000002000000000000000000000000000080000010000000000000000000000000000000000000000000000000000000000000",
      "type": "0x2",
      "transactionHash": "0x8b6c469a1ce0764e1a90d22ec2bcf1ce095c1d1d2acc484bcd14887bf6db3496",
      "transactionIndex": "0x44",
      "blockHash": "0x1f356608d107bdee5cde6684b9f1123631ba32dcff341d5f0138dadfbe98b75e",
      "blockNumber": "0x6c2439",
      "gasUsed": "0x7b79",
      "effectiveGasPrice": "0x11f27464",
      "from": "0x81d786b35f3ea2f39aa17cb18d9772e4ecd97206",
      "to": "0x34182d56d905a195524a8f1813180c134687ca34",
      "contractAddress": null
    },
    {
      "status": "0x1",
      "cumulativeGasUsed": "0xf6b176",
      "logs": [
        {
          "address": "0x000000000022d473030f116ddee9f6b43ac78ba3",
          "topics": [
            "0xda9fa7c1b00402c17d0161b249b1ab8bbec047c5a52207b9c112deffd817036b",
            "0x00000000000000000000000081d786b35f3ea2f39aa17cb18d9772e4ecd97206",
            "0x00000000000000000000000034182d56d905a195524a8f1813180c134687ca34",
            "0x0000000000000000000000001b1c77b606d13b09c84d1c7394b96b147bc03147"
          ],
          "data": "0x000000000000000000000000ffffffffffffffffffffffffffffffffffffffff0000000000000000000000000000000000000000000000000000ffffffffffff",
          "blockHash": "0x1f356608d107bdee5cde6684b9f1123631ba32dcff341d5f0138dadfbe98b75e",
          "blockNumber": "0x6c2439",
          "blockTimestamp": "0x67384008",
          "transactionHash": "0xcdc040f91f11e1cb46ba79807f3d13d61326bc04804c6f7979496f6356248864",
          "transactionIndex": "0x45",
          "logIndex": "0x87",
          "removed": false
        }
      ],
      "logsBloom": "0x00010000000000000000000000000000000000000000000020000000000000000000800000000040000000000000000000000000000000000000000000080000000000000000000200000000000000800000000000000000000000000000000000000000000000000000000000000000000000000000000000000000000000000020000000000000000000000000000000000000000000000000000000000000000040000000000000000000000000000000000000000000000000080020000000000000000000000000000000000002000000000000000040000000000000000000000000000000000000000000000000800000000000000000000000000400",
      "type": "0x2",
      "transactionHash": "0xcdc040f91f11e1cb46ba79807f3d13d61326bc04804c6f7979496f6356248864",
      "transactionIndex": "0x45",
      "blockHash": "0x1f356608d107bdee5cde6684b9f1123631ba32dcff341d5f0138dadfbe98b75e",
      "blockNumber": "0x6c2439",
      "gasUsed": "0x6d0e",
      "effectiveGasPrice": "0x11f27464",
      "from": "0x81d786b35f3ea2f39aa17cb18d9772e4ecd97206",
      "to": "0x000000000022d473030f116ddee9f6b43ac78ba3",
      "contractAddress": null
    }
  ],
  "libraries": [],
  "pending": [],
  "returns": {},
  "timestamp": 1731739657,
  "chain": 11155111,
  "commit": "00d419b"
}